{
  "contractName": "Co",
  "abi": [
    {
      "constant": true,
      "inputs": [],
      "name": "assetAddress",
      "outputs": [
        {
          "name": "",
          "type": "address"
        }
      ],
      "payable": false,
      "stateMutability": "view",
      "type": "function"
    },
    {
      "constant": true,
      "inputs": [],
      "name": "getAppManagerAddress",
      "outputs": [
        {
          "name": "",
          "type": "address"
        }
      ],
      "payable": false,
      "stateMutability": "view",
      "type": "function"
    },
    {
      "constant": true,
      "inputs": [],
      "name": "slope",
      "outputs": [
        {
          "name": "",
          "type": "uint256"
        }
      ],
      "payable": false,
      "stateMutability": "view",
      "type": "function"
    },
    {
      "constant": true,
      "inputs": [],
      "name": "Co_ChangeAlpha",
      "outputs": [
        {
          "name": "",
          "type": "bytes32"
        }
      ],
      "payable": false,
      "stateMutability": "view",
      "type": "function"
    },
    {
      "constant": true,
      "inputs": [],
      "name": "EMPTY_PARAM_HASH",
      "outputs": [
        {
          "name": "",
          "type": "bytes32"
        }
      ],
      "payable": false,
      "stateMutability": "view",
      "type": "function"
    },
    {
      "constant": true,
      "inputs": [],
      "name": "alpha",
      "outputs": [
        {
          "name": "",
          "type": "uint256"
        }
      ],
      "payable": false,
      "stateMutability": "view",
      "type": "function"
    },
    {
      "constant": true,
      "inputs": [],
      "name": "Co_ChangeSlop",
      "outputs": [
        {
          "name": "",
          "type": "bytes32"
        }
      ],
      "payable": false,
      "stateMutability": "view",
      "type": "function"
    },
    {
      "constant": true,
      "inputs": [
        {
          "name": "_addr",
          "type": "address"
        }
      ],
      "name": "balance",
      "outputs": [
        {
          "name": "",
          "type": "uint256"
        }
      ],
      "payable": false,
      "stateMutability": "view",
      "type": "function"
    },
    {
      "constant": true,
      "inputs": [],
      "name": "appManager",
      "outputs": [
        {
          "name": "",
          "type": "address"
        }
      ],
      "payable": false,
      "stateMutability": "view",
      "type": "function"
    },
    {
      "inputs": [
        {
          "name": "_appManager",
          "type": "address"
        },
        {
          "name": "_slope",
          "type": "uint256"
        },
        {
          "name": "_alpha",
          "type": "uint256"
        }
      ],
      "payable": false,
      "stateMutability": "nonpayable",
      "type": "constructor"
    },
    {
      "anonymous": false,
      "inputs": [
        {
          "indexed": false,
          "name": "_slope",
          "type": "uint256"
        }
      ],
      "name": "OnChangeSlope",
      "type": "event"
    },
    {
      "anonymous": false,
      "inputs": [
        {
          "indexed": false,
          "name": "_alpha",
          "type": "uint256"
        }
      ],
      "name": "OnChangeAlpha",
      "type": "event"
    },
    {
      "constant": false,
      "inputs": [
        {
          "name": "_slope",
          "type": "uint256"
        }
      ],
      "name": "changeSlop",
      "outputs": [
        {
          "name": "",
          "type": "bool"
        }
      ],
      "payable": false,
      "stateMutability": "nonpayable",
      "type": "function"
    },
    {
      "constant": false,
      "inputs": [
        {
          "name": "_alpha",
          "type": "uint256"
        }
      ],
      "name": "changeAlpha",
      "outputs": [
        {
          "name": "",
          "type": "bool"
        }
      ],
      "payable": false,
      "stateMutability": "nonpayable",
      "type": "function"
    },
    {
      "constant": true,
      "inputs": [
        {
          "name": "_totalValue",
          "type": "uint256"
        }
      ],
      "name": "getVauleToReserve",
      "outputs": [
        {
          "name": "",
          "type": "uint256"
        }
      ],
      "payable": false,
      "stateMutability": "view",
      "type": "function"
    },
    {
      "constant": true,
      "inputs": [
        {
          "name": "_crowdFundMoney",
          "type": "uint256"
        }
      ],
      "name": "getCrowdFundPrice",
      "outputs": [
        {
          "name": "",
          "type": "uint256"
        }
      ],
      "payable": false,
      "stateMutability": "view",
      "type": "function"
    },
    {
      "constant": true,
      "inputs": [
        {
          "name": "_value",
          "type": "uint256"
        },
        {
          "name": "_totalSupply",
          "type": "uint256"
        }
      ],
      "name": "getBuyAmount",
      "outputs": [
        {
          "name": "",
          "type": "uint256"
        }
      ],
      "payable": false,
      "stateMutability": "view",
      "type": "function"
    },
    {
      "constant": true,
      "inputs": [
        {
          "name": "_sellAmount",
          "type": "uint256"
        },
        {
          "name": "_sellReserve",
          "type": "uint256"
        },
        {
          "name": "_totalSupply",
          "type": "uint256"
        }
      ],
      "name": "getSellValue",
      "outputs": [
        {
          "name": "",
          "type": "uint256"
        }
      ],
      "payable": false,
      "stateMutability": "view",
      "type": "function"
    }
  ],
  "bytecode": "0x608060405234801561001057600080fd5b506040516060806112018339810180604052606081101561003057600080fd5b8101908080519060200190929190805190602001909291908051906020019092919050505082806000806101000a81548173ffffffffffffffffffffffffffffffffffffffff021916908373ffffffffffffffffffffffffffffffffffffffff1602179055508073ffffffffffffffffffffffffffffffffffffffff16631ba46cfd6040518163ffffffff1660e01b815260040160206040518083038186803b1580156100dc57600080fd5b505afa1580156100f0573d6000803e3d6000fd5b505050506040513d602081101561010657600080fd5b8101908080519060200190929190505050600160006101000a81548173ffffffffffffffffffffffffffffffffffffffff021916908373ffffffffffffffffffffffffffffffffffffffff160217905550508160028190555080600381905550505050611089806101786000396000f3fe608060405234801561001057600080fd5b50600436106100f55760003560e01c80639bffc94411610097578063dded3dea11610066578063dded3dea14610362578063e3d670d714610380578063ebe86c13146103d8578063f81cb5ae14610422576100f5565b80639bffc944146102c2578063b6a58149146102e0578063c513f66e14610326578063db1d0fd514610344576100f5565b80634c330077116100d35780634c330077146101cc57806356d68a2d1461021657806383caf275146102625780638bcc953714610280576100f5565b80631ba46cfd146100fa57806332386d9e14610144578063344faef614610186575b600080fd5b610102610478565b604051808273ffffffffffffffffffffffffffffffffffffffff1673ffffffffffffffffffffffffffffffffffffffff16815260200191505060405180910390f35b6101706004803603602081101561015a57600080fd5b810190808035906020019092919050505061049e565b6040518082815260200191505060405180910390f35b6101b26004803603602081101561019c57600080fd5b810190808035906020019092919050505061052b565b604051808215151515815260200191505060405180910390f35b6101d461074a565b604051808273ffffffffffffffffffffffffffffffffffffffff1673ffffffffffffffffffffffffffffffffffffffff16815260200191505060405180910390f35b61024c6004803603604081101561022c57600080fd5b810190808035906020019092919080359060200190929190505050610773565b6040518082815260200191505060405180910390f35b61026a6107fc565b6040518082815260200191505060405180910390f35b6102ac6004803603602081101561029657600080fd5b8101908080359060200190929190505050610802565b6040518082815260200191505060405180910390f35b6102ca610834565b6040518082815260200191505060405180910390f35b61030c600480360360208110156102f657600080fd5b810190808035906020019092919050505061086d565b604051808215151515815260200191505060405180910390f35b61032e610a7e565b6040518082815260200191505060405180910390f35b61034c610aa5565b6040518082815260200191505060405180910390f35b61036a610aab565b6040518082815260200191505060405180910390f35b6103c26004803603602081101561039657600080fd5b81019080803573ffffffffffffffffffffffffffffffffffffffff169060200190929190505050610ae4565b6040518082815260200191505060405180910390f35b6103e0610bc7565b604051808273ffffffffffffffffffffffffffffffffffffffff1673ffffffffffffffffffffffffffffffffffffffff16815260200191505060405180910390f35b6104626004803603606081101561043857600080fd5b81019080803590602001909291908035906020019092919080359060200190929190505050610bec565b6040518082815260200191505060405180910390f35b600160009054906101000a900473ffffffffffffffffffffffffffffffffffffffff1681565b6000806104dd6002546104cf6103e86104c1600288610c6a90919063ffffffff16565b610c6a90919063ffffffff16565b610cf090919063ffffffff16565b90506105236103e861051560025461050760026104f987610d3a565b610cf090919063ffffffff16565b610c6a90919063ffffffff16565b610cf090919063ffffffff16565b915050919050565b600060405180807f436f5f4368616e6765416c706861000000000000000000000000000000000000815250600e01905060405180910390206000809054906101000a900473ffffffffffffffffffffffffffffffffffffffff1673ffffffffffffffffffffffffffffffffffffffff16634c5f07493330847f290decd9548b62a8d60345a988386fc84ba6bc95484008f6362f93160ef3e56360001b6040518563ffffffff1660e01b8152600401808573ffffffffffffffffffffffffffffffffffffffff1673ffffffffffffffffffffffffffffffffffffffff1681526020018473ffffffffffffffffffffffffffffffffffffffff1673ffffffffffffffffffffffffffffffffffffffff16815260200183815260200182815260200194505050505060206040518083038186803b15801561066857600080fd5b505afa15801561067c573d6000803e3d6000fd5b505050506040513d602081101561069257600080fd5b81019080805190602001909291905050506106f8576040517f08c379a000000000000000000000000000000000000000000000000000000000815260040180806020018281038252602481526020018061103a6024913960400191505060405180910390fd5b612710831061070657600080fd5b826003819055507fb29f7427378d95c038b9500642788c5178270200c421d56a2ea7bc661aa766dc836040518082815260200191505060405180910390a150919050565b60008060009054906101000a900473ffffffffffffffffffffffffffffffffffffffff16905090565b6000806107d661078c8485610c6a90919063ffffffff16565b6107c86002546107ba6103e86107ac60028b610c6a90919063ffffffff16565b610c6a90919063ffffffff16565b610cf090919063ffffffff16565b610dc090919063ffffffff16565b90506107f3836107e583610d3a565b610e4890919063ffffffff16565b91505092915050565b60025481565b600061082d6103e861081f84600354610c6a90919063ffffffff16565b610cf090919063ffffffff16565b9050919050565b60405180807f436f5f4368616e6765416c706861000000000000000000000000000000000000815250600e019050604051809103902081565b600060405180807f436f5f4368616e6765536c6f7000000000000000000000000000000000000000815250600d01905060405180910390206000809054906101000a900473ffffffffffffffffffffffffffffffffffffffff1673ffffffffffffffffffffffffffffffffffffffff16634c5f07493330847f290decd9548b62a8d60345a988386fc84ba6bc95484008f6362f93160ef3e56360001b6040518563ffffffff1660e01b8152600401808573ffffffffffffffffffffffffffffffffffffffff1673ffffffffffffffffffffffffffffffffffffffff1681526020018473ffffffffffffffffffffffffffffffffffffffff1673ffffffffffffffffffffffffffffffffffffffff16815260200183815260200182815260200194505050505060206040518083038186803b1580156109aa57600080fd5b505afa1580156109be573d6000803e3d6000fd5b505050506040513d60208110156109d457600080fd5b8101908080519060200190929190505050610a3a576040517f08c379a000000000000000000000000000000000000000000000000000000000815260040180806020018281038252602481526020018061103a6024913960400191505060405180910390fd5b826002819055507f78b8461277b70bb5459f5ec7f52367c197c98401da02d19fad54b60715a98e84836040518082815260200191505060405180910390a150919050565b7f290decd9548b62a8d60345a988386fc84ba6bc95484008f6362f93160ef3e56360001b81565b60035481565b60405180807f436f5f4368616e6765536c6f7000000000000000000000000000000000000000815250600d019050604051809103902081565b6000600160009054906101000a900473ffffffffffffffffffffffffffffffffffffffff1673ffffffffffffffffffffffffffffffffffffffff166370a08231836040518263ffffffff1660e01b8152600401808273ffffffffffffffffffffffffffffffffffffffff1673ffffffffffffffffffffffffffffffffffffffff16815260200191505060206040518083038186803b158015610b8557600080fd5b505afa158015610b99573d6000803e3d6000fd5b505050506040513d6020811015610baf57600080fd5b81019080805190602001909291905050509050919050565b6000809054906101000a900473ffffffffffffffffffffffffffffffffffffffff1681565b600080610c5d83610c4f85610c41610c208a610c1260028b610c6a90919063ffffffff16565b610e4890919063ffffffff16565b610c338b8b610c6a90919063ffffffff16565b610c6a90919063ffffffff16565b610cf090919063ffffffff16565b610cf090919063ffffffff16565b9050809150509392505050565b600080831415610c7d5760009050610cea565b6000828402905082848281610c8e57fe5b0414610ce5576040517f08c379a00000000000000000000000000000000000000000000000000000000081526004018080602001828103825260218152602001806110196021913960400191505060405180910390fd5b809150505b92915050565b6000610d3283836040518060400160405280601a81526020017f536166654d6174683a206469766973696f6e206279207a65726f000000000000815250610e92565b905092915050565b600080610d646002610d56600186610dc090919063ffffffff16565b610cf090919063ffffffff16565b905060008390505b80821015610db657819050610daf6002610da184610d938689610cf090919063ffffffff16565b610dc090919063ffffffff16565b610cf090919063ffffffff16565b9150610d6c565b8092505050919050565b600080828401905083811015610e3e576040517f08c379a000000000000000000000000000000000000000000000000000000000815260040180806020018281038252601b8152602001807f536166654d6174683a206164646974696f6e206f766572666c6f77000000000081525060200191505060405180910390fd5b8091505092915050565b6000610e8a83836040518060400160405280601e81526020017f536166654d6174683a207375627472616374696f6e206f766572666c6f770000815250610f58565b905092915050565b60008083118290610f3e576040517f08c379a00000000000000000000000000000000000000000000000000000000081526004018080602001828103825283818151815260200191508051906020019080838360005b83811015610f03578082015181840152602081019050610ee8565b50505050905090810190601f168015610f305780820380516001836020036101000a031916815260200191505b509250505060405180910390fd5b506000838581610f4a57fe5b049050809150509392505050565b6000838311158290611005576040517f08c379a00000000000000000000000000000000000000000000000000000000081526004018080602001828103825283818151815260200191508051906020019080838360005b83811015610fca578082015181840152602081019050610faf565b50505050905090810190601f168015610ff75780820380516001836020036101000a031916815260200191505b509250505060405180910390fd5b506000838503905080915050939250505056fe536166654d6174683a206d756c7469706c69636174696f6e206f766572666c6f774e6f207065726d697373696f6e20746f20696e766f6b652074686520436f6e7472616374a165627a7a72305820743a6d0fc01908131a58576037a138b2dabffd97992098a9db9f19070584878f0029",
  "source": "pragma solidity >=0.4.22 <=0.6.1;\r\n\r\nimport \"../apps/FutureDaoApp.sol\";\r\nimport \"../Interface/ICurve.sol\";\r\n\r\ncontract Co is ICurve ,FutureDaoApp{\r\n\r\n    uint256 public slope; //1000 * 10**9\r\n\r\n    uint256 public alpha; //300\r\n\r\n    bytes32 public constant Co_ChangeSlop = keccak256(\"Co_ChangeSlop\");\r\n    bytes32 public constant Co_ChangeAlpha = keccak256(\"Co_ChangeAlpha\");\r\n\r\n    event OnChangeSlope(uint256 _slope);\r\n    event OnChangeAlpha(uint256 _alpha);\r\n\r\n    constructor(AppManager _appManager,uint256 _slope,uint256 _alpha) FutureDaoApp(_appManager) public {\r\n        slope = _slope;\r\n        alpha = _alpha;\r\n    }\r\n\r\n    function changeSlop(uint256 _slope) public auth(Co_ChangeSlop) returns(bool){\r\n        slope = _slope;\r\n        emit OnChangeSlope(_slope);\r\n    }\r\n\r\n    function changeAlpha(uint256 _alpha) public auth(Co_ChangeAlpha) returns(bool){\r\n        require(_alpha<10000);\r\n        alpha = _alpha;\r\n        emit OnChangeAlpha(_alpha);\r\n    }\r\n\r\n    function getVauleToReserve(uint256 _totalValue) external view returns(uint256){\r\n        return alpha.mul(_totalValue).div(1000);\r\n    }\r\n\r\n    function getCrowdFundPrice(uint256 _crowdFundMoney) external view returns(uint256){\r\n        uint256 _n = (_crowdFundMoney.mul(2).mul(1000)).div(slope);\r\n        return _sqrt(_n).div(2).mul(slope).div(1000);\r\n    }\r\n\r\n    function getBuyAmount(uint256 _value,uint256 _totalSupply) external view returns(uint256){\r\n        uint256 _n = (_value.mul(2).mul(1000).div(slope)).add(_totalSupply.mul(_totalSupply));\r\n        return _sqrt(_n).sub(_totalSupply);\r\n    }\r\n\r\n    function getSellValue(uint256 _sellAmount,uint256 _sellReserve,uint256 _totalSupply) external view returns(uint256){\r\n        uint256 _n = (_sellReserve.mul(_sellAmount)).mul((_totalSupply.mul(2).sub(_sellAmount))).div(_totalSupply).div(_totalSupply);\r\n        return _n;\r\n    }\r\n\r\n    ///////////////\r\n    // 内部函数\r\n    //////////////\r\n    function _sqrt(uint256 x) internal pure returns(uint256){\r\n        uint256 z = x.add(1).div(2);\r\n        uint256 y = x;\r\n        while(z < y){\r\n            y = z;\r\n            z = ((x.div(z)).add(z)).div(2);\r\n        }\r\n        return y;\r\n    }\r\n}",
  "sourcePath": "D:/_______work/FD_Contract_ETH/fd/contracts/Curve/Co.sol",
  "compiler": {
    "name": "solc",
    "version": "0.5.8+commit.23d335f2.Emscripten.clang"
  },
  "schemaVersion": "3.0.11",
  "updatedAt": "2020-04-10T08:15:38.078Z",
  "devdoc": {
    "methods": {}
  },
  "userdoc": {
    "methods": {}
  }
}