{
  "contractName": "DateTime",
  "abi": [
    {
      "constant": true,
      "inputs": [
        {
          "name": "year",
          "type": "uint16"
        }
      ],
      "name": "isLeapYear",
      "outputs": [
        {
          "name": "",
          "type": "bool"
        }
      ],
      "payable": false,
      "stateMutability": "pure",
      "type": "function"
    },
    {
      "constant": true,
      "inputs": [
        {
          "name": "_year",
          "type": "uint16"
        }
      ],
      "name": "leapYearsBefore",
      "outputs": [
        {
          "name": "",
          "type": "uint16"
        }
      ],
      "payable": false,
      "stateMutability": "pure",
      "type": "function"
    },
    {
      "constant": true,
      "inputs": [
        {
          "name": "month",
          "type": "uint8"
        },
        {
          "name": "year",
          "type": "uint16"
        }
      ],
      "name": "getDaysInMonth",
      "outputs": [
        {
          "name": "",
          "type": "uint8"
        }
      ],
      "payable": false,
      "stateMutability": "pure",
      "type": "function"
    },
    {
      "constant": true,
      "inputs": [
        {
          "name": "timestamp",
          "type": "uint256"
        }
      ],
      "name": "getYear",
      "outputs": [
        {
          "name": "",
          "type": "uint16"
        }
      ],
      "payable": false,
      "stateMutability": "pure",
      "type": "function"
    },
    {
      "constant": true,
      "inputs": [
        {
          "name": "timestamp",
          "type": "uint256"
        }
      ],
      "name": "getMonth",
      "outputs": [
        {
          "name": "",
          "type": "uint8"
        }
      ],
      "payable": false,
      "stateMutability": "pure",
      "type": "function"
    },
    {
      "constant": true,
      "inputs": [
        {
          "name": "timestamp",
          "type": "uint256"
        }
      ],
      "name": "getDay",
      "outputs": [
        {
          "name": "",
          "type": "uint8"
        }
      ],
      "payable": false,
      "stateMutability": "pure",
      "type": "function"
    },
    {
      "constant": true,
      "inputs": [
        {
          "name": "timestamp",
          "type": "uint256"
        }
      ],
      "name": "getHour",
      "outputs": [
        {
          "name": "",
          "type": "uint8"
        }
      ],
      "payable": false,
      "stateMutability": "pure",
      "type": "function"
    },
    {
      "constant": true,
      "inputs": [
        {
          "name": "timestamp",
          "type": "uint256"
        }
      ],
      "name": "getMinute",
      "outputs": [
        {
          "name": "",
          "type": "uint8"
        }
      ],
      "payable": false,
      "stateMutability": "pure",
      "type": "function"
    },
    {
      "constant": true,
      "inputs": [
        {
          "name": "timestamp",
          "type": "uint256"
        }
      ],
      "name": "getSecond",
      "outputs": [
        {
          "name": "",
          "type": "uint8"
        }
      ],
      "payable": false,
      "stateMutability": "pure",
      "type": "function"
    },
    {
      "constant": true,
      "inputs": [
        {
          "name": "timestamp",
          "type": "uint256"
        }
      ],
      "name": "getWeekday",
      "outputs": [
        {
          "name": "",
          "type": "uint8"
        }
      ],
      "payable": false,
      "stateMutability": "pure",
      "type": "function"
    },
    {
      "constant": true,
      "inputs": [
        {
          "name": "year",
          "type": "uint16"
        },
        {
          "name": "month",
          "type": "uint8"
        },
        {
          "name": "day",
          "type": "uint8"
        },
        {
          "name": "hour",
          "type": "uint8"
        },
        {
          "name": "minute",
          "type": "uint8"
        },
        {
          "name": "second",
          "type": "uint8"
        }
      ],
      "name": "toTimestamp",
      "outputs": [
        {
          "name": "timestamp",
          "type": "uint256"
        }
      ],
      "payable": false,
      "stateMutability": "pure",
      "type": "function"
    },
    {
      "constant": true,
      "inputs": [
        {
          "name": "year",
          "type": "uint16"
        },
        {
          "name": "month",
          "type": "uint8"
        },
        {
          "name": "day",
          "type": "uint8"
        },
        {
          "name": "hour",
          "type": "uint8"
        }
      ],
      "name": "toTimestamp",
      "outputs": [
        {
          "name": "timestamp",
          "type": "uint256"
        }
      ],
      "payable": false,
      "stateMutability": "pure",
      "type": "function"
    },
    {
      "constant": true,
      "inputs": [
        {
          "name": "year",
          "type": "uint16"
        },
        {
          "name": "month",
          "type": "uint8"
        },
        {
          "name": "day",
          "type": "uint8"
        },
        {
          "name": "hour",
          "type": "uint8"
        },
        {
          "name": "minute",
          "type": "uint8"
        }
      ],
      "name": "toTimestamp",
      "outputs": [
        {
          "name": "timestamp",
          "type": "uint256"
        }
      ],
      "payable": false,
      "stateMutability": "pure",
      "type": "function"
    },
    {
      "constant": true,
      "inputs": [
        {
          "name": "year",
          "type": "uint16"
        },
        {
          "name": "month",
          "type": "uint8"
        },
        {
          "name": "day",
          "type": "uint8"
        }
      ],
      "name": "toTimestamp",
      "outputs": [
        {
          "name": "timestamp",
          "type": "uint256"
        }
      ],
      "payable": false,
      "stateMutability": "pure",
      "type": "function"
    }
  ],
  "bytecode": "0x608060405234801561001057600080fd5b50610d8e806100206000396000f3fe608060405234801561001057600080fd5b50600436106100ea5760003560e01c80638c8d98a01161008c578063a324ad2411610066578063a324ad2414610475578063a6f0e577146104bd578063b238ad0e14610507578063fa93f88314610560576100ea565b80638c8d98a0146103445780639054bdec146103a457806392d663131461042b576100ea565b806365c72840116100c857806365c72840146101f95780637f7918331461024157806387d689f6146102ae5780638aa001fc146102fc576100ea565b80633e239e1a146100ef5780634ac1ad781461013757806362ba96871461017f575b600080fd5b61011b6004803603602081101561010557600080fd5b81019080803590602001909291905050506105a8565b604051808260ff1660ff16815260200191505060405180910390f35b6101636004803603602081101561014d57600080fd5b81019080803590602001909291905050506105cf565b604051808260ff1660ff16815260200191505060405180910390f35b6101e3600480360360a081101561019557600080fd5b81019080803561ffff169060200190929190803560ff169060200190929190803560ff169060200190929190803560ff169060200190929190803560ff1690602001909291905050506105f2565b6040518082815260200191505060405180910390f35b6102256004803603602081101561020f57600080fd5b810190808035906020019092919050505061060e565b604051808260ff1660ff16815260200191505060405180910390f35b6102986004803603608081101561025757600080fd5b81019080803561ffff169060200190929190803560ff169060200190929190803560ff169060200190929190803560ff169060200190929190505050610624565b6040518082815260200191505060405180910390f35b6102de600480360360208110156102c457600080fd5b81019080803561ffff16906020019092919050505061063f565b604051808261ffff1661ffff16815260200191505060405180910390f35b6103286004803603602081101561031257600080fd5b8101908080359060200190929190505050610680565b604051808260ff1660ff16815260200191505060405180910390f35b61038e6004803603606081101561035a57600080fd5b81019080803561ffff169060200190929190803560ff169060200190929190803560ff169060200190929190505050610694565b6040518082815260200191505060405180910390f35b610415600480360360c08110156103ba57600080fd5b81019080803561ffff169060200190929190803560ff169060200190929190803560ff169060200190929190803560ff169060200190929190803560ff169060200190929190803560ff1690602001909291905050506106af565b6040518082815260200191505060405180910390f35b6104576004803603602081101561044157600080fd5b810190808035906020019092919050505061093a565b604051808261ffff1661ffff16815260200191505060405180910390f35b6104a16004803603602081101561048b57600080fd5b81019080803590602001909291905050506109df565b604051808260ff1660ff16815260200191505060405180910390f35b6104ed600480360360208110156104d357600080fd5b81019080803561ffff1690602001909291905050506109f5565b604051808215151515815260200191505060405180910390f35b6105446004803603604081101561051d57600080fd5b81019080803560ff169060200190929190803561ffff169060200190929190505050610a6a565b604051808260ff1660ff16815260200191505060405180910390f35b61058c6004803603602081101561057657600080fd5b8101908080359060200190929190505050610b36565b604051808260ff1660ff16815260200191505060405180910390f35b60006018603c8084816105b757fe5b04816105bf57fe5b04816105c757fe5b069050919050565b6000600760046201518084816105e157fe5b0401816105ea57fe5b069050919050565b6000610603868686868660006106af565b905095945050505050565b600061061982610b53565b604001519050919050565b6000610635858585856000806106af565b9050949350505050565b6000806001830390506101908161ffff168161065757fe5b0460648261ffff168161066657fe5b0460048361ffff168161067557fe5b040301915050919050565b6000603c828161068c57fe5b069050919050565b60006106a684848460008060006106af565b90509392505050565b6000806107b290505b8761ffff168161ffff1610156106fb576106d1816109f5565b156106e4576301e28500820191506106ee565b6301e13380820191505b80806001019150506106b8565b610703610cec565b601f816000600c811061071257fe5b602002019060ff16908160ff168152505061072c896109f5565b1561075657601d816001600c811061074057fe5b602002019060ff16908160ff1681525050610777565b601c816001600c811061076557fe5b602002019060ff16908160ff16815250505b601f816002600c811061078657fe5b602002019060ff16908160ff1681525050601e816003600c81106107a657fe5b602002019060ff16908160ff1681525050601f816004600c81106107c657fe5b602002019060ff16908160ff1681525050601e816005600c81106107e657fe5b602002019060ff16908160ff1681525050601f816006600c811061080657fe5b602002019060ff16908160ff1681525050601f816007600c811061082657fe5b602002019060ff16908160ff1681525050601e816008600c811061084657fe5b602002019060ff16908160ff1681525050601f816009600c811061086657fe5b602002019060ff16908160ff1681525050601e81600a600c811061088657fe5b602002019060ff16908160ff1681525050601f81600b600c81106108a657fe5b602002019060ff16908160ff1681525050600191505b8760ff168261ffff1610156108fc57806001830361ffff16600c81106108de57fe5b602002015160ff1662015180028301925081806001019250506108bc565b6001870360ff166201518002830192508560ff16610e1002830192508460ff16603c02830192508360ff168301925082925050509695505050505050565b600080600090506000806301e13380858161095157fe5b046107b261ffff160191506109676107b261063f565b6109708361063f565b0361ffff169050806301e285000283019250806107b2830361ffff16036301e1338002830192505b848311156109d4576109ac600183036109f5565b156109bf576301e28500830392506109c9565b6301e13380830392505b600182039150610998565b819350505050919050565b60006109ea82610b53565b602001519050919050565b60008060048361ffff1681610a0657fe5b0661ffff1614610a195760009050610a65565b600060648361ffff1681610a2957fe5b0661ffff1614610a3c5760019050610a65565b60006101908361ffff1681610a4d57fe5b0661ffff1614610a605760009050610a65565b600190505b919050565b600060018360ff161480610a81575060038360ff16145b80610a8f575060058360ff16145b80610a9d575060078360ff16145b80610aab575060088360ff16145b80610ab95750600a8360ff16145b80610ac75750600c8360ff16145b15610ad557601f9050610b30565b60048360ff161480610aea575060068360ff16145b80610af8575060098360ff16145b80610b065750600b8360ff16145b15610b1457601e9050610b30565b610b1d826109f5565b15610b2b57601d9050610b30565b601c90505b92915050565b6000603c808381610b4357fe5b0481610b4b57fe5b069050919050565b610b5b610d0f565b6000809050600080610b6c8561093a565b846000019061ffff16908161ffff1681525050610b8a6107b261063f565b610b97856000015161063f565b0361ffff169150816301e285000283019250816107b285600001510361ffff16036301e1338002830192506000600191505b600c8260ff1611610c1f57610be2828660000151610a6a565b60ff1662015180029050858482011115610c0d5781856020019060ff16908160ff1681525050610c1f565b80840193508180600101925050610bc9565b600191505b610c3685602001518660000151610a6a565b60ff168260ff1611610c7b57858462015180011115610c665781856040019060ff16908160ff1681525050610c7b565b62015180840193508180600101925050610c24565b610c84866105a8565b856060019060ff16908160ff1681525050610c9e86610b36565b856080019060ff16908160ff1681525050610cb886610680565b8560a0019060ff16908160ff1681525050610cd2866105cf565b8560c0019060ff16908160ff168152505050505050919050565b604051806101800160405280600c90602082028038833980820191505090505090565b6040518060e00160405280600061ffff168152602001600060ff168152602001600060ff168152602001600060ff168152602001600060ff168152602001600060ff168152602001600060ff168152509056fea165627a7a723058209836a7f7e87bcd6cfd7c1d35785c61f74d276e67d6d957949d70f6b56c0bbbb50029",
  "source": "pragma solidity >=0.4.22 <0.6.0;\r\n\r\n/////Modify the  https://github.com/pipermerriam/ethereum-datetime\r\n\r\nimport \"../Interface/IDateTime.sol\";\r\n\r\ncontract DateTime is IDateTime{\r\n        /*\r\n         *  Date and Time utilities for ethereum contracts\r\n         *\r\n         */\r\n        struct _DateTime {\r\n                uint16 year;\r\n                uint8 month;\r\n                uint8 day;\r\n                uint8 hour;\r\n                uint8 minute;\r\n                uint8 second;\r\n                uint8 weekday;\r\n        }\r\n\r\n        uint constant DAY_IN_SECONDS = 86400;\r\n        uint constant YEAR_IN_SECONDS = 31536000;\r\n        uint constant LEAP_YEAR_IN_SECONDS = 31622400;\r\n\r\n        uint constant HOUR_IN_SECONDS = 3600;\r\n        uint constant MINUTE_IN_SECONDS = 60;\r\n\r\n        uint16 constant ORIGIN_YEAR = 1970;\r\n\r\n        function isLeapYear(uint16 year) public pure returns (bool) {\r\n                if (year % 4 != 0) {\r\n                        return false;\r\n                }\r\n                if (year % 100 != 0) {\r\n                        return true;\r\n                }\r\n                if (year % 400 != 0) {\r\n                        return false;\r\n                }\r\n                return true;\r\n        }\r\n\r\n        function leapYearsBefore(uint16 _year) public pure returns (uint16) {\r\n                uint16 year = _year - 1;\r\n                return year / 4 - year / 100 + year / 400;\r\n        }\r\n\r\n        function getDaysInMonth(uint8 month, uint16 year) public pure returns (uint8) {\r\n                if (month == 1 || month == 3 || month == 5 || month == 7 || month == 8 || month == 10 || month == 12) {\r\n                        return 31;\r\n                }\r\n                else if (month == 4 || month == 6 || month == 9 || month == 11) {\r\n                        return 30;\r\n                }\r\n                else if (isLeapYear(year)) {\r\n                        return 29;\r\n                }\r\n                else {\r\n                        return 28;\r\n                }\r\n        }\r\n\r\n        function parseTimestamp(uint timestamp) internal pure returns (_DateTime memory dt) {\r\n                uint secondsAccountedFor = 0;\r\n                uint buf;\r\n                uint8 i;\r\n\r\n                // Year\r\n                dt.year = getYear(timestamp);\r\n                buf = leapYearsBefore(dt.year) - leapYearsBefore(ORIGIN_YEAR);\r\n\r\n                secondsAccountedFor += LEAP_YEAR_IN_SECONDS * buf;\r\n                secondsAccountedFor += YEAR_IN_SECONDS * (dt.year - ORIGIN_YEAR - buf);\r\n\r\n                // Month\r\n                uint secondsInMonth;\r\n                for (i = 1; i <= 12; i++) {\r\n                        secondsInMonth = DAY_IN_SECONDS * getDaysInMonth(i, dt.year);\r\n                        if (secondsInMonth + secondsAccountedFor > timestamp) {\r\n                                dt.month = i;\r\n                                break;\r\n                        }\r\n                        secondsAccountedFor += secondsInMonth;\r\n                }\r\n\r\n                // Day\r\n                for (i = 1; i <= getDaysInMonth(dt.month, dt.year); i++) {\r\n                        if (DAY_IN_SECONDS + secondsAccountedFor > timestamp) {\r\n                                dt.day = i;\r\n                                break;\r\n                        }\r\n                        secondsAccountedFor += DAY_IN_SECONDS;\r\n                }\r\n\r\n                // Hour\r\n                dt.hour = getHour(timestamp);\r\n\r\n                // Minute\r\n                dt.minute = getMinute(timestamp);\r\n\r\n                // Second\r\n                dt.second = getSecond(timestamp);\r\n\r\n                // Day of week.\r\n                dt.weekday = getWeekday(timestamp);\r\n        }\r\n\r\n        function getYear(uint timestamp) public pure returns (uint16) {\r\n                uint secondsAccountedFor = 0;\r\n                uint16 year;\r\n                uint numLeapYears;\r\n\r\n                // Year\r\n                year = uint16(ORIGIN_YEAR + timestamp / YEAR_IN_SECONDS);\r\n                numLeapYears = leapYearsBefore(year) - leapYearsBefore(ORIGIN_YEAR);\r\n\r\n                secondsAccountedFor += LEAP_YEAR_IN_SECONDS * numLeapYears;\r\n                secondsAccountedFor += YEAR_IN_SECONDS * (year - ORIGIN_YEAR - numLeapYears);\r\n\r\n                while (secondsAccountedFor > timestamp) {\r\n                        if (isLeapYear(uint16(year - 1))) {\r\n                                secondsAccountedFor -= LEAP_YEAR_IN_SECONDS;\r\n                        }\r\n                        else {\r\n                                secondsAccountedFor -= YEAR_IN_SECONDS;\r\n                        }\r\n                        year -= 1;\r\n                }\r\n                return year;\r\n        }\r\n\r\n        function getMonth(uint timestamp) public pure returns (uint8) {\r\n                return parseTimestamp(timestamp).month;\r\n        }\r\n\r\n        function getDay(uint timestamp) public pure returns (uint8) {\r\n                return parseTimestamp(timestamp).day;\r\n        }\r\n\r\n        function getHour(uint timestamp) public pure returns (uint8) {\r\n                return uint8((timestamp / 60 / 60) % 24);\r\n        }\r\n\r\n        function getMinute(uint timestamp) public pure returns (uint8) {\r\n                return uint8((timestamp / 60) % 60);\r\n        }\r\n\r\n        function getSecond(uint timestamp) public pure returns (uint8) {\r\n                return uint8(timestamp % 60);\r\n        }\r\n\r\n        function getWeekday(uint timestamp) public pure returns (uint8) {\r\n                return uint8((timestamp / DAY_IN_SECONDS + 4) % 7);\r\n        }\r\n\r\n        function toTimestamp(uint16 year, uint8 month, uint8 day) public pure returns (uint timestamp) {\r\n                return toTimestamp(year, month, day, 0, 0, 0);\r\n        }\r\n\r\n        function toTimestamp(uint16 year, uint8 month, uint8 day, uint8 hour) public pure returns (uint timestamp) {\r\n                return toTimestamp(year, month, day, hour, 0, 0);\r\n        }\r\n\r\n        function toTimestamp(uint16 year, uint8 month, uint8 day, uint8 hour, uint8 minute) public pure returns (uint timestamp) {\r\n                return toTimestamp(year, month, day, hour, minute, 0);\r\n        }\r\n\r\n        function toTimestamp(uint16 year, uint8 month, uint8 day, uint8 hour, uint8 minute, uint8 second) public pure returns (uint timestamp) {\r\n                uint16 i;\r\n\r\n                // Year\r\n                for (i = ORIGIN_YEAR; i < year; i++) {\r\n                        if (isLeapYear(i)) {\r\n                                timestamp += LEAP_YEAR_IN_SECONDS;\r\n                        }\r\n                        else {\r\n                                timestamp += YEAR_IN_SECONDS;\r\n                        }\r\n                }\r\n\r\n                // Month\r\n                uint8[12] memory monthDayCounts;\r\n                monthDayCounts[0] = 31;\r\n                if (isLeapYear(year)) {\r\n                        monthDayCounts[1] = 29;\r\n                }\r\n                else {\r\n                        monthDayCounts[1] = 28;\r\n                }\r\n                monthDayCounts[2] = 31;\r\n                monthDayCounts[3] = 30;\r\n                monthDayCounts[4] = 31;\r\n                monthDayCounts[5] = 30;\r\n                monthDayCounts[6] = 31;\r\n                monthDayCounts[7] = 31;\r\n                monthDayCounts[8] = 30;\r\n                monthDayCounts[9] = 31;\r\n                monthDayCounts[10] = 30;\r\n                monthDayCounts[11] = 31;\r\n\r\n                for (i = 1; i < month; i++) {\r\n                        timestamp += DAY_IN_SECONDS * monthDayCounts[i - 1];\r\n                }\r\n\r\n                // Day\r\n                timestamp += DAY_IN_SECONDS * (day - 1);\r\n\r\n                // Hour\r\n                timestamp += HOUR_IN_SECONDS * (hour);\r\n\r\n                // Minute\r\n                timestamp += MINUTE_IN_SECONDS * (minute);\r\n\r\n                // Second\r\n                timestamp += second;\r\n\r\n                return timestamp;\r\n        }\r\n}",
  "sourcePath": "D:/_______work/FD_Contract_ETH/fd/contracts/lib/DateTime.sol",
  "compiler": {
    "name": "solc",
    "version": "0.5.8+commit.23d335f2.Emscripten.clang"
  },
  "schemaVersion": "3.0.11",
  "updatedAt": "2019-12-30T07:25:25.069Z",
  "devdoc": {
    "methods": {}
  },
  "userdoc": {
    "methods": {}
  }
}