{
  "contractName": "TradeFundPool",
  "abi": [
    {
      "constant": true,
      "inputs": [],
      "name": "FundPool_ChangeRatio",
      "outputs": [
        {
          "name": "",
          "type": "bytes32"
        }
      ],
      "payable": false,
      "stateMutability": "view",
      "type": "function"
    },
    {
      "constant": true,
      "inputs": [],
      "name": "assetAddress",
      "outputs": [
        {
          "name": "",
          "type": "address"
        }
      ],
      "payable": false,
      "stateMutability": "view",
      "type": "function"
    },
    {
      "constant": true,
      "inputs": [],
      "name": "preSendTimestamp",
      "outputs": [
        {
          "name": "",
          "type": "uint256"
        }
      ],
      "payable": false,
      "stateMutability": "view",
      "type": "function"
    },
    {
      "constant": true,
      "inputs": [],
      "name": "started",
      "outputs": [
        {
          "name": "",
          "type": "bool"
        }
      ],
      "payable": false,
      "stateMutability": "view",
      "type": "function"
    },
    {
      "constant": true,
      "inputs": [],
      "name": "monthlyAllocationMinValue",
      "outputs": [
        {
          "name": "",
          "type": "uint256"
        }
      ],
      "payable": false,
      "stateMutability": "view",
      "type": "function"
    },
    {
      "constant": true,
      "inputs": [],
      "name": "sellReserve",
      "outputs": [
        {
          "name": "",
          "type": "uint256"
        }
      ],
      "payable": false,
      "stateMutability": "view",
      "type": "function"
    },
    {
      "constant": true,
      "inputs": [],
      "name": "getAppManagerAddress",
      "outputs": [
        {
          "name": "",
          "type": "address"
        }
      ],
      "payable": false,
      "stateMutability": "view",
      "type": "function"
    },
    {
      "constant": true,
      "inputs": [],
      "name": "FundPool_Clearing",
      "outputs": [
        {
          "name": "",
          "type": "bytes32"
        }
      ],
      "payable": false,
      "stateMutability": "view",
      "type": "function"
    },
    {
      "constant": true,
      "inputs": [],
      "name": "monthlyAllocationMaxValue",
      "outputs": [
        {
          "name": "",
          "type": "uint256"
        }
      ],
      "payable": false,
      "stateMutability": "view",
      "type": "function"
    },
    {
      "constant": true,
      "inputs": [],
      "name": "monthlyAllocationRatio_1000",
      "outputs": [
        {
          "name": "",
          "type": "uint256"
        }
      ],
      "payable": false,
      "stateMutability": "view",
      "type": "function"
    },
    {
      "constant": true,
      "inputs": [],
      "name": "FundPool_Start",
      "outputs": [
        {
          "name": "",
          "type": "bytes32"
        }
      ],
      "payable": false,
      "stateMutability": "view",
      "type": "function"
    },
    {
      "constant": true,
      "inputs": [],
      "name": "EMPTY_PARAM_HASH",
      "outputs": [
        {
          "name": "",
          "type": "bytes32"
        }
      ],
      "payable": false,
      "stateMutability": "view",
      "type": "function"
    },
    {
      "constant": true,
      "inputs": [
        {
          "name": "_addr",
          "type": "address"
        }
      ],
      "name": "balance",
      "outputs": [
        {
          "name": "",
          "type": "uint256"
        }
      ],
      "payable": false,
      "stateMutability": "view",
      "type": "function"
    },
    {
      "constant": true,
      "inputs": [],
      "name": "appManager",
      "outputs": [
        {
          "name": "",
          "type": "address"
        }
      ],
      "payable": false,
      "stateMutability": "view",
      "type": "function"
    },
    {
      "inputs": [
        {
          "name": "_appManager",
          "type": "address"
        },
        {
          "name": "_shares",
          "type": "address"
        },
        {
          "name": "_curve",
          "type": "address"
        },
        {
          "name": "_monthlyAllocationRatio_1000",
          "type": "uint256"
        },
        {
          "name": "_monthlyAllocationMaxValue",
          "type": "uint256"
        },
        {
          "name": "_monthlyAllocationMinValue",
          "type": "uint256"
        }
      ],
      "payable": false,
      "stateMutability": "nonpayable",
      "type": "constructor"
    },
    {
      "payable": true,
      "stateMutability": "payable",
      "type": "fallback"
    },
    {
      "anonymous": false,
      "inputs": [
        {
          "indexed": false,
          "name": "who",
          "type": "address"
        },
        {
          "indexed": false,
          "name": "assetValue",
          "type": "uint256"
        },
        {
          "indexed": false,
          "name": "sharesAmount",
          "type": "uint256"
        }
      ],
      "name": "OnBuy",
      "type": "event"
    },
    {
      "anonymous": false,
      "inputs": [
        {
          "indexed": false,
          "name": "who",
          "type": "address"
        },
        {
          "indexed": false,
          "name": "assetValue",
          "type": "uint256"
        },
        {
          "indexed": false,
          "name": "sharesAmount",
          "type": "uint256"
        }
      ],
      "name": "OnSell",
      "type": "event"
    },
    {
      "anonymous": false,
      "inputs": [
        {
          "indexed": false,
          "name": "who",
          "type": "address"
        },
        {
          "indexed": false,
          "name": "assetValue",
          "type": "uint256"
        }
      ],
      "name": "OnRevenue",
      "type": "event"
    },
    {
      "anonymous": false,
      "inputs": [
        {
          "indexed": false,
          "name": "who",
          "type": "address"
        },
        {
          "indexed": false,
          "name": "assetValue",
          "type": "uint256"
        }
      ],
      "name": "OnSendToGovern",
      "type": "event"
    },
    {
      "anonymous": false,
      "inputs": [
        {
          "indexed": false,
          "name": "clearingContractAddress",
          "type": "address"
        },
        {
          "indexed": false,
          "name": "ratio",
          "type": "uint256"
        },
        {
          "indexed": false,
          "name": "ethReserveAmount",
          "type": "uint256"
        },
        {
          "indexed": false,
          "name": "ethGovernAmount",
          "type": "uint256"
        }
      ],
      "name": "OnClearing",
      "type": "event"
    },
    {
      "anonymous": false,
      "inputs": [
        {
          "indexed": false,
          "name": "tag",
          "type": "string"
        }
      ],
      "name": "OnEvent",
      "type": "event"
    },
    {
      "anonymous": false,
      "inputs": [
        {
          "indexed": false,
          "name": "ratio",
          "type": "uint256"
        },
        {
          "indexed": false,
          "name": "minValue",
          "type": "uint256"
        },
        {
          "indexed": false,
          "name": "maxValue",
          "type": "uint256"
        }
      ],
      "name": "OnChangeMonthlyAllocation",
      "type": "event"
    },
    {
      "constant": true,
      "inputs": [],
      "name": "getCurveAddress",
      "outputs": [
        {
          "name": "",
          "type": "address"
        }
      ],
      "payable": false,
      "stateMutability": "view",
      "type": "function"
    },
    {
      "constant": true,
      "inputs": [],
      "name": "getSharesAddress",
      "outputs": [
        {
          "name": "",
          "type": "address"
        }
      ],
      "payable": false,
      "stateMutability": "view",
      "type": "function"
    },
    {
      "constant": false,
      "inputs": [],
      "name": "start",
      "outputs": [],
      "payable": false,
      "stateMutability": "nonpayable",
      "type": "function"
    },
    {
      "constant": false,
      "inputs": [
        {
          "name": "_ratio",
          "type": "uint256"
        },
        {
          "name": "_minValue",
          "type": "uint256"
        },
        {
          "name": "_maxValue",
          "type": "uint256"
        }
      ],
      "name": "changeMonthlyAllocation",
      "outputs": [],
      "payable": false,
      "stateMutability": "nonpayable",
      "type": "function"
    },
    {
      "constant": false,
      "inputs": [
        {
          "name": "_assetValue",
          "type": "uint256"
        },
        {
          "name": "_minBuyToken",
          "type": "uint256"
        },
        {
          "name": "tag",
          "type": "string"
        }
      ],
      "name": "buy",
      "outputs": [],
      "payable": true,
      "stateMutability": "payable",
      "type": "function"
    },
    {
      "constant": false,
      "inputs": [
        {
          "name": "_amount",
          "type": "uint256"
        },
        {
          "name": "_minGasValue",
          "type": "uint256"
        }
      ],
      "name": "sell",
      "outputs": [],
      "payable": false,
      "stateMutability": "nonpayable",
      "type": "function"
    },
    {
      "constant": false,
      "inputs": [
        {
          "name": "_assetValue",
          "type": "uint256"
        }
      ],
      "name": "revenue",
      "outputs": [],
      "payable": true,
      "stateMutability": "payable",
      "type": "function"
    },
    {
      "constant": false,
      "inputs": [],
      "name": "sendToGovern",
      "outputs": [],
      "payable": false,
      "stateMutability": "nonpayable",
      "type": "function"
    },
    {
      "constant": false,
      "inputs": [
        {
          "name": "_clearingContractAddress",
          "type": "address"
        },
        {
          "name": "_ratio_1000",
          "type": "uint256"
        }
      ],
      "name": "clearing",
      "outputs": [],
      "payable": false,
      "stateMutability": "nonpayable",
      "type": "function"
    }
  ],
  "bytecode": "0x60806040526000600160146101000a81548160ff02191690831515021790555034801561002b57600080fd5b5060405160c080620029ea833981018060405260c081101561004c57600080fd5b8101908080519060200190929190805190602001909291908051906020019092919080519060200190929190805190602001909291908051906020019092919050505085806000806101000a81548173ffffffffffffffffffffffffffffffffffffffff021916908373ffffffffffffffffffffffffffffffffffffffff1602179055508073ffffffffffffffffffffffffffffffffffffffff16631ba46cfd6040518163ffffffff1660e01b815260040160206040518083038186803b15801561011657600080fd5b505afa15801561012a573d6000803e3d6000fd5b505050506040513d602081101561014057600080fd5b8101908080519060200190929190505050600160006101000a81548173ffffffffffffffffffffffffffffffffffffffff021916908373ffffffffffffffffffffffffffffffffffffffff1602179055505083600760006101000a81548173ffffffffffffffffffffffffffffffffffffffff021916908373ffffffffffffffffffffffffffffffffffffffff16021790555084600860006101000a81548173ffffffffffffffffffffffffffffffffffffffff021916908373ffffffffffffffffffffffffffffffffffffffff1602179055508060058190555081600481905550826003819055505050505050506127ab806200023f6000396000f3fe6080604052600436106101405760003560e01c80635ea9aef2116100b6578063a0ce08971161006f578063a0ce0897146105b8578063be9a6555146105e3578063c513f66e146105fa578063d79875eb14610625578063e3d670d71461066a578063ebe86c13146106cf57610140565b80635ea9aef2146103f7578063686648e9146104225780636cd97279146104795780638dc1d57d146104a457806399331fdf146104bb5780639eac5c931461058a57610140565b806328e9b4c81161010857806328e9b4c8146102755780633d00e61b146102a057806345c26410146102cb5780634c3300771461031a5780634dceabe2146103715780634f25e2a31461039c57610140565b806314d3e84a146101425780631ba46cfd1461016d5780631c681470146101c45780631f2698ab146101ef57806323572c571461021e575b005b34801561014e57600080fd5b50610157610726565b6040518082815260200191505060405180910390f35b34801561017957600080fd5b5061018261075f565b604051808273ffffffffffffffffffffffffffffffffffffffff1673ffffffffffffffffffffffffffffffffffffffff16815260200191505060405180910390f35b3480156101d057600080fd5b506101d9610785565b6040518082815260200191505060405180910390f35b3480156101fb57600080fd5b5061020461078b565b604051808215151515815260200191505060405180910390f35b34801561022a57600080fd5b5061023361079e565b604051808273ffffffffffffffffffffffffffffffffffffffff1673ffffffffffffffffffffffffffffffffffffffff16815260200191505060405180910390f35b34801561028157600080fd5b5061028a6107c8565b6040518082815260200191505060405180910390f35b3480156102ac57600080fd5b506102b56107ce565b6040518082815260200191505060405180910390f35b3480156102d757600080fd5b50610318600480360360608110156102ee57600080fd5b810190808035906020019092919080359060200190929190803590602001909291905050506107d4565b005b34801561032657600080fd5b5061032f610abe565b604051808273ffffffffffffffffffffffffffffffffffffffff1673ffffffffffffffffffffffffffffffffffffffff16815260200191505060405180910390f35b34801561037d57600080fd5b50610386610ae7565b6040518082815260200191505060405180910390f35b3480156103a857600080fd5b506103f5600480360360408110156103bf57600080fd5b81019080803573ffffffffffffffffffffffffffffffffffffffff16906020019092919080359060200190929190505050610b20565b005b34801561040357600080fd5b5061040c610f35565b6040518082815260200191505060405180910390f35b34801561042e57600080fd5b50610437610f3b565b604051808273ffffffffffffffffffffffffffffffffffffffff1673ffffffffffffffffffffffffffffffffffffffff16815260200191505060405180910390f35b34801561048557600080fd5b5061048e610f65565b6040518082815260200191505060405180910390f35b3480156104b057600080fd5b506104b9610f6b565b005b610588600480360360608110156104d157600080fd5b8101908080359060200190929190803590602001909291908035906020019064010000000081111561050257600080fd5b82018360208201111561051457600080fd5b8035906020019184600183028401116401000000008311171561053657600080fd5b91908080601f016020809104026020016040519081016040528093929190818152602001838380828437600081840152601f19601f82011690508083019250505050505050919291929050505061128e565b005b6105b6600480360360208110156105a057600080fd5b81019080803590602001909291905050506117a0565b005b3480156105c457600080fd5b506105cd6118c4565b6040518082815260200191505060405180910390f35b3480156105ef57600080fd5b506105f86118fd565b005b34801561060657600080fd5b5061060f611ae5565b6040518082815260200191505060405180910390f35b34801561063157600080fd5b506106686004803603604081101561064857600080fd5b810190808035906020019092919080359060200190929190505050611b0c565b005b34801561067657600080fd5b506106b96004803603602081101561068d57600080fd5b81019080803573ffffffffffffffffffffffffffffffffffffffff169060200190929190505050611fcc565b6040518082815260200191505060405180910390f35b3480156106db57600080fd5b506106e46120af565b604051808273ffffffffffffffffffffffffffffffffffffffff1673ffffffffffffffffffffffffffffffffffffffff16815260200191505060405180910390f35b60405180807f46756e64506f6f6c5f4368616e6765526174696f0000000000000000000000008152506014019050604051809103902081565b600160009054906101000a900473ffffffffffffffffffffffffffffffffffffffff1681565b60065481565b600160149054906101000a900460ff1681565b6000600760009054906101000a900473ffffffffffffffffffffffffffffffffffffffff16905090565b60055481565b60025481565b60405180807f46756e64506f6f6c5f4368616e6765526174696f000000000000000000000000815250601401905060405180910390206000809054906101000a900473ffffffffffffffffffffffffffffffffffffffff1673ffffffffffffffffffffffffffffffffffffffff16634c5f07493330847f290decd9548b62a8d60345a988386fc84ba6bc95484008f6362f93160ef3e56360001b6040518563ffffffff1660e01b8152600401808573ffffffffffffffffffffffffffffffffffffffff1673ffffffffffffffffffffffffffffffffffffffff1681526020018473ffffffffffffffffffffffffffffffffffffffff1673ffffffffffffffffffffffffffffffffffffffff16815260200183815260200182815260200194505050505060206040518083038186803b15801561090f57600080fd5b505afa158015610923573d6000803e3d6000fd5b505050506040513d602081101561093957600080fd5b810190808051906020019092919050505061099f576040517f08c379a00000000000000000000000000000000000000000000000000000000081526004018080602001828103825260248152602001806127376024913960400191505060405180910390fd5b600084600354116109b45760035485036109ba565b84600354035b90506101f46109e86003546109da6103e8856120d490919063ffffffff16565b61215a90919063ffffffff16565b10610a5b576040517f08c379a000000000000000000000000000000000000000000000000000000000815260040180806020018281038252600e8152602001807f4f76657220746865206c696d697400000000000000000000000000000000000081525060200191505060405180910390fd5b8460038190555082600481905550836005819055507f884fc4d817ff32d53070e0b7f644b11e5f2be1fa065c5ae9114bde0b73ef638985858560405180848152602001838152602001828152602001935050505060405180910390a15050505050565b60008060009054906101000a900473ffffffffffffffffffffffffffffffffffffffff16905090565b60405180807f46756e64506f6f6c5f436c656172696e670000000000000000000000000000008152506011019050604051809103902081565b60011515600160149054906101000a900460ff16151514610ba9576040517f08c379a000000000000000000000000000000000000000000000000000000000815260040180806020018281038252600a8152602001807f6e6565642073746172740000000000000000000000000000000000000000000081525060200191505060405180910390fd5b4260068190555060405180807f46756e64506f6f6c5f436c656172696e67000000000000000000000000000000815250601101905060405180910390206000809054906101000a900473ffffffffffffffffffffffffffffffffffffffff1673ffffffffffffffffffffffffffffffffffffffff16634c5f07493330847f290decd9548b62a8d60345a988386fc84ba6bc95484008f6362f93160ef3e56360001b6040518563ffffffff1660e01b8152600401808573ffffffffffffffffffffffffffffffffffffffff1673ffffffffffffffffffffffffffffffffffffffff1681526020018473ffffffffffffffffffffffffffffffffffffffff1673ffffffffffffffffffffffffffffffffffffffff16815260200183815260200182815260200194505050505060206040518083038186803b158015610ceb57600080fd5b505afa158015610cff573d6000803e3d6000fd5b505050506040513d6020811015610d1557600080fd5b8101908080519060200190929190505050610d7b576040517f08c379a00000000000000000000000000000000000000000000000000000000081526004018080602001828103825260248152602001806127376024913960400191505060405180910390fd5b6103e8821115610df3576040517f08c379a000000000000000000000000000000000000000000000000000000000815260040180806020018281038252600e8152602001807f726174696f2069732077726f6e6700000000000000000000000000000000000081525060200191505060405180910390fd5b6000610e1e6103e8610e10856002546120d490919063ffffffff16565b61215a90919063ffffffff16565b90506000610e746103e8610e6686610e586002543073ffffffffffffffffffffffffffffffffffffffff16316121a490919063ffffffff16565b6120d490919063ffffffff16565b61215a90919063ffffffff16565b9050610e8b826002546121a490919063ffffffff16565b6002819055506000610ea682846121ee90919063ffffffff16565b9050610eb28682612276565b7f743056ef6ff0f6f1cc733c1d5d164bc8abd5165365d14a6b7e599231b5cc486086868585604051808573ffffffffffffffffffffffffffffffffffffffff1673ffffffffffffffffffffffffffffffffffffffff16815260200184815260200183815260200182815260200194505050505060405180910390a1505050505050565b60045481565b6000600860009054906101000a900473ffffffffffffffffffffffffffffffffffffffff16905090565b60035481565b60011515600160149054906101000a900460ff16151514610ff4576040517f08c379a000000000000000000000000000000000000000000000000000000000815260040180806020018281038252600a8152602001807f6e6565642073746172740000000000000000000000000000000000000000000081525060200191505060405180910390fd5b42600681905550600061102762278d00611019600654426121a490919063ffffffff16565b61215a90919063ffffffff16565b90506000811161109f576040517f08c379a00000000000000000000000000000000000000000000000000000000081526004018080602001828103825260118152602001807f49742773206e6f742074696d652079657400000000000000000000000000000081525060200191505060405180910390fd5b600080905060006110c36002546110b530611fcc565b6121a490919063ffffffff16565b905060008090505b838110156111425760006110fe6103e86110f0600354866120d490919063ffffffff16565b61215a90919063ffffffff16565b9050600454811161110f5780611113565b6004545b905060055481106111245780611128565b6005545b9050808401935080830392505080806001019150506110cb565b506111ee6000809054906101000a900473ffffffffffffffffffffffffffffffffffffffff1673ffffffffffffffffffffffffffffffffffffffff1663bf7b00eb6040518163ffffffff1660e01b815260040160206040518083038186803b1580156111ad57600080fd5b505afa1580156111c1573d6000803e3d6000fd5b505050506040513d60208110156111d757600080fd5b810190808051906020019092919050505083612276565b61121861120762278d00856120d490919063ffffffff16565b6006546121ee90919063ffffffff16565b6006819055507f40fbdc84394213b3f541b93b277d472c03006acade9c13ec544de8d3d6bb6dc13383604051808373ffffffffffffffffffffffffffffffffffffffff1673ffffffffffffffffffffffffffffffffffffffff1681526020018281526020019250505060405180910390a1505050565b60011515600160149054906101000a900460ff16151514611317576040517f08c379a000000000000000000000000000000000000000000000000000000000815260040180806020018281038252600a8152602001807f6e6565642073746172740000000000000000000000000000000000000000000081525060200191505060405180910390fd5b426006819055506113293330856123d6565b6000600760009054906101000a900473ffffffffffffffffffffffffffffffffffffffff1673ffffffffffffffffffffffffffffffffffffffff166356d68a2d85600860009054906101000a900473ffffffffffffffffffffffffffffffffffffffff1673ffffffffffffffffffffffffffffffffffffffff166318160ddd6040518163ffffffff1660e01b815260040160206040518083038186803b1580156113d257600080fd5b505afa1580156113e6573d6000803e3d6000fd5b505050506040513d60208110156113fc57600080fd5b81019080805190602001909291905050506040518363ffffffff1660e01b8152600401808381526020018281526020019250505060206040518083038186803b15801561144857600080fd5b505afa15801561145c573d6000803e3d6000fd5b505050506040513d602081101561147257600080fd5b81019080805190602001909291905050509050600860009054906101000a900473ffffffffffffffffffffffffffffffffffffffff1673ffffffffffffffffffffffffffffffffffffffff166340c10f1933836040518363ffffffff1660e01b8152600401808373ffffffffffffffffffffffffffffffffffffffff1673ffffffffffffffffffffffffffffffffffffffff16815260200182815260200192505050602060405180830381600087803b15801561152e57600080fd5b505af1158015611542573d6000803e3d6000fd5b505050506040513d602081101561155857600080fd5b810190808051906020019092919050505050828110156115c3576040517f08c379a000000000000000000000000000000000000000000000000000000000815260040180806020018281038252602581526020018061275b6025913960400191505060405180910390fd5b611685600760009054906101000a900473ffffffffffffffffffffffffffffffffffffffff1673ffffffffffffffffffffffffffffffffffffffff16638bcc9537866040518263ffffffff1660e01b81526004018082815260200191505060206040518083038186803b15801561163957600080fd5b505afa15801561164d573d6000803e3d6000fd5b505050506040513d602081101561166357600080fd5b81019080805190602001909291905050506002546121ee90919063ffffffff16565b6002819055507fe1ec7176d5b997461b6dfac832d3dca02a6487756f5aa2bcb6d1eaeab56ce66c338583604051808473ffffffffffffffffffffffffffffffffffffffff1673ffffffffffffffffffffffffffffffffffffffff168152602001838152602001828152602001935050505060405180910390a17fbaba29c81c84474e76817dd6cba8ecf6417e5ff2b081cdc282be04c9429cf3db826040518080602001828103825283818151815260200191508051906020019080838360005b83811015611760578082015181840152602081019050611745565b50505050905090810190601f16801561178d5780820380516001836020036101000a031916815260200191505b509250505060405180910390a150505050565b60011515600160149054906101000a900460ff16151514611829576040517f08c379a000000000000000000000000000000000000000000000000000000000815260040180806020018281038252600a8152602001807f6e6565642073746172740000000000000000000000000000000000000000000081525060200191505060405180910390fd5b4260068190555061183b3330836123d6565b611850816002546121ee90919063ffffffff16565b6002819055507ff817f8b22dc3d12c2b0537ef5fadd318e6a373be013bf57a92d2f49c4396fc9b3382604051808373ffffffffffffffffffffffffffffffffffffffff1673ffffffffffffffffffffffffffffffffffffffff1681526020018281526020019250505060405180910390a150565b60405180807f46756e64506f6f6c5f5374617274000000000000000000000000000000000000815250600e019050604051809103902081565b60405180807f46756e64506f6f6c5f5374617274000000000000000000000000000000000000815250600e01905060405180910390206000809054906101000a900473ffffffffffffffffffffffffffffffffffffffff1673ffffffffffffffffffffffffffffffffffffffff16634c5f07493330847f290decd9548b62a8d60345a988386fc84ba6bc95484008f6362f93160ef3e56360001b6040518563ffffffff1660e01b8152600401808573ffffffffffffffffffffffffffffffffffffffff1673ffffffffffffffffffffffffffffffffffffffff1681526020018473ffffffffffffffffffffffffffffffffffffffff1673ffffffffffffffffffffffffffffffffffffffff16815260200183815260200182815260200194505050505060206040518083038186803b158015611a3857600080fd5b505afa158015611a4c573d6000803e3d6000fd5b505050506040513d6020811015611a6257600080fd5b8101908080519060200190929190505050611ac8576040517f08c379a00000000000000000000000000000000000000000000000000000000081526004018080602001828103825260248152602001806127376024913960400191505060405180910390fd5b60018060146101000a81548160ff02191690831515021790555050565b7f290decd9548b62a8d60345a988386fc84ba6bc95484008f6362f93160ef3e56360001b81565b60011515600160149054906101000a900460ff16151514611b95576040517f08c379a000000000000000000000000000000000000000000000000000000000815260040180806020018281038252600a8152602001807f6e6565642073746172740000000000000000000000000000000000000000000081525060200191505060405180910390fd5b4260068190555060008211611c12576040517f08c379a00000000000000000000000000000000000000000000000000000000081526004018080602001828103825260178152602001807f616d6f756e74206e656564206d6f7265207468616e203000000000000000000081525060200191505060405180910390fd5b6000600760009054906101000a900473ffffffffffffffffffffffffffffffffffffffff1673ffffffffffffffffffffffffffffffffffffffff1663f81cb5ae84600254600860009054906101000a900473ffffffffffffffffffffffffffffffffffffffff1673ffffffffffffffffffffffffffffffffffffffff166318160ddd6040518163ffffffff1660e01b815260040160206040518083038186803b158015611cbe57600080fd5b505afa158015611cd2573d6000803e3d6000fd5b505050506040513d6020811015611ce857600080fd5b81019080805190602001909291905050506040518463ffffffff1660e01b815260040180848152602001838152602001828152602001935050505060206040518083038186803b158015611d3b57600080fd5b505afa158015611d4f573d6000803e3d6000fd5b505050506040513d6020811015611d6557600080fd5b81019080805190602001909291905050509050611d8d816002546121a490919063ffffffff16565b60028190555060006002541015611e0c576040517f08c379a000000000000000000000000000000000000000000000000000000000815260040180806020018281038252601c8152602001807f73656c6c52657365727665206e656564206d6f7265207468616e20300000000081525060200191505060405180910390fd5b81811015611e65576040517f08c379a00000000000000000000000000000000000000000000000000000000081526004018080602001828103825260248152602001806127136024913960400191505060405180910390fd5b600860009054906101000a900473ffffffffffffffffffffffffffffffffffffffff1673ffffffffffffffffffffffffffffffffffffffff16639dc29fac33856040518363ffffffff1660e01b8152600401808373ffffffffffffffffffffffffffffffffffffffff1673ffffffffffffffffffffffffffffffffffffffff16815260200182815260200192505050602060405180830381600087803b158015611f0e57600080fd5b505af1158015611f22573d6000803e3d6000fd5b505050506040513d6020811015611f3857600080fd5b810190808051906020019092919050505050611f543382612276565b7f26787c8671412319a484ce56f5606f739f3d415e9c4930cd0603b1c1badc2042338285604051808473ffffffffffffffffffffffffffffffffffffffff1673ffffffffffffffffffffffffffffffffffffffff168152602001838152602001828152602001935050505060405180910390a1505050565b6000600160009054906101000a900473ffffffffffffffffffffffffffffffffffffffff1673ffffffffffffffffffffffffffffffffffffffff166370a08231836040518263ffffffff1660e01b8152600401808273ffffffffffffffffffffffffffffffffffffffff1673ffffffffffffffffffffffffffffffffffffffff16815260200191505060206040518083038186803b15801561206d57600080fd5b505afa158015612081573d6000803e3d6000fd5b505050506040513d602081101561209757600080fd5b81019080805190602001909291905050509050919050565b6000809054906101000a900473ffffffffffffffffffffffffffffffffffffffff1681565b6000808314156120e75760009050612154565b60008284029050828482816120f857fe5b041461214f576040517f08c379a00000000000000000000000000000000000000000000000000000000081526004018080602001828103825260218152602001806126f26021913960400191505060405180910390fd5b809150505b92915050565b600061219c83836040518060400160405280601a81526020017f536166654d6174683a206469766973696f6e206279207a65726f00000000000081525061256b565b905092915050565b60006121e683836040518060400160405280601e81526020017f536166654d6174683a207375627472616374696f6e206f766572666c6f770000815250612631565b905092915050565b60008082840190508381101561226c576040517f08c379a000000000000000000000000000000000000000000000000000000000815260040180806020018281038252601b8152602001807f536166654d6174683a206164646974696f6e206f766572666c6f77000000000081525060200191505060405180910390fd5b8091505092915050565b6000600160009054906101000a900473ffffffffffffffffffffffffffffffffffffffff1673ffffffffffffffffffffffffffffffffffffffff1663a9059cbb84846040518363ffffffff1660e01b8152600401808373ffffffffffffffffffffffffffffffffffffffff1673ffffffffffffffffffffffffffffffffffffffff16815260200182815260200192505050602060405180830381600087803b15801561232157600080fd5b505af1158015612335573d6000803e3d6000fd5b505050506040513d602081101561234b57600080fd5b81019080805190602001909291905050509050806123d1576040517f08c379a00000000000000000000000000000000000000000000000000000000081526004018080602001828103825260188152602001807f6173736574207472616e7366657246726f6d206572726f72000000000000000081525060200191505060405180910390fd5b505050565b6000600160009054906101000a900473ffffffffffffffffffffffffffffffffffffffff1673ffffffffffffffffffffffffffffffffffffffff166323b872dd8585856040518463ffffffff1660e01b8152600401808473ffffffffffffffffffffffffffffffffffffffff1673ffffffffffffffffffffffffffffffffffffffff1681526020018373ffffffffffffffffffffffffffffffffffffffff1673ffffffffffffffffffffffffffffffffffffffff1681526020018281526020019350505050602060405180830381600087803b1580156124b557600080fd5b505af11580156124c9573d6000803e3d6000fd5b505050506040513d60208110156124df57600080fd5b8101908080519060200190929190505050905080612565576040517f08c379a00000000000000000000000000000000000000000000000000000000081526004018080602001828103825260188152602001807f6173736574207472616e7366657246726f6d206572726f72000000000000000081525060200191505060405180910390fd5b50505050565b60008083118290612617576040517f08c379a00000000000000000000000000000000000000000000000000000000081526004018080602001828103825283818151815260200191508051906020019080838360005b838110156125dc5780820151818401526020810190506125c1565b50505050905090810190601f1680156126095780820380516001836020036101000a031916815260200191505b509250505060405180910390fd5b50600083858161262357fe5b049050809150509392505050565b60008383111582906126de576040517f08c379a00000000000000000000000000000000000000000000000000000000081526004018080602001828103825283818151815260200191508051906020019080838360005b838110156126a3578082015181840152602081019050612688565b50505050905090810190601f1680156126d05780820380516001836020036101000a031916815260200191505b509250505060405180910390fd5b506000838503905080915050939250505056fe536166654d6174683a206d756c7469706c69636174696f6e206f766572666c6f777769746864726177206e656564206c657373207468616e205f6d617847617356616c75654e6f207065726d697373696f6e20746f20696e766f6b652074686520436f6e7472616374666474416d6f756e74206e656564206d6f7265207468616e205f6d696e427579546f6b656ea165627a7a723058207b1d20f06b7198dcb315e1d7431c5ff938574faf1d491b6b59ce08d2f5f5afde0029",
  "source": "pragma solidity >=0.4.22 <=0.6.0;\r\n\r\nimport \"../Interface/ITradeFundPool.sol\";\r\nimport \"../apps/FutureDaoApp.sol\";\r\nimport \"../Interface/ICurve.sol\";\r\nimport \"../Interface/IERC20.sol\";\r\n\r\n/// @title eth\r\n/// @author viko\r\n/// @notice \r\n/// @dev \r\ncontract TradeFundPool is ITradeFundPool , FutureDaoApp{\r\n    /// @notice \r\n    bool public started = false;\r\n\r\n    /// @notice \r\n    uint256 public sellReserve;\r\n\r\n    /// @notice    1000\r\n    uint256 public monthlyAllocationRatio_1000;\r\n    /// @notice \r\n    uint256 public monthlyAllocationMaxValue;\r\n    /// @notice \r\n    uint256 public monthlyAllocationMinValue;\r\n\r\n    /// @notice \r\n    uint256 public preSendTimestamp;\r\n\r\n    /////////////\r\n    /// auth\r\n    /////////////\r\n    bytes32 public constant FundPool_Start = keccak256(\"FundPool_Start\");\r\n    bytes32 public constant FundPool_Clearing = keccak256(\"FundPool_Clearing\");\r\n    bytes32 public constant FundPool_ChangeRatio = keccak256(\"FundPool_ChangeRatio\");\r\n\r\n    //////////////\r\n    //// \r\n    //////////////\r\n    /// @notice \r\n    ICurve private curve;\r\n\r\n    /// @notice \r\n    IERC20 private shares;\r\n\r\n    /* events */\r\n    /// @notice \r\n    event OnBuy(\r\n        address who,\r\n        uint256 assetValue,\r\n        uint256 sharesAmount\r\n    );\r\n\r\n    /// @notice \r\n    event OnSell(\r\n        address who,\r\n        uint256 assetValue,\r\n        uint256 sharesAmount\r\n    );\r\n\r\n    /// @notice \r\n    event OnRevenue(\r\n        address who,\r\n        uint256 assetValue\r\n    );\r\n    /// @notice \r\n    /// @param who \r\n    /// @param assetValue \r\n    event OnSendToGovern(\r\n        address who,\r\n        uint256 assetValue\r\n    );\r\n\r\n    /// @notice \r\n    /// @param clearingContractAddress \r\n    /// @param ratio \r\n    /// @param ethReserveAmount \r\n    /// @param ethGovernAmount \r\n    event OnClearing(\r\n        address clearingContractAddress,\r\n        uint256 ratio,\r\n        uint256 ethReserveAmount,\r\n        uint256 ethGovernAmount\r\n    );\r\n\r\n    event OnEvent(string tag);\r\n\r\n    /// @notice \r\n    /// @param ratio \r\n    /// @param minValue \r\n    /// @param maxValue \r\n    event OnChangeMonthlyAllocation(\r\n        uint256 ratio,\r\n        uint256 minValue,\r\n        uint256 maxValue\r\n    );\r\n\r\n    /// @notice \r\n    constructor(\r\n        AppManager _appManager,\r\n        address _shares,\r\n        address _curve,\r\n        uint256 _monthlyAllocationRatio_1000,\r\n        uint256 _monthlyAllocationMaxValue,\r\n        uint256 _monthlyAllocationMinValue\r\n        )\r\n    FutureDaoApp(_appManager)\r\n    public\r\n    {\r\n        curve = ICurve(_curve);\r\n        shares = IERC20(_shares);\r\n        monthlyAllocationMinValue = _monthlyAllocationMinValue;\r\n        monthlyAllocationMaxValue = _monthlyAllocationMaxValue;\r\n        monthlyAllocationRatio_1000 = _monthlyAllocationRatio_1000;\r\n    }\r\n\r\n    /// @notice \r\n    modifier isStart(){\r\n        require(started == true,\"need start\");\r\n        preSendTimestamp = now;\r\n        _;\r\n    }\r\n\r\n    /////////////////\r\n    //// \r\n    ////////////////\r\n\r\n    /// @notice \r\n    function getCurveAddress() public view returns(address) {\r\n        return address(curve);\r\n    }\r\n\r\n    /// @notice \r\n    function getSharesAddress() public view returns(address){\r\n        return address(shares);\r\n    }\r\n\r\n    /////////////////\r\n    ////\r\n    ////////////////\r\n\r\n    /// @notice \r\n    function start() public auth(FundPool_Start) {\r\n        started = true;\r\n    }\r\n\r\n    function changeMonthlyAllocation(uint256 _ratio,uint256 _minValue,uint256 _maxValue) public auth(FundPool_ChangeRatio) {\r\n        //50%\r\n        uint256 _d = monthlyAllocationRatio_1000 > _ratio ? monthlyAllocationRatio_1000 - _ratio : _ratio - monthlyAllocationRatio_1000;\r\n        require(_d.mul(1000).div(monthlyAllocationRatio_1000) < 500, \"Over the limit\");\r\n        monthlyAllocationRatio_1000 = _ratio;\r\n        monthlyAllocationMaxValue = _maxValue;\r\n        monthlyAllocationMinValue = _minValue;\r\n        emit OnChangeMonthlyAllocation(_ratio,_minValue,_maxValue);\r\n    }\r\n\r\n    /// @notice \r\n    function buy(uint256 _assetValue,uint256 _minBuyToken,string memory tag) public payable isStart() {\r\n        /// \r\n        transferF(msg.sender,address(this),_assetValue);\r\n        uint256 sharesAmount = curve.getBuyAmount(_assetValue,shares.totalSupply());\r\n        shares.mint(msg.sender,sharesAmount);\r\n        require(sharesAmount >= _minBuyToken,\"fdtAmount need more than _minBuyToken\");\r\n        //\r\n        sellReserve = sellReserve.add(curve.getVauleToReserve(_assetValue));\r\n        emit OnBuy(msg.sender,_assetValue,sharesAmount);\r\n        emit OnEvent(tag);\r\n    }\r\n\r\n    /// @notice \r\n    /// @dev \r\n    /// @param _amount \r\n    function sell(uint256 _amount,uint256 _minGasValue) public isStart() {\r\n        require(_amount > 0,\"amount need more than 0\");\r\n        uint256 withdraw = curve.getSellValue(_amount,sellReserve,shares.totalSupply());\r\n        sellReserve = sellReserve.sub(withdraw);\r\n        require(sellReserve >= 0,\"sellReserve need more than 0\");\r\n        require(withdraw >= _minGasValue,\"withdraw need less than _maxGasValue\");\r\n        shares.burn(msg.sender,_amount);\r\n        transferM(msg.sender, withdraw);\r\n        emit OnSell(msg.sender,withdraw,_amount);\r\n    }\r\n\r\n    /// @notice \r\n    /// @dev reserve fdt\r\n    function revenue(uint256 _assetValue) public payable isStart(){\r\n        /// \r\n        transferF(msg.sender,address(this),_assetValue);\r\n        //\r\n        sellReserve = sellReserve.add(_assetValue);\r\n        emit OnRevenue(msg.sender,_assetValue);\r\n    }\r\n\r\n    /// @notice \r\n    function sendToGovern() public isStart(){\r\n        /// \r\n        uint256 periods = now.sub(preSendTimestamp).div(30 days);\r\n        /// \r\n        require(periods > 0,\"It's not time yet\");\r\n        uint256 sendValue = 0;\r\n        uint256 balanceOfCanSend = balance(address(this)).sub(sellReserve);\r\n        for(uint256 i = 0;i<periods;i++){\r\n            uint256 _v = balanceOfCanSend.mul(monthlyAllocationRatio_1000).div(1000);\r\n            _v = _v > monthlyAllocationMaxValue ? monthlyAllocationMaxValue : _v;\r\n            _v = _v < monthlyAllocationMinValue ? monthlyAllocationMinValue : _v;\r\n            sendValue += _v;\r\n            balanceOfCanSend -= _v;\r\n        }\r\n        /// \r\n        transferM(appManager.getGovernShareManager(),sendValue);\r\n        preSendTimestamp = preSendTimestamp.add(periods.mul(30 days));\r\n        emit OnSendToGovern(msg.sender,sendValue);\r\n    }\r\n\r\n    /// @notice   ratio  10 ** 3\r\n    function clearing(address payable _clearingContractAddress,uint256 _ratio_1000)\r\n    public isStart() auth(FundPool_Clearing){\r\n        require(_ratio_1000<=10**3,\"ratio is wrong\");\r\n        uint256 _value_reserve = (sellReserve).mul(_ratio_1000).div(10**3);\r\n        uint256 _value_govern = (address(this)).balance.sub(sellReserve).mul(_ratio_1000).div(10**3);\r\n        sellReserve = sellReserve.sub(_value_reserve);\r\n        uint256 v = _value_reserve.add(_value_govern);\r\n        transferM(_clearingContractAddress, v);\r\n        emit OnClearing(_clearingContractAddress,_ratio_1000,_value_reserve,_value_govern);\r\n    }\r\n\r\n    function() external payable {\r\n    }\r\n}",
  "sourcePath": "D:/_______work/FD_Contract_ETH/fd/contracts/Financing/TradeFundPool.sol",
  "compiler": {
    "name": "solc",
    "version": "0.5.8+commit.23d335f2.Emscripten.clang"
  },
  "schemaVersion": "3.0.11",
  "updatedAt": "2020-04-10T08:15:38.101Z",
  "devdoc": {
    "details": "",
    "methods": {
      "revenue(uint256)": {
        "details": "reserve fdt"
      },
      "sell(uint256,uint256)": {
        "params": {
          "_amount": ""
        }
      }
    }
  },
  "userdoc": {
    "methods": {
      "buy(uint256,uint256,string)": {
        "notice": ""
      },
      "clearing(address,uint256)": {
        "notice": "  ratio  10 ** 3"
      },
      "constructor": "",
      "getCurveAddress()": {
        "notice": ""
      },
      "getSharesAddress()": {
        "notice": ""
      },
      "sendToGovern()": {
        "notice": ""
      },
      "start()": {
        "notice": ""
      }
    }
  }
}