{
  "contractName": "Vote_Clearing",
  "abi": [
    {
      "constant": true,
      "inputs": [],
      "name": "assetAddress",
      "outputs": [
        {
          "name": "",
          "type": "address"
        }
      ],
      "payable": false,
      "stateMutability": "view",
      "type": "function"
    },
    {
      "constant": true,
      "inputs": [],
      "name": "approveRatio",
      "outputs": [
        {
          "name": "",
          "type": "uint256"
        }
      ],
      "payable": false,
      "stateMutability": "view",
      "type": "function"
    },
    {
      "constant": true,
      "inputs": [],
      "name": "voteRatio",
      "outputs": [
        {
          "name": "",
          "type": "uint256"
        }
      ],
      "payable": false,
      "stateMutability": "view",
      "type": "function"
    },
    {
      "constant": true,
      "inputs": [],
      "name": "tradeAddress",
      "outputs": [
        {
          "name": "",
          "type": "address"
        }
      ],
      "payable": false,
      "stateMutability": "view",
      "type": "function"
    },
    {
      "constant": true,
      "inputs": [],
      "name": "getAppManagerAddress",
      "outputs": [
        {
          "name": "",
          "type": "address"
        }
      ],
      "payable": false,
      "stateMutability": "view",
      "type": "function"
    },
    {
      "constant": true,
      "inputs": [],
      "name": "minApproveRatio_1000",
      "outputs": [
        {
          "name": "",
          "type": "uint256"
        }
      ],
      "payable": false,
      "stateMutability": "view",
      "type": "function"
    },
    {
      "constant": true,
      "inputs": [
        {
          "name": "_addr",
          "type": "address"
        }
      ],
      "name": "getBalanceOf",
      "outputs": [
        {
          "name": "",
          "type": "uint256"
        }
      ],
      "payable": false,
      "stateMutability": "view",
      "type": "function"
    },
    {
      "constant": true,
      "inputs": [],
      "name": "cur_clearingProposal",
      "outputs": [
        {
          "name": "index",
          "type": "uint256"
        },
        {
          "name": "startTime",
          "type": "uint256"
        },
        {
          "name": "proposer",
          "type": "address"
        },
        {
          "name": "totalSharesAmount",
          "type": "uint256"
        },
        {
          "name": "address_clearingFundPool",
          "type": "address"
        },
        {
          "name": "pass",
          "type": "bool"
        },
        {
          "name": "process",
          "type": "bool"
        }
      ],
      "payable": false,
      "stateMutability": "view",
      "type": "function"
    },
    {
      "constant": true,
      "inputs": [],
      "name": "proposalFee",
      "outputs": [
        {
          "name": "",
          "type": "uint256"
        }
      ],
      "payable": false,
      "stateMutability": "view",
      "type": "function"
    },
    {
      "constant": true,
      "inputs": [],
      "name": "getTotalSupply",
      "outputs": [
        {
          "name": "",
          "type": "uint256"
        }
      ],
      "payable": false,
      "stateMutability": "view",
      "type": "function"
    },
    {
      "constant": true,
      "inputs": [],
      "name": "EMPTY_PARAM_HASH",
      "outputs": [
        {
          "name": "",
          "type": "bytes32"
        }
      ],
      "payable": false,
      "stateMutability": "view",
      "type": "function"
    },
    {
      "constant": true,
      "inputs": [],
      "name": "deposit",
      "outputs": [
        {
          "name": "",
          "type": "uint256"
        }
      ],
      "payable": false,
      "stateMutability": "view",
      "type": "function"
    },
    {
      "constant": true,
      "inputs": [
        {
          "name": "_addr",
          "type": "address"
        }
      ],
      "name": "balance",
      "outputs": [
        {
          "name": "",
          "type": "uint256"
        }
      ],
      "payable": false,
      "stateMutability": "view",
      "type": "function"
    },
    {
      "constant": true,
      "inputs": [],
      "name": "appManager",
      "outputs": [
        {
          "name": "",
          "type": "address"
        }
      ],
      "payable": false,
      "stateMutability": "view",
      "type": "function"
    },
    {
      "constant": true,
      "inputs": [],
      "name": "sharesAddress",
      "outputs": [
        {
          "name": "",
          "type": "address"
        }
      ],
      "payable": false,
      "stateMutability": "view",
      "type": "function"
    },
    {
      "inputs": [
        {
          "name": "_appManager",
          "type": "address"
        },
        {
          "name": "_sharesAddress",
          "type": "address"
        },
        {
          "name": "_tradeAddress",
          "type": "address"
        },
        {
          "name": "_minApproveRatio_1000",
          "type": "uint256"
        },
        {
          "name": "_votingStartTime",
          "type": "uint256"
        },
        {
          "name": "_publicityStartTime",
          "type": "uint256"
        }
      ],
      "payable": false,
      "stateMutability": "nonpayable",
      "type": "constructor"
    },
    {
      "anonymous": false,
      "inputs": [
        {
          "indexed": false,
          "name": "index",
          "type": "uint256"
        },
        {
          "indexed": false,
          "name": "proposaler",
          "type": "address"
        },
        {
          "indexed": false,
          "name": "address_clearingFundPool",
          "type": "address"
        },
        {
          "indexed": false,
          "name": "startTime",
          "type": "uint256"
        }
      ],
      "name": "OnApplyClearingProposal",
      "type": "event"
    },
    {
      "anonymous": false,
      "inputs": [
        {
          "indexed": false,
          "name": "who",
          "type": "address"
        },
        {
          "indexed": false,
          "name": "index",
          "type": "uint256"
        },
        {
          "indexed": false,
          "name": "sharesAmount",
          "type": "uint256"
        }
      ],
      "name": "OnVoteClearingProposal",
      "type": "event"
    },
    {
      "anonymous": false,
      "inputs": [
        {
          "indexed": false,
          "name": "index",
          "type": "uint256"
        },
        {
          "indexed": false,
          "name": "pass",
          "type": "bool"
        }
      ],
      "name": "OnProcessClearingProposal",
      "type": "event"
    },
    {
      "constant": false,
      "inputs": [],
      "name": "applyClearingProposal",
      "outputs": [],
      "payable": true,
      "stateMutability": "payable",
      "type": "function"
    },
    {
      "constant": false,
      "inputs": [
        {
          "name": "_amount",
          "type": "uint256"
        }
      ],
      "name": "voteClearingProposal",
      "outputs": [],
      "payable": false,
      "stateMutability": "nonpayable",
      "type": "function"
    },
    {
      "constant": false,
      "inputs": [],
      "name": "processClearingProposal",
      "outputs": [],
      "payable": false,
      "stateMutability": "nonpayable",
      "type": "function"
    }
  ],
  "bytecode": "0x60806040526000600660006101000a81548173ffffffffffffffffffffffffffffffffffffffff021916908373ffffffffffffffffffffffffffffffffffffffff1602179055506000600755600060085534801561005c57600080fd5b5060405160c0806130c3833981018060405260c081101561007c57600080fd5b810190808051906020019092919080519060200190929190805190602001909291908051906020019092919080519060200190929190805190602001909291905050508585838383806000806101000a81548173ffffffffffffffffffffffffffffffffffffffff021916908373ffffffffffffffffffffffffffffffffffffffff1602179055505082600660006101000a81548173ffffffffffffffffffffffffffffffffffffffff021916908373ffffffffffffffffffffffffffffffffffffffff1602179055508160028190555080600381905550505050508260118190555083601060006101000a81548173ffffffffffffffffffffffffffffffffffffffff021916908373ffffffffffffffffffffffffffffffffffffffff160217905550505050505050612f0e806101b56000396000f3fe6080604052600436106101095760003560e01c80639b96eece11610095578063c513f66e11610064578063c513f66e14610460578063d0e30db01461048b578063e3d670d7146104b6578063ebe86c131461051b578063f33670aa1461057257610109565b80639b96eece146102f0578063aa79f71c14610355578063c27cabb51461040a578063c4e41b221461043557610109565b806343f7b98a116100dc57806343f7b98a146101c1578063452f783c146101ec57806349daca7a146102175780634c3300771461026e578063531b658f146102c557610109565b8063094413f81461010e5780631ba46cfd146101185780631d63a0dc1461016f57806341f0375514610186575b600080fd5b6101166105c9565b005b34801561012457600080fd5b5061012d610a8d565b604051808273ffffffffffffffffffffffffffffffffffffffff1673ffffffffffffffffffffffffffffffffffffffff16815260200191505060405180910390f35b34801561017b57600080fd5b50610184610ab3565b005b34801561019257600080fd5b506101bf600480360360208110156101a957600080fd5b8101908080359060200190929190505050611056565b005b3480156101cd57600080fd5b506101d66114a9565b6040518082815260200191505060405180910390f35b3480156101f857600080fd5b506102016114af565b6040518082815260200191505060405180910390f35b34801561022357600080fd5b5061022c6114b5565b604051808273ffffffffffffffffffffffffffffffffffffffff1673ffffffffffffffffffffffffffffffffffffffff16815260200191505060405180910390f35b34801561027a57600080fd5b506102836114db565b604051808273ffffffffffffffffffffffffffffffffffffffff1673ffffffffffffffffffffffffffffffffffffffff16815260200191505060405180910390f35b3480156102d157600080fd5b506102da611504565b6040518082815260200191505060405180910390f35b3480156102fc57600080fd5b5061033f6004803603602081101561031357600080fd5b81019080803573ffffffffffffffffffffffffffffffffffffffff16906020019092919050505061150a565b6040518082815260200191505060405180910390f35b34801561036157600080fd5b5061036a6115ed565b604051808881526020018781526020018673ffffffffffffffffffffffffffffffffffffffff1673ffffffffffffffffffffffffffffffffffffffff1681526020018581526020018473ffffffffffffffffffffffffffffffffffffffff1673ffffffffffffffffffffffffffffffffffffffff168152602001831515151581526020018215151515815260200197505050505050505060405180910390f35b34801561041657600080fd5b5061041f611677565b6040518082815260200191505060405180910390f35b34801561044157600080fd5b5061044a61167d565b6040518082815260200191505060405180910390f35b34801561046c57600080fd5b50610475611727565b6040518082815260200191505060405180910390f35b34801561049757600080fd5b506104a061174e565b6040518082815260200191505060405180910390f35b3480156104c257600080fd5b50610505600480360360208110156104d957600080fd5b81019080803573ffffffffffffffffffffffffffffffffffffffff169060200190929190505050611754565b6040518082815260200191505060405180910390f35b34801561052757600080fd5b50610530611837565b604051808273ffffffffffffffffffffffffffffffffffffffff1673ffffffffffffffffffffffffffffffffffffffff16815260200191505060405180910390f35b34801561057e57600080fd5b5061058761185c565b604051808273ffffffffffffffffffffffffffffffffffffffff1673ffffffffffffffffffffffffffffffffffffffff16815260200191505060405180910390f35b60006105d43361150a565b11610647576040517f08c379a000000000000000000000000000000000000000000000000000000000815260040180806020018281038252600f8152602001807f6e6565642068617320736861726573000000000000000000000000000000000081525060200191505060405180910390fd5b600073ffffffffffffffffffffffffffffffffffffffff16600960030160009054906101000a900473ffffffffffffffffffffffffffffffffffffffff1673ffffffffffffffffffffffffffffffffffffffff161461070e576040517f08c379a000000000000000000000000000000000000000000000000000000000815260040180806020018281038252601c8152602001807f4f6e6c79206f6e652070726f706f73616c20697320616c6c6f7765640000000081525060200191505060405180910390fd5b61071f333060045460055401611882565b6000306000809054906101000a900473ffffffffffffffffffffffffffffffffffffffff1673ffffffffffffffffffffffffffffffffffffffff1663670ab5e96040518163ffffffff1660e01b815260040160206040518083038186803b15801561078957600080fd5b505afa15801561079d573d6000803e3d6000fd5b505050506040513d60208110156107b357600080fd5b81019080805190602001909291905050506040516107d090611bad565b808373ffffffffffffffffffffffffffffffffffffffff1673ffffffffffffffffffffffffffffffffffffffff1681526020018273ffffffffffffffffffffffffffffffffffffffff1673ffffffffffffffffffffffffffffffffffffffff16815260200192505050604051809103906000f080158015610855573d6000803e3d6000fd5b5090506040518060e00160405280600f8054905081526020014281526020013373ffffffffffffffffffffffffffffffffffffffff168152602001600081526020018273ffffffffffffffffffffffffffffffffffffffff168152602001600015158152602001600015158152506009600082015181600001556020820151816002015560408201518160030160006101000a81548173ffffffffffffffffffffffffffffffffffffffff021916908373ffffffffffffffffffffffffffffffffffffffff1602179055506060820151816004015560808201518160050160006101000a81548173ffffffffffffffffffffffffffffffffffffffff021916908373ffffffffffffffffffffffffffffffffffffffff16021790555060a08201518160050160146101000a81548160ff02191690831515021790555060c08201518160050160156101000a81548160ff0219169083151502179055509050507f6cc1833e88837d24b28cfca01c8c5068f64f183607782a78a4693e506e10449c600960000154600960030160009054906101000a900473ffffffffffffffffffffffffffffffffffffffff1683600960020154604051808581526020018473ffffffffffffffffffffffffffffffffffffffff1673ffffffffffffffffffffffffffffffffffffffff1681526020018373ffffffffffffffffffffffffffffffffffffffff1673ffffffffffffffffffffffffffffffffffffffff16815260200182815260200194505050505060405180910390a150565b600160009054906101000a900473ffffffffffffffffffffffffffffffffffffffff1681565b600254600960020154014211610b31576040517f08c379a000000000000000000000000000000000000000000000000000000000815260040180806020018281038252601b8152602001807f697427732077697468696e20746865206578706972792064617465000000000081525060200191505060405180910390fd5b60001515600960050160159054906101000a900460ff16151514610ba0576040517f08c379a0000000000000000000000000000000000000000000000000000000008152600401808060200182810382526027815260200180612e9b6027913960400191505060405180910390fd5b6000610bd5610bad61167d565b610bc76103e8600960040154611a1790919063ffffffff16565b611a9d90919063ffffffff16565b90506011548110610ce9576001600960050160146101000a81548160ff021916908315150217905550601060009054906101000a900473ffffffffffffffffffffffffffffffffffffffff1673ffffffffffffffffffffffffffffffffffffffff16634f25e2a3600960050160009054906101000a900473ffffffffffffffffffffffffffffffffffffffff16836040518363ffffffff1660e01b8152600401808373ffffffffffffffffffffffffffffffffffffffff1673ffffffffffffffffffffffffffffffffffffffff16815260200182815260200192505050600060405180830381600087803b158015610ccc57600080fd5b505af1158015610ce0573d6000803e3d6000fd5b50505050610d08565b6000600960050160146101000a81548160ff0219169083151502179055505b6001600960050160156101000a81548160ff021916908315150217905550600f60099080600181540180825580915050906001820390600052602060002090600602016000909192909190915060008201548160000155600282015481600201556003820160009054906101000a900473ffffffffffffffffffffffffffffffffffffffff168160030160006101000a81548173ffffffffffffffffffffffffffffffffffffffff021916908373ffffffffffffffffffffffffffffffffffffffff160217905550600482015481600401556005820160009054906101000a900473ffffffffffffffffffffffffffffffffffffffff168160050160006101000a81548173ffffffffffffffffffffffffffffffffffffffff021916908373ffffffffffffffffffffffffffffffffffffffff1602179055506005820160149054906101000a900460ff168160050160146101000a81548160ff0219169083151502179055506005820160159054906101000a900460ff168160050160156101000a81548160ff0219169083151502179055505050507f088f923150a187251554ebec6f43f5fadc32406a6e85b04c648a7b7a078b8f09600960000154600960050160149054906101000a900460ff1660405180838152602001821515151581526020019250505060405180910390a16040518060e001604052806000815260200160008152602001600073ffffffffffffffffffffffffffffffffffffffff16815260200160008152602001600073ffffffffffffffffffffffffffffffffffffffff168152602001600015158152602001600015158152506009600082015181600001556020820151816002015560408201518160030160006101000a81548173ffffffffffffffffffffffffffffffffffffffff021916908373ffffffffffffffffffffffffffffffffffffffff1602179055506060820151816004015560808201518160050160006101000a81548173ffffffffffffffffffffffffffffffffffffffff021916908373ffffffffffffffffffffffffffffffffffffffff16021790555060a08201518160050160146101000a81548160ff02191690831515021790555060c08201518160050160156101000a81548160ff02191690831515021790555090505050565b60006110613361150a565b116110d4576040517f08c379a000000000000000000000000000000000000000000000000000000000815260040180806020018281038252600f8152602001807f6e6565642068617320736861726573000000000000000000000000000000000081525060200191505060405180910390fd5b60025460096002015401421115611153576040517f08c379a00000000000000000000000000000000000000000000000000000000081526004018080602001828103825260088152602001807f74696d65206f757400000000000000000000000000000000000000000000000081525060200191505060405180910390fd5b6000600660009054906101000a900473ffffffffffffffffffffffffffffffffffffffff1673ffffffffffffffffffffffffffffffffffffffff166323b872dd3330856040518463ffffffff1660e01b8152600401808473ffffffffffffffffffffffffffffffffffffffff1673ffffffffffffffffffffffffffffffffffffffff1681526020018373ffffffffffffffffffffffffffffffffffffffff1673ffffffffffffffffffffffffffffffffffffffff1681526020018281526020019350505050602060405180830381600087803b15801561123257600080fd5b505af1158015611246573d6000803e3d6000fd5b505050506040513d602081101561125c57600080fd5b81019080805190602001909291905050509050806112e2576040517f08c379a00000000000000000000000000000000000000000000000000000000081526004018080602001828103825260128152602001807f7472616e7366657246726f6d206572726f72000000000000000000000000000081525060200191505060405180910390fd5b81600960010160003373ffffffffffffffffffffffffffffffffffffffff1673ffffffffffffffffffffffffffffffffffffffff1681526020019081526020016000206000828254019250508190555081600960040160008282540192505081905550600960050160009054906101000a900473ffffffffffffffffffffffffffffffffffffffff1673ffffffffffffffffffffffffffffffffffffffff16636d705ebb33846040518363ffffffff1660e01b8152600401808373ffffffffffffffffffffffffffffffffffffffff1673ffffffffffffffffffffffffffffffffffffffff16815260200182815260200192505050602060405180830381600087803b1580156113f157600080fd5b505af1158015611405573d6000803e3d6000fd5b505050506040513d602081101561141b57600080fd5b8101908080519060200190929190505050507fee256b1983e1701b3852bdc7ee6f3dcdd6d7556aadd194abb9ef9d0002dca29f3360096000015484604051808473ffffffffffffffffffffffffffffffffffffffff1673ffffffffffffffffffffffffffffffffffffffff168152602001838152602001828152602001935050505060405180910390a15050565b60085481565b60075481565b601060009054906101000a900473ffffffffffffffffffffffffffffffffffffffff1681565b60008060009054906101000a900473ffffffffffffffffffffffffffffffffffffffff16905090565b60115481565b6000600660009054906101000a900473ffffffffffffffffffffffffffffffffffffffff1673ffffffffffffffffffffffffffffffffffffffff166370a08231836040518263ffffffff1660e01b8152600401808273ffffffffffffffffffffffffffffffffffffffff1673ffffffffffffffffffffffffffffffffffffffff16815260200191505060206040518083038186803b1580156115ab57600080fd5b505afa1580156115bf573d6000803e3d6000fd5b505050506040513d60208110156115d557600080fd5b81019080805190602001909291905050509050919050565b60098060000154908060020154908060030160009054906101000a900473ffffffffffffffffffffffffffffffffffffffff16908060040154908060050160009054906101000a900473ffffffffffffffffffffffffffffffffffffffff16908060050160149054906101000a900460ff16908060050160159054906101000a900460ff16905087565b60055481565b6000600660009054906101000a900473ffffffffffffffffffffffffffffffffffffffff1673ffffffffffffffffffffffffffffffffffffffff166318160ddd6040518163ffffffff1660e01b815260040160206040518083038186803b1580156116e757600080fd5b505afa1580156116fb573d6000803e3d6000fd5b505050506040513d602081101561171157600080fd5b8101908080519060200190929190505050905090565b7f290decd9548b62a8d60345a988386fc84ba6bc95484008f6362f93160ef3e56360001b81565b60045481565b6000600160009054906101000a900473ffffffffffffffffffffffffffffffffffffffff1673ffffffffffffffffffffffffffffffffffffffff166370a08231836040518263ffffffff1660e01b8152600401808273ffffffffffffffffffffffffffffffffffffffff1673ffffffffffffffffffffffffffffffffffffffff16815260200191505060206040518083038186803b1580156117f557600080fd5b505afa158015611809573d6000803e3d6000fd5b505050506040513d602081101561181f57600080fd5b81019080805190602001909291905050509050919050565b6000809054906101000a900473ffffffffffffffffffffffffffffffffffffffff1681565b600660009054906101000a900473ffffffffffffffffffffffffffffffffffffffff1681565b6000600160009054906101000a900473ffffffffffffffffffffffffffffffffffffffff1673ffffffffffffffffffffffffffffffffffffffff166323b872dd8585856040518463ffffffff1660e01b8152600401808473ffffffffffffffffffffffffffffffffffffffff1673ffffffffffffffffffffffffffffffffffffffff1681526020018373ffffffffffffffffffffffffffffffffffffffff1673ffffffffffffffffffffffffffffffffffffffff1681526020018281526020019350505050602060405180830381600087803b15801561196157600080fd5b505af1158015611975573d6000803e3d6000fd5b505050506040513d602081101561198b57600080fd5b8101908080519060200190929190505050905080611a11576040517f08c379a00000000000000000000000000000000000000000000000000000000081526004018080602001828103825260188152602001807f6173736574207472616e7366657246726f6d206572726f72000000000000000081525060200191505060405180910390fd5b50505050565b600080831415611a2a5760009050611a97565b6000828402905082848281611a3b57fe5b0414611a92576040517f08c379a0000000000000000000000000000000000000000000000000000000008152600401808060200182810382526021815260200180612ec26021913960400191505060405180910390fd5b809150505b92915050565b6000611adf83836040518060400160405280601a81526020017f536166654d6174683a206469766973696f6e206279207a65726f000000000000815250611ae7565b905092915050565b60008083118290611b93576040517f08c379a00000000000000000000000000000000000000000000000000000000081526004018080602001828103825283818151815260200191508051906020019080838360005b83811015611b58578082015181840152602081019050611b3d565b50505050905090810190601f168015611b855780820380516001836020036101000a031916815260200191505b509250505060405180910390fd5b506000838581611b9f57fe5b049050809150509392505050565b6112e080611bbb8339019056fe60806040526000600360006101000a81548160ff0219169083600281111561002357fe5b021790555034801561003457600080fd5b506040516040806112e08339810180604052604081101561005457600080fd5b810190808051906020019092919080519060200190929190505050336000806101000a81548173ffffffffffffffffffffffffffffffffffffffff021916908373ffffffffffffffffffffffffffffffffffffffff16021790555060018060008060009054906101000a900473ffffffffffffffffffffffffffffffffffffffff1673ffffffffffffffffffffffffffffffffffffffff1673ffffffffffffffffffffffffffffffffffffffff16815260200190815260200160002060006101000a81548160ff02191690831515021790555081600660006101000a81548173ffffffffffffffffffffffffffffffffffffffff021916908373ffffffffffffffffffffffffffffffffffffffff16021790555080600560006101000a81548173ffffffffffffffffffffffffffffffffffffffff021916908373ffffffffffffffffffffffffffffffffffffffff1602179055505050611126806101ba6000396000f3fe6080604052600436106100905760003560e01c80636d705ebb116100595780636d705ebb146101ef5780638da5cb5b14610262578063a6f9dae1146102b9578063e7cd4a041461030a578063f79dc1281461035b57610090565b80628dca6a146100925780631ba46cfd146100cb5780632042e5c2146101225780633a98ef39146101735780633d0a40611461019e575b005b34801561009e57600080fd5b506100a76103cb565b604051808260028111156100b757fe5b60ff16815260200191505060405180910390f35b3480156100d757600080fd5b506100e06103de565b604051808273ffffffffffffffffffffffffffffffffffffffff1673ffffffffffffffffffffffffffffffffffffffff16815260200191505060405180910390f35b34801561012e57600080fd5b506101716004803603602081101561014557600080fd5b81019080803573ffffffffffffffffffffffffffffffffffffffff169060200190929190505050610404565b005b34801561017f57600080fd5b50610188610523565b6040518082815260200191505060405180910390f35b3480156101aa57600080fd5b506101ed600480360360208110156101c157600080fd5b81019080803573ffffffffffffffffffffffffffffffffffffffff169060200190929190505050610529565b005b3480156101fb57600080fd5b506102486004803603604081101561021257600080fd5b81019080803573ffffffffffffffffffffffffffffffffffffffff169060200190929190803590602001909291905050506109eb565b604051808215151515815260200191505060405180910390f35b34801561026e57600080fd5b50610277610b1b565b604051808273ffffffffffffffffffffffffffffffffffffffff1673ffffffffffffffffffffffffffffffffffffffff16815260200191505060405180910390f35b3480156102c557600080fd5b50610308600480360360208110156102dc57600080fd5b81019080803573ffffffffffffffffffffffffffffffffffffffff169060200190929190505050610b41565b005b34801561031657600080fd5b506103596004803603602081101561032d57600080fd5b81019080803573ffffffffffffffffffffffffffffffffffffffff169060200190929190505050610cea565b005b34801561036757600080fd5b506103aa6004803603602081101561037e57600080fd5b81019080803573ffffffffffffffffffffffffffffffffffffffff169060200190929190505050610e08565b60405180838152602001821515151581526020019250505060405180910390f35b600360009054906101000a900460ff1681565b600560009054906101000a900473ffffffffffffffffffffffffffffffffffffffff1681565b336000809054906101000a900473ffffffffffffffffffffffffffffffffffffffff1673ffffffffffffffffffffffffffffffffffffffff168173ffffffffffffffffffffffffffffffffffffffff16146104c7576040517f08c379a00000000000000000000000000000000000000000000000000000000081526004018080602001828103825260118152602001807f5065726d697373696f6e2064656e69656400000000000000000000000000000081525060200191505060405180910390fd5b6000600160008473ffffffffffffffffffffffffffffffffffffffff1673ffffffffffffffffffffffffffffffffffffffff16815260200190815260200160002060006101000a81548160ff0219169083151502179055505050565b60045481565b6001600281111561053657fe5b600360009054906101000a900460ff16600281111561055157fe5b146105c4576040517f08c379a00000000000000000000000000000000000000000000000000000000081526004018080602001828103825260178152602001807f636c656172696e67526573756c742069732077726f6e6700000000000000000081525060200191505060405180910390fd5b60001515600260008373ffffffffffffffffffffffffffffffffffffffff1673ffffffffffffffffffffffffffffffffffffffff16815260200190815260200160002060010160009054906101000a900460ff1615151461068d576040517f08c379a00000000000000000000000000000000000000000000000000000000081526004018080602001828103825260148152602001807f4e6f2072657065617420636f6c6c656374696f6e00000000000000000000000081525060200191505060405180910390fd5b60006107d16004546107c3600560009054906101000a900473ffffffffffffffffffffffffffffffffffffffff1673ffffffffffffffffffffffffffffffffffffffff166370a08231306040518263ffffffff1660e01b8152600401808273ffffffffffffffffffffffffffffffffffffffff1673ffffffffffffffffffffffffffffffffffffffff16815260200191505060206040518083038186803b15801561073757600080fd5b505afa15801561074b573d6000803e3d6000fd5b505050506040513d602081101561076157600080fd5b8101908080519060200190929190505050600260008773ffffffffffffffffffffffffffffffffffffffff1673ffffffffffffffffffffffffffffffffffffffff16815260200190815260200160002060000154610e3990919063ffffffff16565b610ebf90919063ffffffff16565b90506000600560009054906101000a900473ffffffffffffffffffffffffffffffffffffffff1673ffffffffffffffffffffffffffffffffffffffff1663a9059cbb84846040518363ffffffff1660e01b8152600401808373ffffffffffffffffffffffffffffffffffffffff1673ffffffffffffffffffffffffffffffffffffffff16815260200182815260200192505050602060405180830381600087803b15801561087e57600080fd5b505af1158015610892573d6000803e3d6000fd5b505050506040513d60208110156108a857600080fd5b810190808051906020019092919050505090508061092e576040517f08c379a00000000000000000000000000000000000000000000000000000000081526004018080602001828103825260058152602001807f6572726f7200000000000000000000000000000000000000000000000000000081525060200191505060405180910390fd5b6001600260008573ffffffffffffffffffffffffffffffffffffffff1673ffffffffffffffffffffffffffffffffffffffff16815260200190815260200160002060010160006101000a81548160ff0219169083151502179055506109e0600260008573ffffffffffffffffffffffffffffffffffffffff1673ffffffffffffffffffffffffffffffffffffffff16815260200190815260200160002060000154600454610f0990919063ffffffff16565b600481905550505050565b6000336000809054906101000a900473ffffffffffffffffffffffffffffffffffffffff1673ffffffffffffffffffffffffffffffffffffffff168173ffffffffffffffffffffffffffffffffffffffff1614610ab0576040517f08c379a00000000000000000000000000000000000000000000000000000000081526004018080602001828103825260118152602001807f5065726d697373696f6e2064656e69656400000000000000000000000000000081525060200191505060405180910390fd5b82600260008673ffffffffffffffffffffffffffffffffffffffff1673ffffffffffffffffffffffffffffffffffffffff1681526020019081526020016000206000016000828254019250508190555082600460008282540192505081905550600191505092915050565b600660009054906101000a900473ffffffffffffffffffffffffffffffffffffffff1681565b336000809054906101000a900473ffffffffffffffffffffffffffffffffffffffff1673ffffffffffffffffffffffffffffffffffffffff168173ffffffffffffffffffffffffffffffffffffffff1614610c04576040517f08c379a00000000000000000000000000000000000000000000000000000000081526004018080602001828103825260118152602001807f5065726d697373696f6e2064656e69656400000000000000000000000000000081525060200191505060405180910390fd5b8173ffffffffffffffffffffffffffffffffffffffff163373ffffffffffffffffffffffffffffffffffffffff161415610ca6576040517f08c379a00000000000000000000000000000000000000000000000000000000081526004018080602001828103825260128152602001807f4e6565642061206e65772061646472657373000000000000000000000000000081525060200191505060405180910390fd5b816000806101000a81548173ffffffffffffffffffffffffffffffffffffffff021916908373ffffffffffffffffffffffffffffffffffffffff1602179055505050565b336000809054906101000a900473ffffffffffffffffffffffffffffffffffffffff1673ffffffffffffffffffffffffffffffffffffffff168173ffffffffffffffffffffffffffffffffffffffff1614610dad576040517f08c379a00000000000000000000000000000000000000000000000000000000081526004018080602001828103825260118152602001807f5065726d697373696f6e2064656e69656400000000000000000000000000000081525060200191505060405180910390fd5b60018060008473ffffffffffffffffffffffffffffffffffffffff1673ffffffffffffffffffffffffffffffffffffffff16815260200190815260200160002060006101000a81548160ff0219169083151502179055505050565b60026020528060005260406000206000915090508060000154908060010160009054906101000a900460ff16905082565b600080831415610e4c5760009050610eb9565b6000828402905082848281610e5d57fe5b0414610eb4576040517f08c379a00000000000000000000000000000000000000000000000000000000081526004018080602001828103825260218152602001806110da6021913960400191505060405180910390fd5b809150505b92915050565b6000610f0183836040518060400160405280601a81526020017f536166654d6174683a206469766973696f6e206279207a65726f000000000000815250610f53565b905092915050565b6000610f4b83836040518060400160405280601e81526020017f536166654d6174683a207375627472616374696f6e206f766572666c6f770000815250611019565b905092915050565b60008083118290610fff576040517f08c379a00000000000000000000000000000000000000000000000000000000081526004018080602001828103825283818151815260200191508051906020019080838360005b83811015610fc4578082015181840152602081019050610fa9565b50505050905090810190601f168015610ff15780820380516001836020036101000a031916815260200191505b509250505060405180910390fd5b50600083858161100b57fe5b049050809150509392505050565b60008383111582906110c6576040517f08c379a00000000000000000000000000000000000000000000000000000000081526004018080602001828103825283818151815260200191508051906020019080838360005b8381101561108b578082015181840152602081019050611070565b50505050905090810190601f1680156110b85780820380516001836020036101000a031916815260200191505b509250505060405180910390fd5b506000838503905080915050939250505056fe536166654d6174683a206d756c7469706c69636174696f6e206f766572666c6f77a165627a7a723058206609ef1d02536b07dbcb92ba39410bd38c4845325337b8fba3efa57c64e305e200296e656564732070726f706f73616c732068617665206e6f74206265656e20616464726573736564536166654d6174683a206d756c7469706c69636174696f6e206f766572666c6f77a165627a7a7230582022b40016455274ca45fc9fc1af684f03d129914c35bd3f080d41b399d4351cb60029",
  "source": "pragma solidity >=0.4.22 <0.6.0;\r\n\r\nimport \"./VoteApp.sol\";\r\nimport \"../clearing/ClearingFundPool.sol\";\r\nimport \"../Interface/ITradeFundPool.sol\";\r\n\r\ncontract Vote_Clearing is VoteApp{\r\n\r\n    /// @notice   \r\n    ClearingProposal public cur_clearingProposal;\r\n\r\n    /// @notice \r\n    ClearingProposal[] clearingProposalQueue;\r\n\r\n    address public tradeAddress;\r\n\r\n    //\r\n    uint256 public minApproveRatio_1000;\r\n\r\n    /// @notice \r\n    struct ClearingProposal{\r\n        uint256 index;\r\n        mapping(address => uint256) clearingList;//\r\n        uint256 startTime;//\r\n        address proposer;//\r\n        uint256 totalSharesAmount;//\r\n        address payable address_clearingFundPool;\r\n        bool pass; //\r\n        bool process; //\r\n    }\r\n\r\n    /// @notice \r\n    event OnApplyClearingProposal(\r\n        uint256 index,\r\n        address proposaler,\r\n        address payable address_clearingFundPool,\r\n        uint256 startTime\r\n    );\r\n\r\n    /// @param who \r\n    /// @param index \r\n    /// @param voteResult \r\n    /// @param sharesAmount \r\n    event OnVoteClearingProposal(\r\n        address who,\r\n        uint256 index,\r\n        uint256 sharesAmount\r\n    );\r\n\r\n    /// @param index  , pass \r\n    event OnProcessClearingProposal(\r\n        uint256 index,\r\n        bool pass\r\n    );\r\n\r\n    constructor(\r\n        AppManager _appManager,\r\n        address _sharesAddress,\r\n        address _tradeAddress,\r\n        uint256 _minApproveRatio_1000,\r\n        uint256 _votingStartTime,\r\n        uint256 _publicityStartTime\r\n    )\r\n    VoteApp(_appManager,_sharesAddress,_votingStartTime,_publicityStartTime)\r\n    public\r\n    {\r\n        minApproveRatio_1000 = _minApproveRatio_1000;\r\n        tradeAddress = _tradeAddress;\r\n    }\r\n\r\n    /// @notice \r\n    /// @dev \r\n    function applyClearingProposal() public payable ownShares(){\r\n        //\r\n        require(cur_clearingProposal.proposer == address(0),\"Only one proposal is allowed\");\r\n        //\r\n        transferF(msg.sender, address(this), proposalFee + deposit);\r\n\r\n        ClearingFundPool _clearingFundPool = new ClearingFundPool(address(this),appManager.getAssetAddress());\r\n\r\n        cur_clearingProposal = ClearingProposal({\r\n            index : clearingProposalQueue.length,\r\n            proposer : msg.sender,\r\n            totalSharesAmount : 0,\r\n            startTime : now,\r\n            pass : false,\r\n            process : false,\r\n            address_clearingFundPool : address(_clearingFundPool)\r\n        });\r\n\r\n        emit OnApplyClearingProposal(\r\n            cur_clearingProposal.index,\r\n            cur_clearingProposal.proposer,\r\n            address(_clearingFundPool),\r\n            cur_clearingProposal.startTime\r\n        );\r\n    }\r\n\r\n    /// @notice \r\n    function voteClearingProposal(uint256 _amount) public ownShares(){\r\n        //\r\n        require(now <= cur_clearingProposal.startTime + votingPeriodLength,\"time out\");\r\n        //\r\n        bool r = IERC20(sharesAddress).transferFrom(msg.sender,address(this),_amount);\r\n        require(r, \"transferFrom error\");\r\n\r\n        cur_clearingProposal.clearingList[msg.sender] += _amount;\r\n        cur_clearingProposal.totalSharesAmount += _amount;\r\n\r\n        ClearingFundPool(cur_clearingProposal.address_clearingFundPool).register(msg.sender,_amount);\r\n\r\n        emit OnVoteClearingProposal(msg.sender,cur_clearingProposal.index,_amount);\r\n    }\r\n\r\n    /// @notice \r\n    function processClearingProposal() public {\r\n        //\r\n        require(now > cur_clearingProposal.startTime + votingPeriodLength,\"it's within the expiry date\");\r\n        require(cur_clearingProposal.process == false,\"needs proposals have not been addressed\");\r\n        uint256 approveRatio_1000 = cur_clearingProposal.totalSharesAmount.mul(1000).div(getTotalSupply());\r\n        if(approveRatio_1000 >= minApproveRatio_1000){\r\n            cur_clearingProposal.pass = true;\r\n            ITradeFundPool(tradeAddress).clearing(cur_clearingProposal.address_clearingFundPool,approveRatio_1000);\r\n        }\r\n        else{\r\n            cur_clearingProposal.pass = false;\r\n        }\r\n        //\r\n        cur_clearingProposal.process = true;\r\n        clearingProposalQueue.push(cur_clearingProposal);\r\n\r\n        //\r\n        emit OnProcessClearingProposal(\r\n            cur_clearingProposal.index,\r\n            cur_clearingProposal.pass\r\n        );\r\n\r\n        //\r\n        cur_clearingProposal = ClearingProposal({\r\n            index : 0,\r\n            proposer : address(0),\r\n            address_clearingFundPool : address(0),\r\n            totalSharesAmount : 0,\r\n            startTime : 0,\r\n            pass : false,\r\n            process : false\r\n        });\r\n    }\r\n}",
  "sourcePath": "D:/_______work/FD_Contract_ETH/fd/contracts/Vote/Vote_Clearing.sol",
  "compiler": {
    "name": "solc",
    "version": "0.5.8+commit.23d335f2.Emscripten.clang"
  },
  "schemaVersion": "3.0.11",
  "updatedAt": "2020-03-30T08:27:52.117Z",
  "devdoc": {
    "methods": {
      "applyClearingProposal()": {
        "details": ""
      }
    }
  },
  "userdoc": {
    "methods": {
      "getBalanceOf(address)": {
        "notice": ""
      },
      "getTotalSupply()": {
        "notice": ""
      },
      "processClearingProposal()": {
        "notice": ""
      },
      "voteClearingProposal(uint256)": {
        "notice": ""
      }
    }
  }
}