{
  "contractName": "Vote_Clearing",
  "abi": [
    {
      "constant": true,
      "inputs": [],
      "name": "assetAddress",
      "outputs": [
        {
          "name": "",
          "type": "address"
        }
      ],
      "payable": false,
      "stateMutability": "view",
      "type": "function"
    },
    {
      "constant": true,
      "inputs": [],
      "name": "approveRatio",
      "outputs": [
        {
          "name": "",
          "type": "uint256"
        }
      ],
      "payable": false,
      "stateMutability": "view",
      "type": "function"
    },
    {
      "constant": true,
      "inputs": [],
      "name": "voteRatio",
      "outputs": [
        {
          "name": "",
          "type": "uint256"
        }
      ],
      "payable": false,
      "stateMutability": "view",
      "type": "function"
    },
    {
      "constant": true,
      "inputs": [],
      "name": "tradeAddress",
      "outputs": [
        {
          "name": "",
          "type": "address"
        }
      ],
      "payable": false,
      "stateMutability": "view",
      "type": "function"
    },
    {
      "constant": true,
      "inputs": [],
      "name": "getAppManagerAddress",
      "outputs": [
        {
          "name": "",
          "type": "address"
        }
      ],
      "payable": false,
      "stateMutability": "view",
      "type": "function"
    },
    {
      "constant": true,
      "inputs": [],
      "name": "minApproveRatio_1000",
      "outputs": [
        {
          "name": "",
          "type": "uint256"
        }
      ],
      "payable": false,
      "stateMutability": "view",
      "type": "function"
    },
    {
      "constant": true,
      "inputs": [
        {
          "name": "_addr",
          "type": "address"
        }
      ],
      "name": "getBalanceOf",
      "outputs": [
        {
          "name": "",
          "type": "uint256"
        }
      ],
      "payable": false,
      "stateMutability": "view",
      "type": "function"
    },
    {
      "constant": true,
      "inputs": [],
      "name": "cur_clearingProposal",
      "outputs": [
        {
          "name": "index",
          "type": "uint256"
        },
        {
          "name": "startTime",
          "type": "uint256"
        },
        {
          "name": "proposer",
          "type": "address"
        },
        {
          "name": "totalSharesAmount",
          "type": "uint256"
        },
        {
          "name": "address_clearingFundPool",
          "type": "address"
        },
        {
          "name": "pass",
          "type": "bool"
        },
        {
          "name": "process",
          "type": "bool"
        },
        {
          "name": "detail",
          "type": "string"
        }
      ],
      "payable": false,
      "stateMutability": "view",
      "type": "function"
    },
    {
      "constant": true,
      "inputs": [],
      "name": "proposalFee",
      "outputs": [
        {
          "name": "",
          "type": "uint256"
        }
      ],
      "payable": false,
      "stateMutability": "view",
      "type": "function"
    },
    {
      "constant": true,
      "inputs": [],
      "name": "getTotalSupply",
      "outputs": [
        {
          "name": "",
          "type": "uint256"
        }
      ],
      "payable": false,
      "stateMutability": "view",
      "type": "function"
    },
    {
      "constant": true,
      "inputs": [],
      "name": "EMPTY_PARAM_HASH",
      "outputs": [
        {
          "name": "",
          "type": "bytes32"
        }
      ],
      "payable": false,
      "stateMutability": "view",
      "type": "function"
    },
    {
      "constant": true,
      "inputs": [],
      "name": "deposit",
      "outputs": [
        {
          "name": "",
          "type": "uint256"
        }
      ],
      "payable": false,
      "stateMutability": "view",
      "type": "function"
    },
    {
      "constant": true,
      "inputs": [
        {
          "name": "_addr",
          "type": "address"
        }
      ],
      "name": "balance",
      "outputs": [
        {
          "name": "",
          "type": "uint256"
        }
      ],
      "payable": false,
      "stateMutability": "view",
      "type": "function"
    },
    {
      "constant": true,
      "inputs": [],
      "name": "appManager",
      "outputs": [
        {
          "name": "",
          "type": "address"
        }
      ],
      "payable": false,
      "stateMutability": "view",
      "type": "function"
    },
    {
      "constant": true,
      "inputs": [],
      "name": "sharesAddress",
      "outputs": [
        {
          "name": "",
          "type": "address"
        }
      ],
      "payable": false,
      "stateMutability": "view",
      "type": "function"
    },
    {
      "inputs": [
        {
          "name": "_appManager",
          "type": "address"
        },
        {
          "name": "_sharesAddress",
          "type": "address"
        },
        {
          "name": "_tradeAddress",
          "type": "address"
        },
        {
          "name": "_minApproveRatio_1000",
          "type": "uint256"
        },
        {
          "name": "_votingStartTime",
          "type": "uint256"
        },
        {
          "name": "_publicityStartTime",
          "type": "uint256"
        }
      ],
      "payable": false,
      "stateMutability": "nonpayable",
      "type": "constructor"
    },
    {
      "anonymous": false,
      "inputs": [
        {
          "indexed": false,
          "name": "index",
          "type": "uint256"
        },
        {
          "indexed": false,
          "name": "proposaler",
          "type": "address"
        },
        {
          "indexed": false,
          "name": "address_clearingFundPool",
          "type": "address"
        },
        {
          "indexed": false,
          "name": "startTime",
          "type": "uint256"
        }
      ],
      "name": "OnApplyClearingProposal",
      "type": "event"
    },
    {
      "anonymous": false,
      "inputs": [
        {
          "indexed": false,
          "name": "who",
          "type": "address"
        },
        {
          "indexed": false,
          "name": "index",
          "type": "uint256"
        },
        {
          "indexed": false,
          "name": "sharesAmount",
          "type": "uint256"
        }
      ],
      "name": "OnVoteClearingProposal",
      "type": "event"
    },
    {
      "anonymous": false,
      "inputs": [
        {
          "indexed": false,
          "name": "index",
          "type": "uint256"
        },
        {
          "indexed": false,
          "name": "pass",
          "type": "bool"
        }
      ],
      "name": "OnProcessClearingProposal",
      "type": "event"
    },
    {
      "constant": false,
      "inputs": [
        {
          "name": "_detail",
          "type": "string"
        }
      ],
      "name": "applyClearingProposal",
      "outputs": [],
      "payable": true,
      "stateMutability": "payable",
      "type": "function"
    },
    {
      "constant": false,
      "inputs": [
        {
          "name": "_amount",
          "type": "uint256"
        }
      ],
      "name": "voteClearingProposal",
      "outputs": [],
      "payable": false,
      "stateMutability": "nonpayable",
      "type": "function"
    },
    {
      "constant": false,
      "inputs": [],
      "name": "processClearingProposal",
      "outputs": [],
      "payable": false,
      "stateMutability": "nonpayable",
      "type": "function"
    }
  ],
  "bytecode": "0x60806040526000600660006101000a81548173ffffffffffffffffffffffffffffffffffffffff021916908373ffffffffffffffffffffffffffffffffffffffff1602179055506000600755600060085534801561005c57600080fd5b5060405160c08061342a833981018060405260c081101561007c57600080fd5b810190808051906020019092919080519060200190929190805190602001909291908051906020019092919080519060200190929190805190602001909291905050508585838383806000806101000a81548173ffffffffffffffffffffffffffffffffffffffff021916908373ffffffffffffffffffffffffffffffffffffffff1602179055505082600660006101000a81548173ffffffffffffffffffffffffffffffffffffffff021916908373ffffffffffffffffffffffffffffffffffffffff1602179055508160028190555080600381905550505050508260128190555083601160006101000a81548173ffffffffffffffffffffffffffffffffffffffff021916908373ffffffffffffffffffffffffffffffffffffffff160217905550505050505050613275806101b56000396000f3fe6080604052600436106101095760003560e01c80639b96eece11610095578063c513f66e11610064578063c513f66e1461057d578063d0e30db0146105a8578063e3d670d7146105d3578063ebe86c1314610638578063f33670aa1461068f57610109565b80639b96eece146103a1578063aa79f71c14610406578063c27cabb514610527578063c4e41b221461055257610109565b8063452f783c116100dc578063452f783c146101e257806349daca7a1461020d5780634c33007714610264578063531b658f146102bb5780637155448a146102e657610109565b80631ba46cfd1461010e5780631d63a0dc1461016557806341f037551461017c57806343f7b98a146101b7575b600080fd5b34801561011a57600080fd5b506101236106e6565b604051808273ffffffffffffffffffffffffffffffffffffffff1673ffffffffffffffffffffffffffffffffffffffff16815260200191505060405180910390f35b34801561017157600080fd5b5061017a61070c565b005b34801561018857600080fd5b506101b56004803603602081101561019f57600080fd5b8101908080359060200190929190505050610d0a565b005b3480156101c357600080fd5b506101cc61115d565b6040518082815260200191505060405180910390f35b3480156101ee57600080fd5b506101f7611163565b6040518082815260200191505060405180910390f35b34801561021957600080fd5b50610222611169565b604051808273ffffffffffffffffffffffffffffffffffffffff1673ffffffffffffffffffffffffffffffffffffffff16815260200191505060405180910390f35b34801561027057600080fd5b5061027961118f565b604051808273ffffffffffffffffffffffffffffffffffffffff1673ffffffffffffffffffffffffffffffffffffffff16815260200191505060405180910390f35b3480156102c757600080fd5b506102d06111b8565b6040518082815260200191505060405180910390f35b61039f600480360360208110156102fc57600080fd5b810190808035906020019064010000000081111561031957600080fd5b82018360208201111561032b57600080fd5b8035906020019184600183028401116401000000008311171561034d57600080fd5b91908080601f016020809104026020016040519081016040528093929190818152602001838380828437600081840152601f19601f8201169050808301925050505050505091929192905050506111be565b005b3480156103ad57600080fd5b506103f0600480360360208110156103c457600080fd5b81019080803573ffffffffffffffffffffffffffffffffffffffff1690602001909291905050506116a7565b6040518082815260200191505060405180910390f35b34801561041257600080fd5b5061041b61178a565b604051808981526020018881526020018773ffffffffffffffffffffffffffffffffffffffff1673ffffffffffffffffffffffffffffffffffffffff1681526020018681526020018573ffffffffffffffffffffffffffffffffffffffff1673ffffffffffffffffffffffffffffffffffffffff168152602001841515151581526020018315151515815260200180602001828103825283818151815260200191508051906020019080838360005b838110156104e55780820151818401526020810190506104ca565b50505050905090810190601f1680156105125780820380516001836020036101000a031916815260200191505b50995050505050505050505060405180910390f35b34801561053357600080fd5b5061053c6118b2565b6040518082815260200191505060405180910390f35b34801561055e57600080fd5b506105676118b8565b6040518082815260200191505060405180910390f35b34801561058957600080fd5b50610592611962565b6040518082815260200191505060405180910390f35b3480156105b457600080fd5b506105bd611989565b6040518082815260200191505060405180910390f35b3480156105df57600080fd5b50610622600480360360208110156105f657600080fd5b81019080803573ffffffffffffffffffffffffffffffffffffffff16906020019092919050505061198f565b6040518082815260200191505060405180910390f35b34801561064457600080fd5b5061064d611a72565b604051808273ffffffffffffffffffffffffffffffffffffffff1673ffffffffffffffffffffffffffffffffffffffff16815260200191505060405180910390f35b34801561069b57600080fd5b506106a4611a97565b604051808273ffffffffffffffffffffffffffffffffffffffff1673ffffffffffffffffffffffffffffffffffffffff16815260200191505060405180910390f35b600160009054906101000a900473ffffffffffffffffffffffffffffffffffffffff1681565b60025460096002015401421161078a576040517f08c379a000000000000000000000000000000000000000000000000000000000815260040180806020018281038252601b8152602001807f697427732077697468696e20746865206578706972792064617465000000000081525060200191505060405180910390fd5b60001515600960050160159054906101000a900460ff161515146107f9576040517f08c379a00000000000000000000000000000000000000000000000000000000081526004018080602001828103825260278152602001806132026027913960400191505060405180910390fd5b600061082e6108066118b8565b6108206103e8600960040154611abd90919063ffffffff16565b611b4390919063ffffffff16565b90506012548110610942576001600960050160146101000a81548160ff021916908315150217905550601160009054906101000a900473ffffffffffffffffffffffffffffffffffffffff1673ffffffffffffffffffffffffffffffffffffffff16634f25e2a3600960050160009054906101000a900473ffffffffffffffffffffffffffffffffffffffff16836040518363ffffffff1660e01b8152600401808373ffffffffffffffffffffffffffffffffffffffff1673ffffffffffffffffffffffffffffffffffffffff16815260200182815260200192505050600060405180830381600087803b15801561092557600080fd5b505af1158015610939573d6000803e3d6000fd5b50505050610961565b6000600960050160146101000a81548160ff0219169083151502179055505b6001600960050160156101000a81548160ff021916908315150217905550601060099080600181540180825580915050906001820390600052602060002090600702016000909192909190915060008201548160000155600282015481600201556003820160009054906101000a900473ffffffffffffffffffffffffffffffffffffffff168160030160006101000a81548173ffffffffffffffffffffffffffffffffffffffff021916908373ffffffffffffffffffffffffffffffffffffffff160217905550600482015481600401556005820160009054906101000a900473ffffffffffffffffffffffffffffffffffffffff168160050160006101000a81548173ffffffffffffffffffffffffffffffffffffffff021916908373ffffffffffffffffffffffffffffffffffffffff1602179055506005820160149054906101000a900460ff168160050160146101000a81548160ff0219169083151502179055506005820160159054906101000a900460ff168160050160156101000a81548160ff02191690831515021790555060068201816006019080546001816001161561010002031660029004610b1b929190611de8565b505050507f088f923150a187251554ebec6f43f5fadc32406a6e85b04c648a7b7a078b8f09600960000154600960050160149054906101000a900460ff1660405180838152602001821515151581526020019250505060405180910390a16040518061010001604052806000815260200160008152602001600073ffffffffffffffffffffffffffffffffffffffff16815260200160008152602001600073ffffffffffffffffffffffffffffffffffffffff168152602001600015158152602001600015158152602001604051806020016040528060008152508152506009600082015181600001556020820151816002015560408201518160030160006101000a81548173ffffffffffffffffffffffffffffffffffffffff021916908373ffffffffffffffffffffffffffffffffffffffff1602179055506060820151816004015560808201518160050160006101000a81548173ffffffffffffffffffffffffffffffffffffffff021916908373ffffffffffffffffffffffffffffffffffffffff16021790555060a08201518160050160146101000a81548160ff02191690831515021790555060c08201518160050160156101000a81548160ff02191690831515021790555060e0820151816006019080519060200190610d03929190611e6f565b5090505050565b6000610d15336116a7565b11610d88576040517f08c379a000000000000000000000000000000000000000000000000000000000815260040180806020018281038252600f8152602001807f6e6565642068617320736861726573000000000000000000000000000000000081525060200191505060405180910390fd5b60025460096002015401421115610e07576040517f08c379a00000000000000000000000000000000000000000000000000000000081526004018080602001828103825260088152602001807f74696d65206f757400000000000000000000000000000000000000000000000081525060200191505060405180910390fd5b6000600660009054906101000a900473ffffffffffffffffffffffffffffffffffffffff1673ffffffffffffffffffffffffffffffffffffffff166323b872dd3330856040518463ffffffff1660e01b8152600401808473ffffffffffffffffffffffffffffffffffffffff1673ffffffffffffffffffffffffffffffffffffffff1681526020018373ffffffffffffffffffffffffffffffffffffffff1673ffffffffffffffffffffffffffffffffffffffff1681526020018281526020019350505050602060405180830381600087803b158015610ee657600080fd5b505af1158015610efa573d6000803e3d6000fd5b505050506040513d6020811015610f1057600080fd5b8101908080519060200190929190505050905080610f96576040517f08c379a00000000000000000000000000000000000000000000000000000000081526004018080602001828103825260128152602001807f7472616e7366657246726f6d206572726f72000000000000000000000000000081525060200191505060405180910390fd5b81600960010160003373ffffffffffffffffffffffffffffffffffffffff1673ffffffffffffffffffffffffffffffffffffffff1681526020019081526020016000206000828254019250508190555081600960040160008282540192505081905550600960050160009054906101000a900473ffffffffffffffffffffffffffffffffffffffff1673ffffffffffffffffffffffffffffffffffffffff16636d705ebb33846040518363ffffffff1660e01b8152600401808373ffffffffffffffffffffffffffffffffffffffff1673ffffffffffffffffffffffffffffffffffffffff16815260200182815260200192505050602060405180830381600087803b1580156110a557600080fd5b505af11580156110b9573d6000803e3d6000fd5b505050506040513d60208110156110cf57600080fd5b8101908080519060200190929190505050507fee256b1983e1701b3852bdc7ee6f3dcdd6d7556aadd194abb9ef9d0002dca29f3360096000015484604051808473ffffffffffffffffffffffffffffffffffffffff1673ffffffffffffffffffffffffffffffffffffffff168152602001838152602001828152602001935050505060405180910390a15050565b60085481565b60075481565b601160009054906101000a900473ffffffffffffffffffffffffffffffffffffffff1681565b60008060009054906101000a900473ffffffffffffffffffffffffffffffffffffffff16905090565b60125481565b60006111c9336116a7565b1161123c576040517f08c379a000000000000000000000000000000000000000000000000000000000815260040180806020018281038252600f8152602001807f6e6565642068617320736861726573000000000000000000000000000000000081525060200191505060405180910390fd5b600073ffffffffffffffffffffffffffffffffffffffff16600960030160009054906101000a900473ffffffffffffffffffffffffffffffffffffffff1673ffffffffffffffffffffffffffffffffffffffff1614611303576040517f08c379a000000000000000000000000000000000000000000000000000000000815260040180806020018281038252601c8152602001807f4f6e6c79206f6e652070726f706f73616c20697320616c6c6f7765640000000081525060200191505060405180910390fd5b611314333060045460055401611b8d565b6000306000809054906101000a900473ffffffffffffffffffffffffffffffffffffffff1673ffffffffffffffffffffffffffffffffffffffff1663670ab5e96040518163ffffffff1660e01b815260040160206040518083038186803b15801561137e57600080fd5b505afa158015611392573d6000803e3d6000fd5b505050506040513d60208110156113a857600080fd5b81019080805190602001909291905050506040516113c590611eef565b808373ffffffffffffffffffffffffffffffffffffffff1673ffffffffffffffffffffffffffffffffffffffff1681526020018273ffffffffffffffffffffffffffffffffffffffff1673ffffffffffffffffffffffffffffffffffffffff16815260200192505050604051809103906000f08015801561144a573d6000803e3d6000fd5b50905060405180610100016040528060108054905081526020014281526020013373ffffffffffffffffffffffffffffffffffffffff168152602001600081526020018273ffffffffffffffffffffffffffffffffffffffff168152602001600015158152602001600015158152602001838152506009600082015181600001556020820151816002015560408201518160030160006101000a81548173ffffffffffffffffffffffffffffffffffffffff021916908373ffffffffffffffffffffffffffffffffffffffff1602179055506060820151816004015560808201518160050160006101000a81548173ffffffffffffffffffffffffffffffffffffffff021916908373ffffffffffffffffffffffffffffffffffffffff16021790555060a08201518160050160146101000a81548160ff02191690831515021790555060c08201518160050160156101000a81548160ff02191690831515021790555060e08201518160060190805190602001906115c9929190611e6f565b509050507f6cc1833e88837d24b28cfca01c8c5068f64f183607782a78a4693e506e10449c600960000154600960030160009054906101000a900473ffffffffffffffffffffffffffffffffffffffff1683600960020154604051808581526020018473ffffffffffffffffffffffffffffffffffffffff1673ffffffffffffffffffffffffffffffffffffffff1681526020018373ffffffffffffffffffffffffffffffffffffffff1673ffffffffffffffffffffffffffffffffffffffff16815260200182815260200194505050505060405180910390a15050565b6000600660009054906101000a900473ffffffffffffffffffffffffffffffffffffffff1673ffffffffffffffffffffffffffffffffffffffff166370a08231836040518263ffffffff1660e01b8152600401808273ffffffffffffffffffffffffffffffffffffffff1673ffffffffffffffffffffffffffffffffffffffff16815260200191505060206040518083038186803b15801561174857600080fd5b505afa15801561175c573d6000803e3d6000fd5b505050506040513d602081101561177257600080fd5b81019080805190602001909291905050509050919050565b60098060000154908060020154908060030160009054906101000a900473ffffffffffffffffffffffffffffffffffffffff16908060040154908060050160009054906101000a900473ffffffffffffffffffffffffffffffffffffffff16908060050160149054906101000a900460ff16908060050160159054906101000a900460ff1690806006018054600181600116156101000203166002900480601f0160208091040260200160405190810160405280929190818152602001828054600181600116156101000203166002900480156118a85780601f1061187d576101008083540402835291602001916118a8565b820191906000526020600020905b81548152906001019060200180831161188b57829003601f168201915b5050505050905088565b60055481565b6000600660009054906101000a900473ffffffffffffffffffffffffffffffffffffffff1673ffffffffffffffffffffffffffffffffffffffff166318160ddd6040518163ffffffff1660e01b815260040160206040518083038186803b15801561192257600080fd5b505afa158015611936573d6000803e3d6000fd5b505050506040513d602081101561194c57600080fd5b8101908080519060200190929190505050905090565b7f290decd9548b62a8d60345a988386fc84ba6bc95484008f6362f93160ef3e56360001b81565b60045481565b6000600160009054906101000a900473ffffffffffffffffffffffffffffffffffffffff1673ffffffffffffffffffffffffffffffffffffffff166370a08231836040518263ffffffff1660e01b8152600401808273ffffffffffffffffffffffffffffffffffffffff1673ffffffffffffffffffffffffffffffffffffffff16815260200191505060206040518083038186803b158015611a3057600080fd5b505afa158015611a44573d6000803e3d6000fd5b505050506040513d6020811015611a5a57600080fd5b81019080805190602001909291905050509050919050565b6000809054906101000a900473ffffffffffffffffffffffffffffffffffffffff1681565b600660009054906101000a900473ffffffffffffffffffffffffffffffffffffffff1681565b600080831415611ad05760009050611b3d565b6000828402905082848281611ae157fe5b0414611b38576040517f08c379a00000000000000000000000000000000000000000000000000000000081526004018080602001828103825260218152602001806132296021913960400191505060405180910390fd5b809150505b92915050565b6000611b8583836040518060400160405280601a81526020017f536166654d6174683a206469766973696f6e206279207a65726f000000000000815250611d22565b905092915050565b6000600160009054906101000a900473ffffffffffffffffffffffffffffffffffffffff1673ffffffffffffffffffffffffffffffffffffffff166323b872dd8585856040518463ffffffff1660e01b8152600401808473ffffffffffffffffffffffffffffffffffffffff1673ffffffffffffffffffffffffffffffffffffffff1681526020018373ffffffffffffffffffffffffffffffffffffffff1673ffffffffffffffffffffffffffffffffffffffff1681526020018281526020019350505050602060405180830381600087803b158015611c6c57600080fd5b505af1158015611c80573d6000803e3d6000fd5b505050506040513d6020811015611c9657600080fd5b8101908080519060200190929190505050905080611d1c576040517f08c379a00000000000000000000000000000000000000000000000000000000081526004018080602001828103825260188152602001807f6173736574207472616e7366657246726f6d206572726f72000000000000000081525060200191505060405180910390fd5b50505050565b60008083118290611dce576040517f08c379a00000000000000000000000000000000000000000000000000000000081526004018080602001828103825283818151815260200191508051906020019080838360005b83811015611d93578082015181840152602081019050611d78565b50505050905090810190601f168015611dc05780820380516001836020036101000a031916815260200191505b509250505060405180910390fd5b506000838581611dda57fe5b049050809150509392505050565b828054600181600116156101000203166002900490600052602060002090601f016020900481019282601f10611e215780548555611e5e565b82800160010185558215611e5e57600052602060002091601f016020900482015b82811115611e5d578254825591600101919060010190611e42565b5b509050611e6b9190611efc565b5090565b828054600181600116156101000203166002900490600052602060002090601f016020900481019282601f10611eb057805160ff1916838001178555611ede565b82800160010185558215611ede579182015b82811115611edd578251825591602001919060010190611ec2565b5b509050611eeb9190611efc565b5090565b6112e080611f2283390190565b611f1e91905b80821115611f1a576000816000905550600101611f02565b5090565b9056fe60806040526000600360006101000a81548160ff0219169083600281111561002357fe5b021790555034801561003457600080fd5b506040516040806112e08339810180604052604081101561005457600080fd5b810190808051906020019092919080519060200190929190505050336000806101000a81548173ffffffffffffffffffffffffffffffffffffffff021916908373ffffffffffffffffffffffffffffffffffffffff16021790555060018060008060009054906101000a900473ffffffffffffffffffffffffffffffffffffffff1673ffffffffffffffffffffffffffffffffffffffff1673ffffffffffffffffffffffffffffffffffffffff16815260200190815260200160002060006101000a81548160ff02191690831515021790555081600660006101000a81548173ffffffffffffffffffffffffffffffffffffffff021916908373ffffffffffffffffffffffffffffffffffffffff16021790555080600560006101000a81548173ffffffffffffffffffffffffffffffffffffffff021916908373ffffffffffffffffffffffffffffffffffffffff1602179055505050611126806101ba6000396000f3fe6080604052600436106100905760003560e01c80636d705ebb116100595780636d705ebb146101ef5780638da5cb5b14610262578063a6f9dae1146102b9578063e7cd4a041461030a578063f79dc1281461035b57610090565b80628dca6a146100925780631ba46cfd146100cb5780632042e5c2146101225780633a98ef39146101735780633d0a40611461019e575b005b34801561009e57600080fd5b506100a76103cb565b604051808260028111156100b757fe5b60ff16815260200191505060405180910390f35b3480156100d757600080fd5b506100e06103de565b604051808273ffffffffffffffffffffffffffffffffffffffff1673ffffffffffffffffffffffffffffffffffffffff16815260200191505060405180910390f35b34801561012e57600080fd5b506101716004803603602081101561014557600080fd5b81019080803573ffffffffffffffffffffffffffffffffffffffff169060200190929190505050610404565b005b34801561017f57600080fd5b50610188610523565b6040518082815260200191505060405180910390f35b3480156101aa57600080fd5b506101ed600480360360208110156101c157600080fd5b81019080803573ffffffffffffffffffffffffffffffffffffffff169060200190929190505050610529565b005b3480156101fb57600080fd5b506102486004803603604081101561021257600080fd5b81019080803573ffffffffffffffffffffffffffffffffffffffff169060200190929190803590602001909291905050506109eb565b604051808215151515815260200191505060405180910390f35b34801561026e57600080fd5b50610277610b1b565b604051808273ffffffffffffffffffffffffffffffffffffffff1673ffffffffffffffffffffffffffffffffffffffff16815260200191505060405180910390f35b3480156102c557600080fd5b50610308600480360360208110156102dc57600080fd5b81019080803573ffffffffffffffffffffffffffffffffffffffff169060200190929190505050610b41565b005b34801561031657600080fd5b506103596004803603602081101561032d57600080fd5b81019080803573ffffffffffffffffffffffffffffffffffffffff169060200190929190505050610cea565b005b34801561036757600080fd5b506103aa6004803603602081101561037e57600080fd5b81019080803573ffffffffffffffffffffffffffffffffffffffff169060200190929190505050610e08565b60405180838152602001821515151581526020019250505060405180910390f35b600360009054906101000a900460ff1681565b600560009054906101000a900473ffffffffffffffffffffffffffffffffffffffff1681565b336000809054906101000a900473ffffffffffffffffffffffffffffffffffffffff1673ffffffffffffffffffffffffffffffffffffffff168173ffffffffffffffffffffffffffffffffffffffff16146104c7576040517f08c379a00000000000000000000000000000000000000000000000000000000081526004018080602001828103825260118152602001807f5065726d697373696f6e2064656e69656400000000000000000000000000000081525060200191505060405180910390fd5b6000600160008473ffffffffffffffffffffffffffffffffffffffff1673ffffffffffffffffffffffffffffffffffffffff16815260200190815260200160002060006101000a81548160ff0219169083151502179055505050565b60045481565b6001600281111561053657fe5b600360009054906101000a900460ff16600281111561055157fe5b146105c4576040517f08c379a00000000000000000000000000000000000000000000000000000000081526004018080602001828103825260178152602001807f636c656172696e67526573756c742069732077726f6e6700000000000000000081525060200191505060405180910390fd5b60001515600260008373ffffffffffffffffffffffffffffffffffffffff1673ffffffffffffffffffffffffffffffffffffffff16815260200190815260200160002060010160009054906101000a900460ff1615151461068d576040517f08c379a00000000000000000000000000000000000000000000000000000000081526004018080602001828103825260148152602001807f4e6f2072657065617420636f6c6c656374696f6e00000000000000000000000081525060200191505060405180910390fd5b60006107d16004546107c3600560009054906101000a900473ffffffffffffffffffffffffffffffffffffffff1673ffffffffffffffffffffffffffffffffffffffff166370a08231306040518263ffffffff1660e01b8152600401808273ffffffffffffffffffffffffffffffffffffffff1673ffffffffffffffffffffffffffffffffffffffff16815260200191505060206040518083038186803b15801561073757600080fd5b505afa15801561074b573d6000803e3d6000fd5b505050506040513d602081101561076157600080fd5b8101908080519060200190929190505050600260008773ffffffffffffffffffffffffffffffffffffffff1673ffffffffffffffffffffffffffffffffffffffff16815260200190815260200160002060000154610e3990919063ffffffff16565b610ebf90919063ffffffff16565b90506000600560009054906101000a900473ffffffffffffffffffffffffffffffffffffffff1673ffffffffffffffffffffffffffffffffffffffff1663a9059cbb84846040518363ffffffff1660e01b8152600401808373ffffffffffffffffffffffffffffffffffffffff1673ffffffffffffffffffffffffffffffffffffffff16815260200182815260200192505050602060405180830381600087803b15801561087e57600080fd5b505af1158015610892573d6000803e3d6000fd5b505050506040513d60208110156108a857600080fd5b810190808051906020019092919050505090508061092e576040517f08c379a00000000000000000000000000000000000000000000000000000000081526004018080602001828103825260058152602001807f6572726f7200000000000000000000000000000000000000000000000000000081525060200191505060405180910390fd5b6001600260008573ffffffffffffffffffffffffffffffffffffffff1673ffffffffffffffffffffffffffffffffffffffff16815260200190815260200160002060010160006101000a81548160ff0219169083151502179055506109e0600260008573ffffffffffffffffffffffffffffffffffffffff1673ffffffffffffffffffffffffffffffffffffffff16815260200190815260200160002060000154600454610f0990919063ffffffff16565b600481905550505050565b6000336000809054906101000a900473ffffffffffffffffffffffffffffffffffffffff1673ffffffffffffffffffffffffffffffffffffffff168173ffffffffffffffffffffffffffffffffffffffff1614610ab0576040517f08c379a00000000000000000000000000000000000000000000000000000000081526004018080602001828103825260118152602001807f5065726d697373696f6e2064656e69656400000000000000000000000000000081525060200191505060405180910390fd5b82600260008673ffffffffffffffffffffffffffffffffffffffff1673ffffffffffffffffffffffffffffffffffffffff1681526020019081526020016000206000016000828254019250508190555082600460008282540192505081905550600191505092915050565b600660009054906101000a900473ffffffffffffffffffffffffffffffffffffffff1681565b336000809054906101000a900473ffffffffffffffffffffffffffffffffffffffff1673ffffffffffffffffffffffffffffffffffffffff168173ffffffffffffffffffffffffffffffffffffffff1614610c04576040517f08c379a00000000000000000000000000000000000000000000000000000000081526004018080602001828103825260118152602001807f5065726d697373696f6e2064656e69656400000000000000000000000000000081525060200191505060405180910390fd5b8173ffffffffffffffffffffffffffffffffffffffff163373ffffffffffffffffffffffffffffffffffffffff161415610ca6576040517f08c379a00000000000000000000000000000000000000000000000000000000081526004018080602001828103825260128152602001807f4e6565642061206e65772061646472657373000000000000000000000000000081525060200191505060405180910390fd5b816000806101000a81548173ffffffffffffffffffffffffffffffffffffffff021916908373ffffffffffffffffffffffffffffffffffffffff1602179055505050565b336000809054906101000a900473ffffffffffffffffffffffffffffffffffffffff1673ffffffffffffffffffffffffffffffffffffffff168173ffffffffffffffffffffffffffffffffffffffff1614610dad576040517f08c379a00000000000000000000000000000000000000000000000000000000081526004018080602001828103825260118152602001807f5065726d697373696f6e2064656e69656400000000000000000000000000000081525060200191505060405180910390fd5b60018060008473ffffffffffffffffffffffffffffffffffffffff1673ffffffffffffffffffffffffffffffffffffffff16815260200190815260200160002060006101000a81548160ff0219169083151502179055505050565b60026020528060005260406000206000915090508060000154908060010160009054906101000a900460ff16905082565b600080831415610e4c5760009050610eb9565b6000828402905082848281610e5d57fe5b0414610eb4576040517f08c379a00000000000000000000000000000000000000000000000000000000081526004018080602001828103825260218152602001806110da6021913960400191505060405180910390fd5b809150505b92915050565b6000610f0183836040518060400160405280601a81526020017f536166654d6174683a206469766973696f6e206279207a65726f000000000000815250610f53565b905092915050565b6000610f4b83836040518060400160405280601e81526020017f536166654d6174683a207375627472616374696f6e206f766572666c6f770000815250611019565b905092915050565b60008083118290610fff576040517f08c379a00000000000000000000000000000000000000000000000000000000081526004018080602001828103825283818151815260200191508051906020019080838360005b83811015610fc4578082015181840152602081019050610fa9565b50505050905090810190601f168015610ff15780820380516001836020036101000a031916815260200191505b509250505060405180910390fd5b50600083858161100b57fe5b049050809150509392505050565b60008383111582906110c6576040517f08c379a00000000000000000000000000000000000000000000000000000000081526004018080602001828103825283818151815260200191508051906020019080838360005b8381101561108b578082015181840152602081019050611070565b50505050905090810190601f1680156110b85780820380516001836020036101000a031916815260200191505b509250505060405180910390fd5b506000838503905080915050939250505056fe536166654d6174683a206d756c7469706c69636174696f6e206f766572666c6f77a165627a7a723058206609ef1d02536b07dbcb92ba39410bd38c4845325337b8fba3efa57c64e305e200296e656564732070726f706f73616c732068617665206e6f74206265656e20616464726573736564536166654d6174683a206d756c7469706c69636174696f6e206f766572666c6f77a165627a7a72305820168971794f48af25ad4d0f0d6c198a8aa3453a6edbcb97cfd502c904b74f74550029",
  "source": "pragma solidity >=0.4.22 <0.6.0;\r\n\r\nimport \"./VoteApp.sol\";\r\nimport \"../clearing/ClearingFundPool.sol\";\r\nimport \"../Interface/ITradeFundPool.sol\";\r\n\r\ncontract Vote_Clearing is VoteApp{\r\n\r\n    /// @notice   \r\n    ClearingProposal public cur_clearingProposal;\r\n\r\n    /// @notice \r\n    ClearingProposal[] clearingProposalQueue;\r\n\r\n    address public tradeAddress;\r\n\r\n    //\r\n    uint256 public minApproveRatio_1000;\r\n\r\n    /// @notice \r\n    struct ClearingProposal{\r\n        uint256 index;\r\n        mapping(address => uint256) clearingList;//\r\n        uint256 startTime;//\r\n        address proposer;//\r\n        uint256 totalSharesAmount;//\r\n        address payable address_clearingFundPool;\r\n        bool pass; //\r\n        bool process; //\r\n        string detail; //\r\n    }\r\n\r\n    /// @notice \r\n    event OnApplyClearingProposal(\r\n        uint256 index,\r\n        address proposaler,\r\n        address payable address_clearingFundPool,\r\n        uint256 startTime\r\n    );\r\n\r\n    /// @param who \r\n    /// @param index \r\n    /// @param voteResult \r\n    /// @param sharesAmount \r\n    event OnVoteClearingProposal(\r\n        address who,\r\n        uint256 index,\r\n        uint256 sharesAmount\r\n    );\r\n\r\n    /// @param index  , pass \r\n    event OnProcessClearingProposal(\r\n        uint256 index,\r\n        bool pass\r\n    );\r\n\r\n    constructor(\r\n        AppManager _appManager,\r\n        address _sharesAddress,\r\n        address _tradeAddress,\r\n        uint256 _minApproveRatio_1000,\r\n        uint256 _votingStartTime,\r\n        uint256 _publicityStartTime\r\n    )\r\n    VoteApp(_appManager,_sharesAddress,_votingStartTime,_publicityStartTime)\r\n    public\r\n    {\r\n        minApproveRatio_1000 = _minApproveRatio_1000;\r\n        tradeAddress = _tradeAddress;\r\n    }\r\n\r\n    /// @notice \r\n    /// @dev \r\n    function applyClearingProposal(string memory _detail) public payable ownShares(){\r\n        //\r\n        require(cur_clearingProposal.proposer == address(0),\"Only one proposal is allowed\");\r\n        //\r\n        transferF(msg.sender, address(this), proposalFee + deposit);\r\n\r\n        ClearingFundPool _clearingFundPool = new ClearingFundPool(address(this),appManager.getAssetAddress());\r\n\r\n        cur_clearingProposal = ClearingProposal({\r\n            index : clearingProposalQueue.length,\r\n            proposer : msg.sender,\r\n            totalSharesAmount : 0,\r\n            startTime : now,\r\n            pass : false,\r\n            process : false,\r\n            address_clearingFundPool : address(_clearingFundPool),\r\n            detail : _detail\r\n        });\r\n\r\n        emit OnApplyClearingProposal(\r\n            cur_clearingProposal.index,\r\n            cur_clearingProposal.proposer,\r\n            address(_clearingFundPool),\r\n            cur_clearingProposal.startTime\r\n        );\r\n    }\r\n\r\n    /// @notice \r\n    function voteClearingProposal(uint256 _amount) public ownShares(){\r\n        //\r\n        require(now <= cur_clearingProposal.startTime + votingPeriodLength,\"time out\");\r\n        //\r\n        bool r = IERC20(sharesAddress).transferFrom(msg.sender,address(this),_amount);\r\n        require(r, \"transferFrom error\");\r\n\r\n        cur_clearingProposal.clearingList[msg.sender] += _amount;\r\n        cur_clearingProposal.totalSharesAmount += _amount;\r\n\r\n        ClearingFundPool(cur_clearingProposal.address_clearingFundPool).register(msg.sender,_amount);\r\n\r\n        emit OnVoteClearingProposal(msg.sender,cur_clearingProposal.index,_amount);\r\n    }\r\n\r\n    /// @notice \r\n    function processClearingProposal() public {\r\n        //\r\n        require(now > cur_clearingProposal.startTime + votingPeriodLength,\"it's within the expiry date\");\r\n        require(cur_clearingProposal.process == false,\"needs proposals have not been addressed\");\r\n        uint256 approveRatio_1000 = cur_clearingProposal.totalSharesAmount.mul(1000).div(getTotalSupply());\r\n        if(approveRatio_1000 >= minApproveRatio_1000){\r\n            cur_clearingProposal.pass = true;\r\n            ITradeFundPool(tradeAddress).clearing(cur_clearingProposal.address_clearingFundPool,approveRatio_1000);\r\n        }\r\n        else{\r\n            cur_clearingProposal.pass = false;\r\n        }\r\n        //\r\n        cur_clearingProposal.process = true;\r\n        clearingProposalQueue.push(cur_clearingProposal);\r\n\r\n        //\r\n        emit OnProcessClearingProposal(\r\n            cur_clearingProposal.index,\r\n            cur_clearingProposal.pass\r\n        );\r\n\r\n        //\r\n        cur_clearingProposal = ClearingProposal({\r\n            index : 0,\r\n            proposer : address(0),\r\n            address_clearingFundPool : address(0),\r\n            totalSharesAmount : 0,\r\n            startTime : 0,\r\n            pass : false,\r\n            process : false,\r\n            detail : \"\"\r\n        });\r\n    }\r\n}",
  "sourcePath": "D:/_______work/FD_Contract_ETH/fd/contracts/Vote/Vote_Clearing.sol",
  "compiler": {
    "name": "solc",
    "version": "0.5.8+commit.23d335f2.Emscripten.clang"
  },
  "schemaVersion": "3.0.11",
  "updatedAt": "2020-04-03T03:44:39.273Z",
  "devdoc": {
    "methods": {
      "applyClearingProposal(string)": {
        "details": ""
      }
    }
  },
  "userdoc": {
    "methods": {
      "getBalanceOf(address)": {
        "notice": ""
      },
      "getTotalSupply()": {
        "notice": ""
      },
      "processClearingProposal()": {
        "notice": ""
      },
      "voteClearingProposal(uint256)": {
        "notice": ""
      }
    }
  }
}