{
  "contractName": "TradeFundPool",
  "abi": [
    {
      "constant": true,
      "inputs": [],
      "name": "during_crowdfunding",
      "outputs": [
        {
          "name": "",
          "type": "bool"
        }
      ],
      "payable": false,
      "stateMutability": "view",
      "type": "function"
    },
    {
      "constant": true,
      "inputs": [],
      "name": "started",
      "outputs": [
        {
          "name": "",
          "type": "bool"
        }
      ],
      "payable": false,
      "stateMutability": "view",
      "type": "function"
    },
    {
      "constant": true,
      "inputs": [],
      "name": "sellReserve",
      "outputs": [
        {
          "name": "",
          "type": "uint256"
        }
      ],
      "payable": false,
      "stateMutability": "view",
      "type": "function"
    },
    {
      "constant": true,
      "inputs": [],
      "name": "getAppManagerAddress",
      "outputs": [
        {
          "name": "",
          "type": "address"
        }
      ],
      "payable": false,
      "stateMutability": "view",
      "type": "function"
    },
    {
      "constant": true,
      "inputs": [],
      "name": "FundPool_Clearing",
      "outputs": [
        {
          "name": "",
          "type": "bytes32"
        }
      ],
      "payable": false,
      "stateMutability": "view",
      "type": "function"
    },
    {
      "constant": true,
      "inputs": [],
      "name": "crowdFundStartTime",
      "outputs": [
        {
          "name": "",
          "type": "uint256"
        }
      ],
      "payable": false,
      "stateMutability": "view",
      "type": "function"
    },
    {
      "constant": true,
      "inputs": [],
      "name": "FundPool_Start",
      "outputs": [
        {
          "name": "",
          "type": "bytes32"
        }
      ],
      "payable": false,
      "stateMutability": "view",
      "type": "function"
    },
    {
      "constant": true,
      "inputs": [],
      "name": "crowdFundPrice",
      "outputs": [
        {
          "name": "",
          "type": "uint256"
        }
      ],
      "payable": false,
      "stateMutability": "view",
      "type": "function"
    },
    {
      "constant": true,
      "inputs": [],
      "name": "crowdFundMoney",
      "outputs": [
        {
          "name": "",
          "type": "uint256"
        }
      ],
      "payable": false,
      "stateMutability": "view",
      "type": "function"
    },
    {
      "constant": true,
      "inputs": [],
      "name": "FundPool_PreMint",
      "outputs": [
        {
          "name": "",
          "type": "bytes32"
        }
      ],
      "payable": false,
      "stateMutability": "view",
      "type": "function"
    },
    {
      "constant": true,
      "inputs": [],
      "name": "EMPTY_PARAM_HASH",
      "outputs": [
        {
          "name": "",
          "type": "bytes32"
        }
      ],
      "payable": false,
      "stateMutability": "view",
      "type": "function"
    },
    {
      "constant": true,
      "inputs": [],
      "name": "FundPool_SendEth",
      "outputs": [
        {
          "name": "",
          "type": "bytes32"
        }
      ],
      "payable": false,
      "stateMutability": "view",
      "type": "function"
    },
    {
      "constant": true,
      "inputs": [],
      "name": "appManager",
      "outputs": [
        {
          "name": "",
          "type": "address"
        }
      ],
      "payable": false,
      "stateMutability": "view",
      "type": "function"
    },
    {
      "constant": true,
      "inputs": [
        {
          "name": "",
          "type": "address"
        }
      ],
      "name": "crowdFundingEth",
      "outputs": [
        {
          "name": "",
          "type": "uint256"
        }
      ],
      "payable": false,
      "stateMutability": "view",
      "type": "function"
    },
    {
      "constant": true,
      "inputs": [],
      "name": "crowdFundDuringTime",
      "outputs": [
        {
          "name": "",
          "type": "uint256"
        }
      ],
      "payable": false,
      "stateMutability": "view",
      "type": "function"
    },
    {
      "inputs": [
        {
          "name": "_appManager",
          "type": "address"
        },
        {
          "name": "_token",
          "type": "address"
        },
        {
          "name": "_duringTime",
          "type": "uint256"
        },
        {
          "name": "_money",
          "type": "uint256"
        },
        {
          "name": "_curve",
          "type": "address"
        }
      ],
      "payable": false,
      "stateMutability": "nonpayable",
      "type": "constructor"
    },
    {
      "payable": true,
      "stateMutability": "payable",
      "type": "fallback"
    },
    {
      "anonymous": false,
      "inputs": [
        {
          "indexed": false,
          "name": "who",
          "type": "address"
        },
        {
          "indexed": false,
          "name": "ethAmount",
          "type": "uint256"
        },
        {
          "indexed": false,
          "name": "fdtAmount",
          "type": "uint256"
        }
      ],
      "name": "OnBuy",
      "type": "event"
    },
    {
      "anonymous": false,
      "inputs": [
        {
          "indexed": false,
          "name": "who",
          "type": "address"
        },
        {
          "indexed": false,
          "name": "ethAmount",
          "type": "uint256"
        },
        {
          "indexed": false,
          "name": "fdtAmount",
          "type": "uint256"
        }
      ],
      "name": "OnSell",
      "type": "event"
    },
    {
      "anonymous": false,
      "inputs": [
        {
          "indexed": false,
          "name": "who",
          "type": "address"
        },
        {
          "indexed": false,
          "name": "ethAmount",
          "type": "uint256"
        }
      ],
      "name": "OnRevenue",
      "type": "event"
    },
    {
      "anonymous": false,
      "inputs": [
        {
          "indexed": false,
          "name": "who",
          "type": "address"
        },
        {
          "indexed": false,
          "name": "ethAmount",
          "type": "uint256"
        }
      ],
      "name": "OnWindingUp",
      "type": "event"
    },
    {
      "anonymous": false,
      "inputs": [
        {
          "indexed": false,
          "name": "who",
          "type": "address"
        },
        {
          "indexed": false,
          "name": "fdtAmount",
          "type": "uint256"
        },
        {
          "indexed": false,
          "name": "timestamp",
          "type": "uint256"
        }
      ],
      "name": "OnPreMint",
      "type": "event"
    },
    {
      "anonymous": false,
      "inputs": [
        {
          "indexed": false,
          "name": "who",
          "type": "address"
        },
        {
          "indexed": false,
          "name": "ethAmount",
          "type": "uint256"
        }
      ],
      "name": "OnSendEth",
      "type": "event"
    },
    {
      "anonymous": false,
      "inputs": [
        {
          "indexed": false,
          "name": "clearingContractAddress",
          "type": "address"
        },
        {
          "indexed": false,
          "name": "ratio",
          "type": "uint256"
        },
        {
          "indexed": false,
          "name": "ethAmount",
          "type": "uint256"
        }
      ],
      "name": "OnClearing",
      "type": "event"
    },
    {
      "anonymous": false,
      "inputs": [
        {
          "indexed": false,
          "name": "tag",
          "type": "uint256"
        }
      ],
      "name": "OnEvent",
      "type": "event"
    },
    {
      "constant": true,
      "inputs": [],
      "name": "getCurveAddress",
      "outputs": [
        {
          "name": "",
          "type": "address"
        }
      ],
      "payable": false,
      "stateMutability": "view",
      "type": "function"
    },
    {
      "constant": true,
      "inputs": [],
      "name": "getFdTokenAddress",
      "outputs": [
        {
          "name": "",
          "type": "address"
        }
      ],
      "payable": false,
      "stateMutability": "view",
      "type": "function"
    },
    {
      "constant": false,
      "inputs": [],
      "name": "start",
      "outputs": [],
      "payable": false,
      "stateMutability": "nonpayable",
      "type": "function"
    },
    {
      "constant": false,
      "inputs": [
        {
          "name": "who",
          "type": "address"
        },
        {
          "name": "amount",
          "type": "uint256"
        },
        {
          "name": "timestamp",
          "type": "uint256"
        }
      ],
      "name": "preMint",
      "outputs": [],
      "payable": false,
      "stateMutability": "nonpayable",
      "type": "function"
    },
    {
      "constant": false,
      "inputs": [],
      "name": "windingUp",
      "outputs": [],
      "payable": false,
      "stateMutability": "nonpayable",
      "type": "function"
    },
    {
      "constant": false,
      "inputs": [
        {
          "name": "needBack",
          "type": "bool"
        },
        {
          "name": "tag",
          "type": "uint256"
        }
      ],
      "name": "crowdfunding",
      "outputs": [],
      "payable": true,
      "stateMutability": "payable",
      "type": "function"
    },
    {
      "constant": false,
      "inputs": [
        {
          "name": "_minBuyToken",
          "type": "uint256"
        },
        {
          "name": "tag",
          "type": "uint256"
        }
      ],
      "name": "buy",
      "outputs": [],
      "payable": true,
      "stateMutability": "payable",
      "type": "function"
    },
    {
      "constant": false,
      "inputs": [
        {
          "name": "_amount",
          "type": "uint256"
        },
        {
          "name": "_maxGasValue",
          "type": "uint256"
        }
      ],
      "name": "sell",
      "outputs": [],
      "payable": false,
      "stateMutability": "nonpayable",
      "type": "function"
    },
    {
      "constant": false,
      "inputs": [],
      "name": "revenue",
      "outputs": [],
      "payable": true,
      "stateMutability": "payable",
      "type": "function"
    },
    {
      "constant": false,
      "inputs": [
        {
          "name": "_who",
          "type": "address"
        },
        {
          "name": "_value",
          "type": "uint256"
        }
      ],
      "name": "sendEth",
      "outputs": [],
      "payable": false,
      "stateMutability": "nonpayable",
      "type": "function"
    },
    {
      "constant": false,
      "inputs": [
        {
          "name": "_clearingContractAddress",
          "type": "address"
        },
        {
          "name": "_ratio",
          "type": "uint256"
        }
      ],
      "name": "clearing",
      "outputs": [],
      "payable": false,
      "stateMutability": "nonpayable",
      "type": "function"
    }
  ],
  "bytecode": "0x60806040526001600560006101000a81548160ff0219169083151502179055506000600560016101000a81548160ff0219169083151502179055503480156200004757600080fd5b5060405160a080620041ed833981018060405260a08110156200006957600080fd5b81019080805190602001909291908051906020019092919080519060200190929190805190602001909291908051906020019092919050505084806000806101000a81548173ffffffffffffffffffffffffffffffffffffffff021916908373ffffffffffffffffffffffffffffffffffffffff16021790555050600083116200015b576040517f08c379a00000000000000000000000000000000000000000000000000000000081526004018080602001828103825260158152602001807f64206e6565642067726561746572207468616e2030000000000000000000000081525060200191505060405180910390fd5b60008211620001d2576040517f08c379a00000000000000000000000000000000000000000000000000000000081526004018080602001828103825260158152602001807f6d206e6565642067726561746572207468616e2030000000000000000000000081525060200191505060405180910390fd5b80600860006101000a81548173ffffffffffffffffffffffffffffffffffffffff021916908373ffffffffffffffffffffffffffffffffffffffff16021790555083600960006101000a81548173ffffffffffffffffffffffffffffffffffffffff021916908373ffffffffffffffffffffffffffffffffffffffff160217905550826002819055508160038190555042600481905550600860009054906101000a900473ffffffffffffffffffffffffffffffffffffffff1673ffffffffffffffffffffffffffffffffffffffff166332386d9e6003546040518263ffffffff1660e01b81526004018082815260200191505060206040518083038186803b158015620002df57600080fd5b505afa158015620002f4573d6000803e3d6000fd5b505050506040513d60208110156200030b57600080fd5b81019080805190602001909291905050506001819055505050505050613eb680620003376000396000f3fe6080604052600436106101815760003560e01c8063a218dca0116100d1578063d6febde81161008a578063ebe86c1311610064578063ebe86c131461065c578063f480fb6b146106b3578063f894000014610718578063facd49a91461072f57610181565b8063d6febde8146105b4578063d79875eb146105ec578063e51f67d01461063157610181565b8063a218dca01461049a578063b0e8fc75146104c5578063b5250ac2146104f0578063b710ffc014610547578063be9a655514610572578063c513f66e1461058957610181565b80634c3300771161013e57806358e80b401161011857806358e80b40146103a557806360f191f91461040a5780636172bed414610444578063a0ce08971461046f57610181565b80634c330077146102c85780634dceabe21461031f5780634f25e2a31461034a57610181565b806302528101146101835780631f2698ab146101b257806323572c57146101e15780633d00e61b146102385780633e9491a21461026357806349dcbc5e1461026d575b005b34801561018f57600080fd5b5061019861075a565b604051808215151515815260200191505060405180910390f35b3480156101be57600080fd5b506101c761076d565b604051808215151515815260200191505060405180910390f35b3480156101ed57600080fd5b506101f6610780565b604051808273ffffffffffffffffffffffffffffffffffffffff1673ffffffffffffffffffffffffffffffffffffffff16815260200191505060405180910390f35b34801561024457600080fd5b5061024d6107aa565b6040518082815260200191505060405180910390f35b61026b6107b0565b005b34801561027957600080fd5b506102c66004803603604081101561029057600080fd5b81019080803573ffffffffffffffffffffffffffffffffffffffff169060200190929190803590602001909291905050506109a9565b005b3480156102d457600080fd5b506102dd610dc1565b604051808273ffffffffffffffffffffffffffffffffffffffff1673ffffffffffffffffffffffffffffffffffffffff16815260200191505060405180910390f35b34801561032b57600080fd5b50610334610dea565b6040518082815260200191505060405180910390f35b34801561035657600080fd5b506103a36004803603604081101561036d57600080fd5b81019080803573ffffffffffffffffffffffffffffffffffffffff16906020019092919080359060200190929190505050610e23565b005b3480156103b157600080fd5b50610408600480360360608110156103c857600080fd5b81019080803573ffffffffffffffffffffffffffffffffffffffff16906020019092919080359060200190929190803590602001909291905050506112d8565b005b6104426004803603604081101561042057600080fd5b81019080803515159060200190929190803590602001909291905050506117fc565b005b34801561045057600080fd5b50610459612771565b6040518082815260200191505060405180910390f35b34801561047b57600080fd5b50610484612777565b6040518082815260200191505060405180910390f35b3480156104a657600080fd5b506104af6127b0565b6040518082815260200191505060405180910390f35b3480156104d157600080fd5b506104da6127b6565b6040518082815260200191505060405180910390f35b3480156104fc57600080fd5b506105056127bc565b604051808273ffffffffffffffffffffffffffffffffffffffff1673ffffffffffffffffffffffffffffffffffffffff16815260200191505060405180910390f35b34801561055357600080fd5b5061055c6127e6565b6040518082815260200191505060405180910390f35b34801561057e57600080fd5b5061058761281f565b005b34801561059557600080fd5b5061059e612a08565b6040518082815260200191505060405180910390f35b6105ea600480360360408110156105ca57600080fd5b810190808035906020019092919080359060200190929190505050612a2f565b005b3480156105f857600080fd5b5061062f6004803603604081101561060f57600080fd5b810190808035906020019092919080359060200190929190505050612fb1565b005b34801561063d57600080fd5b50610646613513565b6040518082815260200191505060405180910390f35b34801561066857600080fd5b5061067161354c565b604051808273ffffffffffffffffffffffffffffffffffffffff1673ffffffffffffffffffffffffffffffffffffffff16815260200191505060405180910390f35b3480156106bf57600080fd5b50610702600480360360208110156106d657600080fd5b81019080803573ffffffffffffffffffffffffffffffffffffffff169060200190929190505050613571565b6040518082815260200191505060405180910390f35b34801561072457600080fd5b5061072d613589565b005b34801561073b57600080fd5b50610744613a66565b6040518082815260200191505060405180910390f35b600560009054906101000a900460ff1681565b600560019054906101000a900460ff1681565b6000600860009054906101000a900473ffffffffffffffffffffffffffffffffffffffff16905090565b60065481565b60011515600560019054906101000a900460ff16151514610839576040517f08c379a000000000000000000000000000000000000000000000000000000000815260040180806020018281038252600a8152602001807f6e6565642073746172740000000000000000000000000000000000000000000081525060200191505060405180910390fd5b60001515600560009054906101000a900460ff161515146108a5576040517f08c379a0000000000000000000000000000000000000000000000000000000008152600401808060200182810382526022815260200180613d956022913960400191505060405180910390fd5b6000341161091b576040517f08c379a00000000000000000000000000000000000000000000000000000000081526004018080602001828103825260118152602001807f76616c7565206e656564206d6f7265203000000000000000000000000000000081525060200191505060405180910390fd5b600034905061093581600654613a6c90919063ffffffff16565b6006819055507ff817f8b22dc3d12c2b0537ef5fadd318e6a373be013bf57a92d2f49c4396fc9b3382604051808373ffffffffffffffffffffffffffffffffffffffff1673ffffffffffffffffffffffffffffffffffffffff1681526020018281526020019250505060405180910390a150565b60011515600560019054906101000a900460ff16151514610a32576040517f08c379a000000000000000000000000000000000000000000000000000000000815260040180806020018281038252600a8152602001807f6e6565642073746172740000000000000000000000000000000000000000000081525060200191505060405180910390fd5b60001515600560009054906101000a900460ff16151514610a9e576040517f08c379a0000000000000000000000000000000000000000000000000000000008152600401808060200182810382526022815260200180613d956022913960400191505060405180910390fd5b60405180807f46756e64506f6f6c5f53656e6445746800000000000000000000000000000000815250601001905060405180910390206000809054906101000a900473ffffffffffffffffffffffffffffffffffffffff1673ffffffffffffffffffffffffffffffffffffffff16634c5f07493330847f290decd9548b62a8d60345a988386fc84ba6bc95484008f6362f93160ef3e56360001b6040518563ffffffff1660e01b8152600401808573ffffffffffffffffffffffffffffffffffffffff1673ffffffffffffffffffffffffffffffffffffffff1681526020018473ffffffffffffffffffffffffffffffffffffffff1673ffffffffffffffffffffffffffffffffffffffff16815260200183815260200182815260200194505050505060206040518083038186803b158015610bd957600080fd5b505afa158015610bed573d6000803e3d6000fd5b505050506040513d6020811015610c0357600080fd5b8101908080519060200190929190505050610c69576040517f08c379a0000000000000000000000000000000000000000000000000000000008152600401808060200182810382526024815260200180613e426024913960400191505060405180910390fd5b600654610c96833073ffffffffffffffffffffffffffffffffffffffff1631613af490919063ffffffff16565b1015610d0a576040517f08c379a00000000000000000000000000000000000000000000000000000000081526004018080602001828103825260148152602001807f6e6f742073756666696369656e742066756e647300000000000000000000000081525060200191505060405180910390fd5b8273ffffffffffffffffffffffffffffffffffffffff166108fc839081150290604051600060405180830381858888f19350505050158015610d50573d6000803e3d6000fd5b507f138f9cfbc4a9dde478532233b2aa757b32bffaf9db8ad7a61da668f4b25099b38383604051808373ffffffffffffffffffffffffffffffffffffffff1673ffffffffffffffffffffffffffffffffffffffff1681526020018281526020019250505060405180910390a1505050565b60008060009054906101000a900473ffffffffffffffffffffffffffffffffffffffff16905090565b60405180807f46756e64506f6f6c5f436c656172696e670000000000000000000000000000008152506011019050604051809103902081565b60011515600560019054906101000a900460ff16151514610eac576040517f08c379a000000000000000000000000000000000000000000000000000000000815260040180806020018281038252600a8152602001807f6e6565642073746172740000000000000000000000000000000000000000000081525060200191505060405180910390fd5b60001515600560009054906101000a900460ff16151514610f18576040517f08c379a0000000000000000000000000000000000000000000000000000000008152600401808060200182810382526022815260200180613d956022913960400191505060405180910390fd5b60405180807f46756e64506f6f6c5f436c656172696e67000000000000000000000000000000815250601101905060405180910390206000809054906101000a900473ffffffffffffffffffffffffffffffffffffffff1673ffffffffffffffffffffffffffffffffffffffff16634c5f07493330847f290decd9548b62a8d60345a988386fc84ba6bc95484008f6362f93160ef3e56360001b6040518563ffffffff1660e01b8152600401808573ffffffffffffffffffffffffffffffffffffffff1673ffffffffffffffffffffffffffffffffffffffff1681526020018473ffffffffffffffffffffffffffffffffffffffff1673ffffffffffffffffffffffffffffffffffffffff16815260200183815260200182815260200194505050505060206040518083038186803b15801561105357600080fd5b505afa158015611067573d6000803e3d6000fd5b505050506040513d602081101561107d57600080fd5b81019080805190602001909291905050506110e3576040517f08c379a0000000000000000000000000000000000000000000000000000000008152600401808060200182810382526024815260200180613e426024913960400191505060405180910390fd5b633b9aca0082111561115d576040517f08c379a000000000000000000000000000000000000000000000000000000000815260040180806020018281038252600e8152602001807f726174696f2069732077726f6e6700000000000000000000000000000000000081525060200191505060405180910390fd5b600061118a633b9aca0061117c85600654613b3e90919063ffffffff16565b613bc490919063ffffffff16565b905060006111e2633b9aca006111d4866111c66006543073ffffffffffffffffffffffffffffffffffffffff1631613af490919063ffffffff16565b613b3e90919063ffffffff16565b613bc490919063ffffffff16565b90506111f982600654613af490919063ffffffff16565b60068190555060006112148284613a6c90919063ffffffff16565b90508573ffffffffffffffffffffffffffffffffffffffff166108fc829081150290604051600060405180830381858888f1935050505015801561125c573d6000803e3d6000fd5b507f5520a084efee135dd1f08a3cf57701c4804d205b5279cdfc8f3db553b7a0bf6f868683604051808473ffffffffffffffffffffffffffffffffffffffff1673ffffffffffffffffffffffffffffffffffffffff168152602001838152602001828152602001935050505060405180910390a1505050505050565b60405180807f46756e64506f6f6c5f5072654d696e7400000000000000000000000000000000815250601001905060405180910390206000809054906101000a900473ffffffffffffffffffffffffffffffffffffffff1673ffffffffffffffffffffffffffffffffffffffff16634c5f07493330847f290decd9548b62a8d60345a988386fc84ba6bc95484008f6362f93160ef3e56360001b6040518563ffffffff1660e01b8152600401808573ffffffffffffffffffffffffffffffffffffffff1673ffffffffffffffffffffffffffffffffffffffff1681526020018473ffffffffffffffffffffffffffffffffffffffff1673ffffffffffffffffffffffffffffffffffffffff16815260200183815260200182815260200194505050505060206040518083038186803b15801561141357600080fd5b505afa158015611427573d6000803e3d6000fd5b505050506040513d602081101561143d57600080fd5b81019080805190602001909291905050506114a3576040517f08c379a0000000000000000000000000000000000000000000000000000000008152600401808060200182810382526024815260200180613e426024913960400191505060405180910390fd5b60001515600560019054906101000a900460ff1615151461152c576040517f08c379a000000000000000000000000000000000000000000000000000000000815260040180806020018281038252600a8152602001807f63616e742073746172740000000000000000000000000000000000000000000081525060200191505060405180910390fd5b60008060009054906101000a900473ffffffffffffffffffffffffffffffffffffffff1673ffffffffffffffffffffffffffffffffffffffff1663bf7b00eb6040518163ffffffff1660e01b815260040160206040518083038186803b15801561159557600080fd5b505afa1580156115a9573d6000803e3d6000fd5b505050506040513d60208110156115bf57600080fd5b81019080805190602001909291905050509050600960009054906101000a900473ffffffffffffffffffffffffffffffffffffffff1673ffffffffffffffffffffffffffffffffffffffff166340c10f1982866040518363ffffffff1660e01b8152600401808373ffffffffffffffffffffffffffffffffffffffff1673ffffffffffffffffffffffffffffffffffffffff16815260200182815260200192505050602060405180830381600087803b15801561167b57600080fd5b505af115801561168f573d6000803e3d6000fd5b505050506040513d60208110156116a557600080fd5b8101908080519060200190929190505050508073ffffffffffffffffffffffffffffffffffffffff1663efc66ad18686866040518463ffffffff1660e01b8152600401808473ffffffffffffffffffffffffffffffffffffffff1673ffffffffffffffffffffffffffffffffffffffff1681526020018381526020018281526020019350505050602060405180830381600087803b15801561174657600080fd5b505af115801561175a573d6000803e3d6000fd5b505050506040513d602081101561177057600080fd5b8101908080519060200190929190505050507f0e2bd8bce3deb8614e77aaea3b2f90a82abd0a468d5bd8385cbd827c94f45528858585604051808473ffffffffffffffffffffffffffffffffffffffff1673ffffffffffffffffffffffffffffffffffffffff168152602001838152602001828152602001935050505060405180910390a15050505050565b60011515600560019054906101000a900460ff16151514611885576040517f08c379a000000000000000000000000000000000000000000000000000000000815260040180806020018281038252600a8152602001807f6e6565642073746172740000000000000000000000000000000000000000000081525060200191505060405180910390fd5b60011515600560009054906101000a900460ff161515146118f1576040517f08c379a0000000000000000000000000000000000000000000000000000000008152600401808060200182810382526023815260200180613e1f6023913960400191505060405180910390fd5b60003490506000811161196c576040517f08c379a00000000000000000000000000000000000000000000000000000000081526004018080602001828103825260168152602001807f76616c7565206e656564206d6f7265207468616e20300000000000000000000081525060200191505060405180910390fd5b60025461198460045442613af490919063ffffffff16565b11156119f8576040517f08c379a000000000000000000000000000000000000000000000000000000000815260040180806020018281038252601f8152602001807f6e65656420696e2074686520636f72776466756e64696e6720706572696f640081525060200191505060405180910390fd5b60003073ffffffffffffffffffffffffffffffffffffffff16319050600354811015611c7f576000611a3560015484613bc490919063ffffffff16565b9050600960009054906101000a900473ffffffffffffffffffffffffffffffffffffffff1673ffffffffffffffffffffffffffffffffffffffff166340c10f1933836040518363ffffffff1660e01b8152600401808373ffffffffffffffffffffffffffffffffffffffff1673ffffffffffffffffffffffffffffffffffffffff16815260200182815260200192505050602060405180830381600087803b158015611ae057600080fd5b505af1158015611af4573d6000803e3d6000fd5b505050506040513d6020811015611b0a57600080fd5b810190808051906020019092919050505050611bde600860009054906101000a900473ffffffffffffffffffffffffffffffffffffffff1673ffffffffffffffffffffffffffffffffffffffff16638bcc9537856040518263ffffffff1660e01b81526004018082815260200191505060206040518083038186803b158015611b9257600080fd5b505afa158015611ba6573d6000803e3d6000fd5b505050506040513d6020811015611bbc57600080fd5b8101908080519060200190929190505050600654613a6c90919063ffffffff16565b600681905550611c3683600760003373ffffffffffffffffffffffffffffffffffffffff1673ffffffffffffffffffffffffffffffffffffffff16815260200190815260200160002054613a6c90919063ffffffff16565b600760003373ffffffffffffffffffffffffffffffffffffffff1673ffffffffffffffffffffffffffffffffffffffff1681526020019081526020016000208190555050612734565b600354811415611f05576000600560006101000a81548160ff0219169083151502179055506000611cbb60015484613bc490919063ffffffff16565b9050600960009054906101000a900473ffffffffffffffffffffffffffffffffffffffff1673ffffffffffffffffffffffffffffffffffffffff166340c10f1933836040518363ffffffff1660e01b8152600401808373ffffffffffffffffffffffffffffffffffffffff1673ffffffffffffffffffffffffffffffffffffffff16815260200182815260200192505050602060405180830381600087803b158015611d6657600080fd5b505af1158015611d7a573d6000803e3d6000fd5b505050506040513d6020811015611d9057600080fd5b810190808051906020019092919050505050611e64600860009054906101000a900473ffffffffffffffffffffffffffffffffffffffff1673ffffffffffffffffffffffffffffffffffffffff16638bcc9537856040518263ffffffff1660e01b81526004018082815260200191505060206040518083038186803b158015611e1857600080fd5b505afa158015611e2c573d6000803e3d6000fd5b505050506040513d6020811015611e4257600080fd5b8101908080519060200190929190505050600654613a6c90919063ffffffff16565b600681905550611ebc83600760003373ffffffffffffffffffffffffffffffffffffffff1673ffffffffffffffffffffffffffffffffffffffff16815260200190815260200160002054613a6c90919063ffffffff16565b600760003373ffffffffffffffffffffffffffffffffffffffff1673ffffffffffffffffffffffffffffffffffffffff1681526020019081526020016000208190555050612733565b8315612223576000600560006101000a81548160ff0219169083151502179055506000611f66611f576003543073ffffffffffffffffffffffffffffffffffffffff1631613af490919063ffffffff16565b84613af490919063ffffffff16565b90506000611f7f60015483613bc490919063ffffffff16565b9050600960009054906101000a900473ffffffffffffffffffffffffffffffffffffffff1673ffffffffffffffffffffffffffffffffffffffff166340c10f1933836040518363ffffffff1660e01b8152600401808373ffffffffffffffffffffffffffffffffffffffff1673ffffffffffffffffffffffffffffffffffffffff16815260200182815260200192505050602060405180830381600087803b15801561202a57600080fd5b505af115801561203e573d6000803e3d6000fd5b505050506040513d602081101561205457600080fd5b8101908080519060200190929190505050503373ffffffffffffffffffffffffffffffffffffffff166108fc6120938487613af490919063ffffffff16565b9081150290604051600060405180830381858888f193505050501580156120be573d6000803e3d6000fd5b50612181600860009054906101000a900473ffffffffffffffffffffffffffffffffffffffff1673ffffffffffffffffffffffffffffffffffffffff16638bcc9537846040518263ffffffff1660e01b81526004018082815260200191505060206040518083038186803b15801561213557600080fd5b505afa158015612149573d6000803e3d6000fd5b505050506040513d602081101561215f57600080fd5b8101908080519060200190929190505050600654613a6c90919063ffffffff16565b6006819055506121d982600760003373ffffffffffffffffffffffffffffffffffffffff1673ffffffffffffffffffffffffffffffffffffffff16815260200190815260200160002054613a6c90919063ffffffff16565b600760003373ffffffffffffffffffffffffffffffffffffffff1673ffffffffffffffffffffffffffffffffffffffff168152602001908152602001600020819055505050612732565b6000600560006101000a81548160ff021916908315150217905550600061227e61226f6003543073ffffffffffffffffffffffffffffffffffffffff1631613af490919063ffffffff16565b84613af490919063ffffffff16565b9050600061229760015483613bc490919063ffffffff16565b9050600960009054906101000a900473ffffffffffffffffffffffffffffffffffffffff1673ffffffffffffffffffffffffffffffffffffffff166340c10f1933836040518363ffffffff1660e01b8152600401808373ffffffffffffffffffffffffffffffffffffffff1673ffffffffffffffffffffffffffffffffffffffff16815260200182815260200192505050602060405180830381600087803b15801561234257600080fd5b505af1158015612356573d6000803e3d6000fd5b505050506040513d602081101561236c57600080fd5b8101908080519060200190929190505050506000600860009054906101000a900473ffffffffffffffffffffffffffffffffffffffff1673ffffffffffffffffffffffffffffffffffffffff166356d68a2d6123d18588613af490919063ffffffff16565b600960009054906101000a900473ffffffffffffffffffffffffffffffffffffffff1673ffffffffffffffffffffffffffffffffffffffff166318160ddd6040518163ffffffff1660e01b815260040160206040518083038186803b15801561243957600080fd5b505afa15801561244d573d6000803e3d6000fd5b505050506040513d602081101561246357600080fd5b81019080805190602001909291905050506040518363ffffffff1660e01b8152600401808381526020018281526020019250505060206040518083038186803b1580156124af57600080fd5b505afa1580156124c3573d6000803e3d6000fd5b505050506040513d60208110156124d957600080fd5b81019080805190602001909291905050509050600960009054906101000a900473ffffffffffffffffffffffffffffffffffffffff1673ffffffffffffffffffffffffffffffffffffffff166340c10f1933836040518363ffffffff1660e01b8152600401808373ffffffffffffffffffffffffffffffffffffffff1673ffffffffffffffffffffffffffffffffffffffff16815260200182815260200192505050602060405180830381600087803b15801561259557600080fd5b505af11580156125a9573d6000803e3d6000fd5b505050506040513d60208110156125bf57600080fd5b810190808051906020019092919050505050612693600860009054906101000a900473ffffffffffffffffffffffffffffffffffffffff1673ffffffffffffffffffffffffffffffffffffffff16638bcc9537876040518263ffffffff1660e01b81526004018082815260200191505060206040518083038186803b15801561264757600080fd5b505afa15801561265b573d6000803e3d6000fd5b505050506040513d602081101561267157600080fd5b8101908080519060200190929190505050600654613a6c90919063ffffffff16565b6006819055506126eb85600760003373ffffffffffffffffffffffffffffffffffffffff1673ffffffffffffffffffffffffffffffffffffffff16815260200190815260200160002054613a6c90919063ffffffff16565b600760003373ffffffffffffffffffffffffffffffffffffffff1673ffffffffffffffffffffffffffffffffffffffff168152602001908152602001600020819055505050505b5b5b7f45aa7f3cdd2146b76490194f17cc109636462c5c154d0da063bbfd56d1a31e16836040518082815260200191505060405180910390a150505050565b60045481565b60405180807f46756e64506f6f6c5f5374617274000000000000000000000000000000000000815250600e019050604051809103902081565b60015481565b60035481565b6000600960009054906101000a900473ffffffffffffffffffffffffffffffffffffffff16905090565b60405180807f46756e64506f6f6c5f5072654d696e74000000000000000000000000000000008152506010019050604051809103902081565b60405180807f46756e64506f6f6c5f5374617274000000000000000000000000000000000000815250600e01905060405180910390206000809054906101000a900473ffffffffffffffffffffffffffffffffffffffff1673ffffffffffffffffffffffffffffffffffffffff16634c5f07493330847f290decd9548b62a8d60345a988386fc84ba6bc95484008f6362f93160ef3e56360001b6040518563ffffffff1660e01b8152600401808573ffffffffffffffffffffffffffffffffffffffff1673ffffffffffffffffffffffffffffffffffffffff1681526020018473ffffffffffffffffffffffffffffffffffffffff1673ffffffffffffffffffffffffffffffffffffffff16815260200183815260200182815260200194505050505060206040518083038186803b15801561295a57600080fd5b505afa15801561296e573d6000803e3d6000fd5b505050506040513d602081101561298457600080fd5b81019080805190602001909291905050506129ea576040517f08c379a0000000000000000000000000000000000000000000000000000000008152600401808060200182810382526024815260200180613e426024913960400191505060405180910390fd5b6001600560016101000a81548160ff02191690831515021790555050565b7f290decd9548b62a8d60345a988386fc84ba6bc95484008f6362f93160ef3e56360001b81565b60011515600560019054906101000a900460ff16151514612ab8576040517f08c379a000000000000000000000000000000000000000000000000000000000815260040180806020018281038252600a8152602001807f6e6565642073746172740000000000000000000000000000000000000000000081525060200191505060405180910390fd5b60001515600560009054906101000a900460ff16151514612b24576040517f08c379a0000000000000000000000000000000000000000000000000000000008152600401808060200182810382526022815260200180613d956022913960400191505060405180910390fd5b60003411612b9a576040517f08c379a00000000000000000000000000000000000000000000000000000000081526004018080602001828103825260168152602001807f76616c7565206e656564206d6f7265207468616e20300000000000000000000081525060200191505060405180910390fd5b60003490506000600860009054906101000a900473ffffffffffffffffffffffffffffffffffffffff1673ffffffffffffffffffffffffffffffffffffffff166356d68a2d83600960009054906101000a900473ffffffffffffffffffffffffffffffffffffffff1673ffffffffffffffffffffffffffffffffffffffff166318160ddd6040518163ffffffff1660e01b815260040160206040518083038186803b158015612c4857600080fd5b505afa158015612c5c573d6000803e3d6000fd5b505050506040513d6020811015612c7257600080fd5b81019080805190602001909291905050506040518363ffffffff1660e01b8152600401808381526020018281526020019250505060206040518083038186803b158015612cbe57600080fd5b505afa158015612cd2573d6000803e3d6000fd5b505050506040513d6020811015612ce857600080fd5b81019080805190602001909291905050509050600960009054906101000a900473ffffffffffffffffffffffffffffffffffffffff1673ffffffffffffffffffffffffffffffffffffffff166340c10f1933836040518363ffffffff1660e01b8152600401808373ffffffffffffffffffffffffffffffffffffffff1673ffffffffffffffffffffffffffffffffffffffff16815260200182815260200192505050602060405180830381600087803b158015612da457600080fd5b505af1158015612db8573d6000803e3d6000fd5b505050506040513d6020811015612dce57600080fd5b81019080805190602001909291905050505083811115612e39576040517f08c379a0000000000000000000000000000000000000000000000000000000008152600401808060200182810382526025815260200180613e666025913960400191505060405180910390fd5b612efb600860009054906101000a900473ffffffffffffffffffffffffffffffffffffffff1673ffffffffffffffffffffffffffffffffffffffff16638bcc9537846040518263ffffffff1660e01b81526004018082815260200191505060206040518083038186803b158015612eaf57600080fd5b505afa158015612ec3573d6000803e3d6000fd5b505050506040513d6020811015612ed957600080fd5b8101908080519060200190929190505050600654613a6c90919063ffffffff16565b6006819055507fe1ec7176d5b997461b6dfac832d3dca02a6487756f5aa2bcb6d1eaeab56ce66c333483604051808473ffffffffffffffffffffffffffffffffffffffff1673ffffffffffffffffffffffffffffffffffffffff168152602001838152602001828152602001935050505060405180910390a17f45aa7f3cdd2146b76490194f17cc109636462c5c154d0da063bbfd56d1a31e16836040518082815260200191505060405180910390a150505050565b60011515600560019054906101000a900460ff1615151461303a576040517f08c379a000000000000000000000000000000000000000000000000000000000815260040180806020018281038252600a8152602001807f6e6565642073746172740000000000000000000000000000000000000000000081525060200191505060405180910390fd5b60001515600560009054906101000a900460ff161515146130a6576040517f08c379a0000000000000000000000000000000000000000000000000000000008152600401808060200182810382526022815260200180613d956022913960400191505060405180910390fd5b6000821161311c576040517f08c379a00000000000000000000000000000000000000000000000000000000081526004018080602001828103825260178152602001807f616d6f756e74206e656564206d6f7265207468616e203000000000000000000081525060200191505060405180910390fd5b6000600860009054906101000a900473ffffffffffffffffffffffffffffffffffffffff1673ffffffffffffffffffffffffffffffffffffffff1663f81cb5ae84600654600960009054906101000a900473ffffffffffffffffffffffffffffffffffffffff1673ffffffffffffffffffffffffffffffffffffffff166318160ddd6040518163ffffffff1660e01b815260040160206040518083038186803b1580156131c857600080fd5b505afa1580156131dc573d6000803e3d6000fd5b505050506040513d60208110156131f257600080fd5b81019080805190602001909291905050506040518463ffffffff1660e01b815260040180848152602001838152602001828152602001935050505060206040518083038186803b15801561324557600080fd5b505afa158015613259573d6000803e3d6000fd5b505050506040513d602081101561326f57600080fd5b8101908080519060200190929190505050905061329781600654613af490919063ffffffff16565b60068190555060006006541015613316576040517f08c379a000000000000000000000000000000000000000000000000000000000815260040180806020018281038252601c8152602001807f73656c6c52657365727665206e656564206d6f7265207468616e20300000000081525060200191505060405180910390fd5b8181101561336f576040517f08c379a0000000000000000000000000000000000000000000000000000000008152600401808060200182810382526024815260200180613dfb6024913960400191505060405180910390fd5b600960009054906101000a900473ffffffffffffffffffffffffffffffffffffffff1673ffffffffffffffffffffffffffffffffffffffff16639dc29fac33856040518363ffffffff1660e01b8152600401808373ffffffffffffffffffffffffffffffffffffffff1673ffffffffffffffffffffffffffffffffffffffff16815260200182815260200192505050602060405180830381600087803b15801561341857600080fd5b505af115801561342c573d6000803e3d6000fd5b505050506040513d602081101561344257600080fd5b8101908080519060200190929190505050503373ffffffffffffffffffffffffffffffffffffffff166108fc829081150290604051600060405180830381858888f1935050505015801561349a573d6000803e3d6000fd5b507f26787c8671412319a484ce56f5606f739f3d415e9c4930cd0603b1c1badc2042338285604051808473ffffffffffffffffffffffffffffffffffffffff1673ffffffffffffffffffffffffffffffffffffffff168152602001838152602001828152602001935050505060405180910390a1505050565b60405180807f46756e64506f6f6c5f53656e64457468000000000000000000000000000000008152506010019050604051809103902081565b6000809054906101000a900473ffffffffffffffffffffffffffffffffffffffff1681565b60076020528060005260406000206000915090505481565b60011515600560019054906101000a900460ff16151514613612576040517f08c379a000000000000000000000000000000000000000000000000000000000815260040180806020018281038252600a8152602001807f6e6565642073746172740000000000000000000000000000000000000000000081525060200191505060405180910390fd5b60011515600560009054906101000a900460ff1615151461367e576040517f08c379a0000000000000000000000000000000000000000000000000000000008152600401808060200182810382526023815260200180613e1f6023913960400191505060405180910390fd5b6000600760003373ffffffffffffffffffffffffffffffffffffffff1673ffffffffffffffffffffffffffffffffffffffff1681526020019081526020016000205411613733576040517f08c379a000000000000000000000000000000000000000000000000000000000815260040180806020018281038252600c8152602001807f6e6565642068617320657468000000000000000000000000000000000000000081525060200191505060405180910390fd5b60025461374b60045442613af490919063ffffffff16565b116137a1576040517f08c379a0000000000000000000000000000000000000000000000000000000008152600401808060200182810382526023815260200180613dd86023913960400191505060405180910390fd5b6000600760003373ffffffffffffffffffffffffffffffffffffffff1673ffffffffffffffffffffffffffffffffffffffff1681526020019081526020016000205490503373ffffffffffffffffffffffffffffffffffffffff166108fc829081150290604051600060405180830381858888f1935050505015801561382b573d6000803e3d6000fd5b506000600760003373ffffffffffffffffffffffffffffffffffffffff1673ffffffffffffffffffffffffffffffffffffffff16815260200190815260200160002081905550600960009054906101000a900473ffffffffffffffffffffffffffffffffffffffff1673ffffffffffffffffffffffffffffffffffffffff16639dc29fac33600960009054906101000a900473ffffffffffffffffffffffffffffffffffffffff1673ffffffffffffffffffffffffffffffffffffffff166318160ddd6040518163ffffffff1660e01b815260040160206040518083038186803b15801561391857600080fd5b505afa15801561392c573d6000803e3d6000fd5b505050506040513d602081101561394257600080fd5b81019080805190602001909291905050506040518363ffffffff1660e01b8152600401808373ffffffffffffffffffffffffffffffffffffffff1673ffffffffffffffffffffffffffffffffffffffff16815260200182815260200192505050602060405180830381600087803b1580156139bc57600080fd5b505af11580156139d0573d6000803e3d6000fd5b505050506040513d60208110156139e657600080fd5b8101908080519060200190929190505050507f7ea5f43cc9e27e9343d5a9d178f6780f166850ccc0795f2e8ad86580fd6aa2163382604051808373ffffffffffffffffffffffffffffffffffffffff1673ffffffffffffffffffffffffffffffffffffffff1681526020018281526020019250505060405180910390a150565b60025481565b600080828401905083811015613aea576040517f08c379a000000000000000000000000000000000000000000000000000000000815260040180806020018281038252601b8152602001807f536166654d6174683a206164646974696f6e206f766572666c6f77000000000081525060200191505060405180910390fd5b8091505092915050565b6000613b3683836040518060400160405280601e81526020017f536166654d6174683a207375627472616374696f6e206f766572666c6f770000815250613c0e565b905092915050565b600080831415613b515760009050613bbe565b6000828402905082848281613b6257fe5b0414613bb9576040517f08c379a0000000000000000000000000000000000000000000000000000000008152600401808060200182810382526021815260200180613db76021913960400191505060405180910390fd5b809150505b92915050565b6000613c0683836040518060400160405280601a81526020017f536166654d6174683a206469766973696f6e206279207a65726f000000000000815250613cce565b905092915050565b6000838311158290613cbb576040517f08c379a00000000000000000000000000000000000000000000000000000000081526004018080602001828103825283818151815260200191508051906020019080838360005b83811015613c80578082015181840152602081019050613c65565b50505050905090810190601f168015613cad5780820380516001836020036101000a031916815260200191505b509250505060405180910390fd5b5060008385039050809150509392505050565b60008083118290613d7a576040517f08c379a00000000000000000000000000000000000000000000000000000000081526004018080602001828103825283818151815260200191508051906020019080838360005b83811015613d3f578082015181840152602081019050613d24565b50505050905090810190601f168015613d6c5780820380516001836020036101000a031916815260200191505b509250505060405180910390fd5b506000838581613d8657fe5b04905080915050939250505056fe4e656564206e6f7420626520696e2063726f776466756e64696e6720706572696f64536166654d6174683a206d756c7469706c69636174696f6e206f766572666c6f776e656564206265796f6e642074686520636f72776466756e64696e6720706572696f647769746864726177206e656564206c657373207468616e205f6d617847617356616c75656e65656420746f20626520696e20612063726f776466756e64696e6720706572696f644e6f207065726d697373696f6e20746f20696e766f6b652074686520436f6e7472616374666474416d6f756e74206e656564206d6f7265207468616e205f6d696e427579546f6b656ea165627a7a72305820c0b34e6e3c25748ac2c25e157d16a2f1f5ba16a5b6ad90537e1419de11d76e570029",
  "source": "pragma solidity >=0.4.22 <0.6.0;\r\n\r\nimport \"../Interface/ITradeFundPool.sol\";\r\nimport \"../apps/FutureDaoApp.sol\";\r\nimport \"../Interface/ICurve.sol\";\r\nimport \"../Interface/IERC20.sol\";\r\n\r\n/// @title eth\r\n/// @author viko\r\n/// @notice \r\n/// @dev \r\ncontract TradeFundPool is ITradeFundPool , FutureDaoApp{\r\n    /// @notice \r\n    uint256 public crowdFundPrice;\r\n\r\n    /// @notice \r\n    uint256 public crowdFundDuringTime;\r\n\r\n    /// @notice \r\n    uint256 public crowdFundMoney;\r\n\r\n    /// @notice \r\n    uint256 public crowdFundStartTime;\r\n\r\n    /// @notice \r\n    bool public during_crowdfunding = true;\r\n\r\n    /// @notice \r\n    bool public started = false;\r\n\r\n    /// @notice \r\n    uint256 public sellReserve;\r\n\r\n    /// @notice eth\r\n    mapping (address=>uint256) public crowdFundingEth;\r\n\r\n    /////////////\r\n    /// auth\r\n    /////////////\r\n    bytes32 public constant FundPool_Start = keccak256(\"FundPool_Start\");\r\n    bytes32 public constant FundPool_PreMint = keccak256(\"FundPool_PreMint\");\r\n    bytes32 public constant FundPool_SendEth = keccak256(\"FundPool_SendEth\");\r\n    bytes32 public constant FundPool_Clearing = keccak256(\"FundPool_Clearing\");\r\n    //bytes32 public constant FundPool_crowdfunding = keccak256(\"FundPool_crowdfunding\");\r\n\r\n    //////////////\r\n    //// \r\n    //////////////\r\n    /// @notice \r\n    ICurve private curve;\r\n\r\n    /// @notice \r\n    IERC20 private token;\r\n\r\n    /* events */\r\n    /// @notice \r\n    event OnBuy(\r\n        address who,\r\n        uint256 ethAmount,\r\n        uint256 fdtAmount\r\n    );\r\n\r\n    /// @notice \r\n    event OnSell(\r\n        address who,\r\n        uint256 ethAmount,\r\n        uint256 fdtAmount\r\n    );\r\n\r\n    /// @notice \r\n    event OnRevenue(\r\n        address who,\r\n        uint256 ethAmount\r\n    );\r\n\r\n    /// @notice \r\n    event OnWindingUp(\r\n        address who,\r\n        uint256 ethAmount\r\n    );\r\n\r\n    /// @notice \r\n    event OnPreMint(\r\n        address who,\r\n        uint256 fdtAmount,\r\n        uint256 timestamp\r\n    );\r\n\r\n    /// @notice \r\n    /// @param who \r\n    /// @param ethAmount \r\n    event OnSendEth(\r\n        address who,\r\n        uint256 ethAmount\r\n    );\r\n\r\n    /// @notice \r\n    /// @param clearingContractAddress \r\n    /// @param ratio \r\n    /// @param ethAmount \r\n    event OnClearing(\r\n        address clearingContractAddress,\r\n        uint256 ratio,\r\n        uint256 ethAmount\r\n    );\r\n\r\n    event OnEvent(uint256 tag);\r\n\r\n    /// @notice \r\n    /// @param _duringTime _money \r\n    constructor(AppManager _appManager,IERC20 _token,uint256 _duringTime,uint256 _money,address _curve) FutureDaoApp(_appManager) public{\r\n        require(_duringTime > 0, \"d need greater than 0\");\r\n        require(_money > 0, \"m need greater than 0\");\r\n        curve = ICurve(_curve);\r\n        token = _token;\r\n        crowdFundDuringTime = _duringTime;\r\n        crowdFundMoney = _money;\r\n        crowdFundStartTime = now;\r\n        crowdFundPrice = curve.getCrowdFundPrice(crowdFundMoney);\r\n    }\r\n\r\n    /// @notice \r\n    modifier isStart(){\r\n        require(started == true,\"need start\");\r\n        _;\r\n    }\r\n\r\n    /// @notice \r\n    modifier isCrowdfunding(){\r\n        require(during_crowdfunding == true,\"need to be in a crowdfunding period\");\r\n        _;\r\n    }\r\n\r\n    /// @notice \r\n    modifier isNotCrowdfunding(){\r\n        require(during_crowdfunding == false,\"Need not be in crowdfunding period\");\r\n        _;\r\n    }\r\n\r\n    /////////////////\r\n    //// \r\n    ////////////////\r\n\r\n    /// @notice \r\n    function getCurveAddress() public view returns(address) {\r\n        return address(curve);\r\n    }\r\n\r\n    /// @notice \r\n    function getFdTokenAddress() public view returns(address){\r\n        return address(token);\r\n    }\r\n\r\n    /////////////////\r\n    ////\r\n    ////////////////\r\n\r\n    /// @notice \r\n    function start() public auth(FundPool_Start) {\r\n        started = true;\r\n    }\r\n\r\n    /// @notice \r\n    function preMint(address who,uint256 amount,uint256 timestamp) public auth(FundPool_PreMint){\r\n        require(started == false,\"cant start\");\r\n        address govern = appManager.getGovernShareManager();\r\n        token.mint(govern,amount);\r\n        IGovernShareManager(govern).mintBinding(who,amount,timestamp);\r\n        emit OnPreMint(who,amount,timestamp);\r\n    }\r\n\r\n    /// @notice \r\n    /// @dev \r\n    function windingUp() public isStart() isCrowdfunding() {\r\n        require(crowdFundingEth[msg.sender] > 0,\"need has eth\");\r\n        require(now.sub(crowdFundStartTime) > crowdFundDuringTime, \"need beyond the corwdfunding period\");\r\n        uint256 value = crowdFundingEth[msg.sender];\r\n        msg.sender.transfer(value);\r\n        crowdFundingEth[msg.sender] = 0;\r\n        //token\r\n        token.burn(msg.sender,token.totalSupply());\r\n        emit OnWindingUp(msg.sender,value);\r\n    }\r\n\r\n    /// @notice \r\n    /// @dev ,\r\n    function crowdfunding(bool needBack,uint256 tag) public payable isStart() isCrowdfunding(){\r\n        uint256 invest = msg.value;\r\n        require(invest > 0,\"value need more than 0\");\r\n        require(now.sub(crowdFundStartTime) <= crowdFundDuringTime,\"need in the corwdfunding period\");\r\n        uint256 balance = address(this).balance;\r\n        if(balance < crowdFundMoney){//\r\n            uint256 fdtAmount = invest.div(crowdFundPrice);\r\n            token.mint(msg.sender,fdtAmount);\r\n            sellReserve = sellReserve.add(curve.getVauleToReserve(invest));\r\n            crowdFundingEth[msg.sender] = crowdFundingEth[msg.sender].add(invest);\r\n        }\r\n        else if(balance == crowdFundMoney){//\r\n            during_crowdfunding = false;\r\n            uint256 fdtAmount = invest.div(crowdFundPrice);\r\n            token.mint(msg.sender,fdtAmount);\r\n            sellReserve = sellReserve.add(curve.getVauleToReserve(invest));\r\n            crowdFundingEth[msg.sender] = crowdFundingEth[msg.sender].add(invest);\r\n        }\r\n        else if(needBack){//\r\n            during_crowdfunding = false;\r\n            uint256 needValue = invest.sub(address(this).balance.sub(crowdFundMoney));\r\n            uint256 fdtAmount = needValue.div(crowdFundPrice);\r\n            token.mint(msg.sender,fdtAmount);\r\n            //eth\r\n            msg.sender.transfer(invest.sub(needValue));\r\n            sellReserve = sellReserve.add(curve.getVauleToReserve(needValue));\r\n            crowdFundingEth[msg.sender] = crowdFundingEth[msg.sender].add(needValue);\r\n        }\r\n        else{//\r\n            during_crowdfunding = false;\r\n            uint256 needValue = invest.sub(address(this).balance.sub(crowdFundMoney));\r\n            uint256 fdtAmount = needValue.div(crowdFundPrice);\r\n            token.mint(msg.sender,fdtAmount);\r\n            uint256 fdtAmount2 = curve.getBuyAmount(invest.sub(needValue),token.totalSupply());\r\n            token.mint(msg.sender,fdtAmount2);\r\n            sellReserve = sellReserve.add(curve.getVauleToReserve(invest));\r\n            crowdFundingEth[msg.sender] = crowdFundingEth[msg.sender].add(invest);\r\n        }\r\n        emit OnEvent(tag);\r\n    }\r\n\r\n    /// @notice \r\n    function buy(uint256 _minBuyToken,uint256 tag) public payable isStart() isNotCrowdfunding(){\r\n        require(msg.value > 0,\"value need more than 0\");\r\n        uint256 invest = msg.value;\r\n        uint256 fdtAmount = curve.getBuyAmount(invest,token.totalSupply());\r\n        token.mint(msg.sender,fdtAmount);\r\n        require(fdtAmount <= _minBuyToken,\"fdtAmount need more than _minBuyToken\");\r\n        //\r\n        sellReserve = sellReserve.add(curve.getVauleToReserve(invest));\r\n        emit OnBuy(msg.sender,msg.value,fdtAmount);\r\n        emit OnEvent(tag);\r\n    }\r\n\r\n    /// @notice \r\n    /// @dev \r\n    /// @param _amount \r\n    function sell(uint256 _amount,uint256 _maxGasValue) public isStart() isNotCrowdfunding(){\r\n        require(_amount > 0,\"amount need more than 0\");\r\n        uint256 withdraw = curve.getSellValue(_amount,sellReserve,token.totalSupply());\r\n        sellReserve = sellReserve.sub(withdraw);\r\n        require(sellReserve >= 0,\"sellReserve need more than 0\");\r\n        require(withdraw >= _maxGasValue,\"withdraw need less than _maxGasValue\");\r\n        token.burn(msg.sender,_amount);\r\n        msg.sender.transfer(withdraw);\r\n        emit OnSell(msg.sender,withdraw,_amount);\r\n    }\r\n\r\n    /// @notice \r\n    /// @dev reserve fdt\r\n    function revenue() public payable isStart() isNotCrowdfunding(){\r\n        require(msg.value > 0,\"value need more 0\");\r\n        uint256 invest = msg.value;\r\n        //\r\n        sellReserve = sellReserve.add(invest);\r\n        emit OnRevenue(msg.sender,invest);\r\n    }\r\n\r\n    /// @notice   \r\n    function sendEth(address payable _who,uint256 _value) public isStart() isNotCrowdfunding() auth(FundPool_SendEth){\r\n        //  \r\n        require(address(this).balance.sub(_value) >= sellReserve, \"not sufficient funds\");\r\n        _who.transfer(_value);\r\n        emit OnSendEth(_who,_value);\r\n    }\r\n\r\n    /// @notice   ratio  10 ** 9\r\n    function clearing(address payable _clearingContractAddress,uint256 _ratio) public isStart() isNotCrowdfunding() auth(FundPool_Clearing){\r\n        require(_ratio<=10**9,\"ratio is wrong\");\r\n        uint256 _value_reserve = (sellReserve).mul(_ratio).div(10**9);\r\n        uint256 _value_govern = (address(this)).balance.sub(sellReserve).mul(_ratio).div(10**9);\r\n        sellReserve = sellReserve.sub(_value_reserve);\r\n        uint256 v = _value_reserve.add(_value_govern);\r\n        _clearingContractAddress.transfer(v);\r\n        emit OnClearing(_clearingContractAddress,_ratio,v);\r\n    }\r\n\r\n    function() external payable{\r\n    }\r\n}",
  "sourcePath": "D:/_______work/FD_Contract_ETH/fd/contracts/Financing/TradeFundPool.sol",
  "compiler": {
    "name": "solc",
    "version": "0.5.8+commit.23d335f2.Emscripten.clang"
  },
  "schemaVersion": "3.0.11",
  "updatedAt": "2019-10-18T02:49:23.477Z",
  "devdoc": {
    "details": "",
    "methods": {
      "constructor": {
        "params": {
          "_duringTime": "_money "
        }
      },
      "crowdfunding(bool,uint256)": {
        "details": ","
      },
      "revenue()": {
        "details": "reserve fdt"
      },
      "sell(uint256,uint256)": {
        "params": {
          "_amount": ""
        }
      },
      "windingUp()": {
        "details": ""
      }
    }
  },
  "userdoc": {
    "methods": {
      "buy(uint256,uint256)": {
        "notice": ""
      },
      "clearing(address,uint256)": {
        "notice": "  ratio  10 ** 9"
      },
      "getCurveAddress()": {
        "notice": ""
      },
      "getFdTokenAddress()": {
        "notice": ""
      },
      "preMint(address,uint256,uint256)": {
        "notice": ""
      },
      "sendEth(address,uint256)": {
        "notice": "  "
      },
      "start()": {
        "notice": ""
      }
    }
  }
}